:020000040800F2
:1030000090180020D9350008E1350008E3350008A4
:10301000E5350008E7350008E93500080000000044
:10302000000000000000000000000000EB35000878
:10303000ED35000800000000EF35000825360008D7
:10304000F3350008F3350008F3350008F3350008C0
:10305000F3350008F3350008F3350008F3350008B0
:10306000F3350008F3350008F3350008F3350008A0
:10307000F3350008F3350008F3350008F335000890
:10308000F3350008F3350008F3350008F335000880
:10309000F3350008F3350008F3350008F335000870
:1030A000F3350008F3350008F3350008F335000860
:1030B000F3350008F3350008F3350008F335000850
:1030C000F3350008F3350008F3350008F335000840
:1030D000F3350008F3350008FD41000807420008F9
:1030E000F3350008F3350008F33500080000000050
:1030F00000000000000000000000000000000000D0
:103100000000000000000000F3350008F33500085F
:10311000F3350008F3350008F3350008F3350008EF
:10312000F3350008F3350008F3350008F3350008DF
:10313000F3350008F3350008F3350008F3350008CF
:10314000F3350008F3350008F3350008F3350008BF
:1031500000F002F800F03CF80AA090E8000C82446D
:103160008344AAF10107DA4501D100F031F8AFF24A
:10317000090EBAE80F0013F0010F18BFFB1A43F055
:10318000010318473829000058290000103A24BFCD
:1031900078C878C1FAD8520724BF30C830C144BFBC
:1031A00004680C60704700000023002400250026FE
:1031B000103A28BF78C1FBD8520728BF30C148BF9A
:1031C0000B6070471FB501F081FC1FBD10B510BD2D
:1031D00001F01AFD1146FFF7F5FF00F009F801F0C4
:1031E00038FD03B4FFF7F2FF03BC01F06CFB0000F5
:1031F00086B00121084600F024FD83480068834919
:103200000860072000214FF46123CDE90131CDE9A9
:1032100003100A207E4B0B22194600907D4801F0D6
:1032200058FA072000214FF46123CDE90131CDE99F
:1032300003100220784B032219460090774801F0D2
:1032400048FA00F0F5F900F023FA0021744802F082
:1032500048F80021734802F044F80021724802F057
:1032600040F80021714802F03CF80021704802F05B
:1032700038F800242BE06A4802F017F90546294681
:10328000674802F02EF8674802F00FF90546294614
:10329000644802F026F8644802F007F9054629461A
:1032A000614802F01EF8614802F0FFF80546294621
:1032B0005E4802F016F85E4802F0F7F80546294627
:1032C0005B4802F00EF8FA2000F0EEF9641C042CC2
:1032D000D1D10121524802F004F81BE04FF4FA70FA
:1032E00000F0E2F94E4802F0E0F8044621464C486E
:1032F00001F0F7FF4FA1514802F03FF90446504951
:1033000001F044FE4FA1514802F037F904464C4900
:1033100001F03CFEE2E7F0B5ADF5137D4C4803C883
:1033200090918F904A49083103C99291919003205E
:10333000052300903A48929A919901F0C2FF4449BE
:10334000103103C98E918D900320052300903548DC
:10335000909A8F9901F0B5FF3D49183103C98C91BE
:103360008B900320052300902F488E9A8D9901F0B1
:10337000A8FF3749203103C98A918990032005238A
:1033800000902A488C9A8B9901F09BFF032005231B
:10339000009027488A9A899901F093FF1D4945A812
:1033A00002F070FA0746012102F086F90646012173
:1033B00002F001FA0546002102F0FAF9044621461E
:1033C000244801F0FFFD154901A802F05BFA074609
:1033D000012102F071F90646012102F0ECF90546DF
:1033E000002102F0E5F9044621461B4801F0EAFD00
:1033F0001849124801F094FD1749144801F090FD56
:103400000DF5137DF0BD0000040000200000002039
:10341000000C0140EC05002000080140A80300203A
:10342000480000205800002068000020780000209C
:10343000880000205541525431000000B80200209D
:1034400075510008554152543200000030030020ED
:10345000F458000898000020A80100200CB50020B6
:10346000019000905648006840F48030544908604C
:1034700000BF5348006800F4003000900198401CE1
:103480000190009818B90198B0F5A06FF1D14C489F
:10349000006800F4003010B10120009001E000202D
:1034A0000090009801285CD14648006840F0100068
:1034B000444908600846006820F003000860084698
:1034C000006840F0020008603D4840683C494860A0
:1034D0000846406848600846406840F4806048609C
:1034E0000846C06A384908403549C8620846C06A7B
:1034F000364908433249C8620846006840F0806097
:10350000086000BF2E48006800F000600028F9D075
:103510002B48406820F47C102949486008464068E0
:1035200040F4E81048600846006840F08070086089
:1035300000BF2348006800F000700028F9D0204840
:10354000406820F003001E4948600846406840F08B
:103550000200486000BF1A48406800F00C000828CC
:10356000F9D10CBD10B5FFF779FF10BD10B51448A7
:10357000006840F00100124908600846406814499C
:1035800008400F49486008460068124908400C4945
:1035900008600846006820F48020086008464068FB
:1035A00020F4FE0048600846006820F0A050086043
:1035B0004FF47F0088600020C862FFF7D3FF10BD82
:1035C000001002400020024000F0FEFF440601000F
:1035D0000000FFF0FFFFF6FE09488047094800475A
:1035E000FEE7FEE7FEE7FEE7FEE7FEE7FEE7FEE7B3
:1035F000FEE7FEE704480549054A064B7047000010
:103600006D35000851310008900800209018002006
:103610009010002090100020014800BF704700006B
:10362000180000202C480068401C2B490860704797
:1036300030B52A4800684FF47A72B0FBF2F1481EA8
:10364000B0F1807F01D301201BE0481E4FF0E02243
:10365000506150170F22002804DB13071C0E204B6B
:103660001C5406E013071D0E1E4B00F00F04241F10
:103670001D5500BF00204FF0E0229061072010612F
:10368000002020B100BF72B600E0ABBEFDE730BD48
:103690004FF0E020006940F001004FF0E0210861A8
:1036A00070470D480068704700B5024600BF0D48DE
:1036B00014380068C0F3080018B172B600E0ABBE61
:1036C000FDE700BFFFF7EDFF014600BFFFF7E9FF91
:1036D000401A9042FAD900BD2000002004000020CA
:1036E00000E400E018ED00E02DE9F05F05460C462F
:1036F0004FF00009CA4600260027B046B346CE4820
:10370000854211D0CD4885420ED0CD4885420BD0A0
:10371000CC48854208D0CC48854205D0CB4885426C
:1037200002D0CB48854200D103E0B221C9A001F00C
:10373000BFF8E078A0B1E078042811D0E07828281C
:103740000ED0E07848280BD0E078142808D0E07834
:10375000102805D0E0781C2802D0E078182800D185
:1037600003E0B321BBA001F0A3F8002010B920882A
:1037700000B103E0B421B7A001F09AF8E07800F0BE
:103780000F09E07800F0100080B1A078012805D082
:10379000A078022802D0A078032800D103E0BB2142
:1037A000ACA001F085F8A07840EA0909207838B388
:1037B000D5F8008000261FE0012000FA06F72088D7
:1037C00000EA070ABA4516D1B7000F2000FA07FB36
:1037D00028EA0B0809FA07F040EA0808E0782828E8
:1037E00003D10120B040686105E0E078482802D1AB
:1037F0000120B0402861761C082EDDD3C5F800807A
:103800002088FF282BDDD5F80480002623E006F170
:103810000800012101FA00F7208800EA070ABA45EA
:1038200018D1B7000F2000FA07FB28EA0B0809FAA5
:1038300007F040EA0808E078282803D106F10800DC
:1038400081406961E078482804D106F1080001212F
:1038500081402961761C082ED9D3C5F80480BDE8C3
:10386000F09F4FF6FF710180022181700421C17029
:1038700070472DE9F04704460E460027B84600255C
:10388000A946012C7ED0022C7CD0042C7AD0082CA6
:1038900078D07A4884427FD07848203084427BD0E8
:1038A0007748844278D076488030844274D0754816
:1038B000844271D0744884426ED0744884426BD084
:1038C0007348844268D07348844265D0B4F5805F01
:1038D00062D0B4F5EA1F5FD0B4F5EB1F5CD0B4F54D
:1038E000004F59D06C48844256D0401C844253D07B
:1038F000801C844250D0001D84424DD066480F3059
:10390000844249D0B4F1201F46D04FEAF0308442BF
:1039100042D0624884423FD0614884423CD06148F2
:10392000844239D06048844236D06048844233D0E3
:10393000B4F5011F30D05E4884422DD0401C844233
:103940002AD0801C844227D0001D844224D05848AD
:103950000F30844220D056481F3084421CD0544837
:103960003F30844218D052487F30844214D05048AF
:10397000FF30844210D04F4884420DD04E488442DC
:103980000AD000E008E04D48844205D04C4884420B
:1039900002D04C48844200D104E040F22A212DA0FC
:1039A00000F086FF0EB1012E00D104E040F22B2181
:1039B00028A000F07DFF04F00040B0F1004F02D1DC
:1039C0004148C56901E040484568C4F30349A7B2CE
:1039D00004F44010B0F5401F08D125F070653A4856
:1039E000406820F070603849486013E004F48010AB
:1039F000B0F5801F07D1032000FA09F825EA080571
:103A000045F0706506E0600D000107FA00F085439F
:103A100045F0706526B1600D010107FA01F005431C
:103A200004F00040B0F1004F02D12748C56101E029
:103A300025484560BDE8F08700080140000C0140C2
:103A4000001001400014014000180140001C01401A
:103A500000200140786C6962735C73706C5C7374F5
:103A60006D3332663178782F73746D33326631304E
:103A7000785F6770696F2E6300000000100014000B
:103A80004000160000011800000218000003180092
:103A900000081A00000C1A0001002000000130008C
:103AA000000230000004300000112000002020003F
:103AB00001000080000200800004008000080080F7
:103AC0000010008000200080000001402DE9F0413E
:103AD00000210022002500230026002400278C4618
:103AE000DFF8EC81D8F8048008F00C0121B104293A
:103AF00007D0082959D109E0DFF8D881C0F8008043
:103B000058E0DFF8D481C0F8008053E0DFF8C081CE
:103B1000D8F8048008F47012DFF8B481D8F8048073
:103B200008F48035920C0D2A01D0921C00E0062288
:103B300035B9DFF8A88102FB08F8C0F8008033E04F
:103B4000DFF88C81D8F82C8008F48036DFF880818B
:103B5000D8F82C8008F00F0808F1010446B9DFF806
:103B60007881B8FBF4F808FB02F8C0F800801BE08D
:103B7000DFF85C81D8F82C80C8F3031808F101073E
:103B8000DFF84C81D8F82C80C8F3032808F1020C28
:103B9000DFF84481B8FBF7F808FB0CF8B8FBF4F841
:103BA00008FB02F8C0F8008004E0DFF82881C0F8C4
:103BB000008000BF00BFDFF81881D8F8048008F04B
:103BC000F0010909DFF8188118F80130D0F80080F9
:103BD00028FA03F8C0F80480DFF8F480D8F80480ED
:103BE00008F4E061090ADFF8F88018F80130D0F82D
:103BF000048028FA03F8C0F80880DFF8D480D8F8E9
:103C0000048008F46051C90ADFF8D48018F8013044
:103C1000D0F8048028FA03F8C0F80C80DFF8B080F0
:103C2000D8F8048008F44041890BDFF8B88018F810
:103C30000130D0F80C80B8FBF3F8C0F81080BDE874
:103C4000F08170B504460D462748204008B904B1FC
:103C500004E040F24A4125A000F02AFE0DB1012DFA
:103C600000D104E040F24B4120A000F021FE2DB134
:103C70001748806920431649886104E01448806928
:103C8000A0431349886170BD70B504460D462048B5
:103C9000204008B904B104E040F2694113A000F0EB
:103CA00007FE0DB1012D00D104E040F26A410FA0E2
:103CB00000F0FEFD2DB10648C06920430449C861EB
:103CC00004E00348C069A0430149C86170BD000019
:103CD0000010024000127A0040787D0100093D008A
:103CE00030000020400000200200C0FF786C6962B4
:103CF000735C73706C5C73746D3332663178782FDB
:103D000073746D3332663130785F7263632E630093
:103D1000003601812DE9F04786B005460C460026A5
:103D2000B24600BFB1460027E54885420BD0E548C2
:103D3000854208D0E448854205D0E448854202D057
:103D4000E348854200D103E0B821E2A000F0B0FDD5
:103D5000206820B1E9492068884200D203E0B921F7
:103D6000DCA000F0A5FDA08818B1A088B0F5805FA8
:103D700000D103E0BA21D7A000F09AFDE08858B145
:103D8000E088B0F5805F07D0E088B0F5005F03D031
:103D9000E088B0F5405F00D103E0BB21CDA000F08A
:103DA00087FD208938B12089B0F5806F03D0208944
:103DB000B0F5C06F00D103E0BC21C6A000F078FDD3
:103DC00060894FF6F371084010B9608900B103E0D3
:103DD000BD21C0A000F06CFDA08958B1A089B0F54C
:103DE000807F07D0A089B0F5007F03D0A089B0F50F
:103DF000407F00D103E0BE21B6A000F059FDA089AC
:103E000068B1AF48854205D0AE48854202D0AE4881
:103E1000854200D103E0C221AEA000F049FD2F464B
:103E20002E8A4CF6FF700640E08806432E82AE894B
:103E30004EF6F3100640A0882189084361890843A3
:103E40000643AE81AE8A4FF6FF400640A089064386
:103E5000AE8201A8FFF73AFE9948874202D1DDF809
:103E600010A001E0DDF80CA0A88900F4004040B1EA
:103E70000AEBCA0000EB0A1021684900B0FBF1F818
:103E800007E00AEBCA0000EB0A1021688900B0FBCA
:103E9000F1F86420B8FBF0F006013009642101FB61
:103EA0001089A88900F4004040B1322000EBC9001D
:103EB000B0FBF1F000F00700064308E0322000EB11
:103EC00009106421B0FBF1F000F00F0006432E81D1
:103ED00006B0BDE8F08770B504460D4678488442C8
:103EE0000BD07848844208D07748844205D0774880
:103EF000844202D07648844200D104E04FF4B1718C
:103F000074A000F0D5FC0DB1012D00D104E040F209
:103F1000631170A000F0CCFC25B1A08940F40050E2
:103F2000A08104E0A0894DF6FF710840A08170BD1A
:103F30002DE9F04705460C4617464FF00008C246EB
:103F4000C14600265E4885420BD05E48854208D0B7
:103F50005D48854205D05D48854202D05C48854277
:103F600000D104E040F289115AA000F0A1FC282CF5
:103F700019D040F22770844215D040F22660844266
:103F800011D040F2255084420DD040F224408442AA
:103F900009D040F64600844205D040F66A108442BB
:103FA00001D0602C00D104E04FF4C57149A000F0AD
:103FB0007FFC0FB1012F00D104E040F28B1145A02E
:103FC00000F076FC40F66A1084420ED13C488542EF
:103FD00005D03C48854202D03B48854200D104E0F0
:103FE00040F28F113BA000F063FC2E46C4F3421850
:103FF00004F01F0A012000FA0AF9B8F1010F01D1FB
:104000000C3605E0B8F1020F01D1103600E014368D
:1040100027B1306840EA0900306003E0306820EAE8
:1040200009003060BDE8F0872DE9F04104460D46F7
:1040300000260027224884420BD02248844208D020
:104040002148844205D02148844202D0204884423D
:1040500000D104E040F20A411EA000F029FC40F229
:10406000266085420BD040F22550854207D040F6AD
:104070004600854203D040F66A10854200D104E034
:1040800040F20B4113A000F013FC40F66A10854289
:104090000ED10B48844205D00A48844202D00A4817
:1040A000844200D104E040F20F410AA000F000FC7D
:1040B0002E120120B04087B2F8432080BDE8F08185
:1040C000003801400044004000480040004C0040DF
:1040D00000500040786C6962735C73706C5C737440
:1040E0006D3332663178782F73746D3332663130C8
:1040F000785F75736172742E6300000021AA44001A
:10410000D0F82C1121B1B0F83011D0F82C21516128
:1041100070472DE9F843044600BF207918B972B6FC
:1041200000E0ABBEFDE700BFA068058805F00F000A
:10413000E06105F0200068B3A068808800F0FF0807
:1041400000BFF949684601F0E4F800BFD4F83C022A
:10415000FF2801D1012000E00020074600BF3E46B5
:10416000684601F0EBF800BF1EB1012084F832016F
:104170000FE004F59A774646EB49684601F0C9F826
:104180003146384601F0C3F9684601F0D7F800BF60
:1041900000BF00BF05F0400010B340F22661A068E8
:1041A000FFF742FF606AA16A884209D100202062BD
:1041B000012084F82C002046FFF7A2FFBDE8F88319
:1041C00000BF206A18B972B600E0ABBEFDE700BFC1
:1041D000D4E90801405CA1688880606A401C606284
:1041E000A068008800F0080030B1A0688088C0B2E4
:1041F00000909DF8000000BF00BFDFE710B5CB487E
:10420000FFF787FF10BD10B5C948FFF782FF10BD4B
:1042100010B50446C749C848206000202071A0603E
:10422000E06020616061A061E06120626062A06284
:10423000012084F82C00FF2104F12D0000F021FC66
:104240000020C4F82C01A4F8300184F8320104F5F0
:104250009A7000BF0021C0F80011C0F80411C0F826
:10426000081100BF00BF00BFA0F59A74002084F8B9
:104270004002B2480078401CB049087000BF0846B0
:104280000078022803DD72B600E0ABBEFDE700BF98
:10429000204610BDF8B505460C466846FFF7E1FA22
:1042A000206900F0F9FC06460121FFF7CAFC6069AD
:1042B00000F0F2FC06460121FFF7C3FC94F8280049
:1042C00038B101210846FFF7BCFC0121E06AFFF785
:1042D000D0FA04208DF80300208BADF800000320F5
:1042E0008DF8020069462069FFF7FEF918208DF865
:1042F0000300608BADF8000003208DF802006946D2
:104300006069FFF7F1F90121D4E9080290472146DD
:10431000E069FFF7FFFC012240F22661E069FFF748
:1043200007FE012240F22551E069FFF701FE01215D
:10433000E069FFF7D0FD0120287194F9300094F86E
:104340003110002804DB0A07130E7D4A135406E0DF
:104350000A07160E7B4A00F00F031B1FD65400BF3E
:1043600094F93000002809DB00F01F020121914080
:104370004209920002F1E022C2F8001100BFF8BD2C
:104380002DE9F04790B004460D4616461F46DDE97C
:10439000199ADDF8608000BF207918B172B600E08C
:1043A000ABBEFDE700BF99E80F000C340FC41C3C06
:1043B00003A800F0ABFC99E80F00CDE90523CDE997
:1043C00003018DF83DA0079508970120B04080B209
:1043D000ADF82400012000FA08F080B2ADF8260004
:1043E000002102A800F090FC574887420DD1B8F197
:1043F000090F0AD1854208D10A2E06D1002101A851
:1044000000F082FC007802907CE0504887420DD199
:10441000B8F1060F0AD1854208D1072E06D1012135
:1044200001A800F071FC007802906BE046488742DA
:104430000DD1B8F1020F0AD1854208D1032E06D161
:10444000022101A800F060FC007802905AE0404888
:1044500087420DD1B8F1050F0AD1854208D1062E49
:1044600006D1032101A800F04FFC0078029049E03A
:10447000364887420DD1B8F10A0F0AD1854208D1DA
:104480000B2E06D1042101A800F03EFC007802901A
:1044900038E02F4887420DD1B8F1080F0AD1854284
:1044A00008D1092E06D1052101A800F02DFC0078C5
:1044B000029027E0274887420DD1B8F10A0F0AD1B0
:1044C000854208D10B2E06D1062101A800F01CFC64
:1044D0000078029016E01F4887420ED1B8F10C0F09
:1044E0000BD11B48854208D1022E06D1082101A814
:1044F00000F00AFC0078029004E000BF72B600E011
:10450000ABBEFDE700BF9DF80800801E052871D2F4
:10451000DFE800F0033650856A0000BF034884429C
:104520001CD072B619E0000018000020A80300207B
:10453000EC05002064590008B4590008440000202C
:1045400000E400E018ED00E000080140000C01402C
:104550000014014000100140ABBEFDE700BFC048A1
:10456000A06000208DF834000E904FF400300B90C6
:10457000BB480A90BB480C9026208DF83C006FE0A9
:1045800000BFB948844203D072B600E0ABBEFDE77D
:1045900000BFB348A06001208DF8340008200E90C1
:1045A00080030B90AE480A90AE480C9026208DF800
:1045B0003C0055E000BFAD48844203D072B600E035
:1045C000ABBEFDE700BFAA48A06000208DF8340014
:1045D0000E904FF480200B90A5480A90A1480C90B3
:1045E00027208DF83C003BE000BFA048844204D067
:1045F00072B601E02FE0ABBEFDE700BF9C48A060B3
:1046000001208DF834009B480E9080030B90984851
:104610000A9094480C9027208DF83C0020E000BFC1
:104620009248844203D072B600E0ABBEFDE700BF03
:104630008F48A06001208DF834008E4820300E9005
:104640004FF480200B908A480A9086480C902720CF
:104650008DF83C0004E000BF72B600E0ABBEFDE7A1
:1046600000BF03A92046FFF715FE10B0BDE8F08794
:104670002DE9FE4F04460F4690469946DDE90F6B43
:10468000DDE90DA5A4F83061C4F82C51B5B1284678
:1046900000F002FB01210190FFF7D3FA02A8FFF717
:1046A000E0F810208DF80B00ADF8086001208DF8BF
:1046B0000A0002A92846FFF717F800BF0C984B46DE
:1046C000424639468DE8010C2046FFF759FEBDE809
:1046D000FE8F2DE9FF4F89B004460D46164616AFF2
:1046E00097E8800FCDF814800020ADF820000C2052
:1046F000ADF81E000020ADF81C00ADF81A00ADF8B2
:10470000180005A8CDE903ABCDE9010900973246B1
:10471000294620460C9BFFF7ABFF0DB0BDE8F08F9C
:10472000D0F82C1121B1B0F83011D0F82C21116142
:10473000704770B504460D46164600BF207918B97B
:1047400072B600E0ABBEFDE700BF00BF1EB972B697
:1047500000E0ABBEFDE700BF2068C16B2046884784
:1047600008B9002070BD00BF00BF00BFBFF34F8F6E
:1047700000BF00BF00BF002084F82C006062A6626A
:104780002562606A401C60622046FFF7C9FF00BFD7
:1047900000BF00BFBFF34F8F00BF00BF00BF28782E
:1047A000A16888800120DDE770B504460E461546F5
:1047B00000BF207918B972B600E0ABBEFDE700BFBC
:1047C00000BF1DB972B600E0ABBEFDE700BF00BF81
:1047D000FF2D03D972B600E0ABBEFDE700BF206835
:1047E000C16B2046884708B9002070BD00BF00BFDC
:1047F00000BFBFF34F8F00BF00BF00BF304672192C
:1048000004F12D0103E003780B70401C491C904219
:10481000F9D100BF20682A4604F12D01C36A204661
:104820009847E2E7014600BF087918B972B600E080
:10483000ABBEFDE700BF91F82C00704710B50A48E9
:10484000FFF7E6FC04460C4A0C4900F02FF8074835
:10485000FFF7DEFC0446084A084900F027F810BDBF
:1048600000440040893C0008A8030020EC0500201B
:10487000004800401000140000300008454D0008BA
:104880001249096801F0010179B1104980390968BC
:1048900001F0010149B100E000BF4FF0604109683B
:1048A0000029F9D04FF06042107070470120704726
:1048B00000BF72B600E0ABBEFDE710B5044620466F
:1048C000FFF7DEFF10BD00BFFEE70000800E00E036
:1048D000704710B5431C02E010F8011B71B181074D
:1048E000FAD14FF0013202C88C1A8C4314EAC2117B
:1048F000F9D0C01A0A0603D0C01E10BDC01A10BDE0
:104900000A0401D0801E10BD0902FCD0401E10BD5B
:10491000032A40F2308010F0030C00F0158011F8EB
:10492000013BBCF1020F624498BF11F801CB00F8C3
:10493000013B38BF11F8013BA2F1040298BF00F817
:1049400001CB38BF00F8013B11F0030300F0678092
:10495000083AC0F0088051F8043B083A51F804CBFB
:10496000A0E80810F5E7121D5CBF51F8043B40F8C1
:10497000043BAFF30080D20724BF11F8013B11F8CC
:1049800001CB48BF11F8012B24BF00F8013B00F810
:1049900001CB48BF00F8012B7047431A28BF9A4249
:1049A0007FF6B6AF032A1044114440F2268010F07F
:1049B000030F1EBF11F8013D521E00F8013D10F01B
:1049C000030F7FF4F6AF11F0030300F0AB80083A59
:1049D000C0F00B8051F8043D083A51F804CD40F87E
:1049E000043D40F804CDFFF7F3BF121D5CBF51F842
:1049F000043D40F8043DAFF30080D20724BF11F816
:104A0000013D11F801CD48BF11F8012C24BF00F879
:104A1000013D00F801CD48BF00F8012C704710B5EA
:104A2000203AC0F00B80B1E81850203AA0E81850A6
:104A3000B1E81850A0E81850BFF4F5AF5FEA027C67
:104A400024BFB1E81850A0E8185044BF18C918C0D6
:104A5000BDE810405FEA827C24BF51F8043B40F877
:104A6000043B08BF7047D20728BF31F8023B48BF5C
:104A700011F8012B28BF20F8023B48BF00F8012B9A
:104A800070474FF000020429C0F0128010F0030CB0
:104A900000F07480CCF1040CBCF1020F18BF00F8D8
:104AA000012BA8BF20F8022BA1EB0C0100F066B887
:104AB0005FEAC17C24BF00F8012B00F8012B48BF3E
:104AC00000F8012B704770477047704770B5064C6F
:104AD0007C44064D7D4403E0206820448047241D2B
:104AE000AC42F9D170BD00000810000010100000A9
:104AF00010B500F06DF8BDE8104000F064B8431A3E
:104B000028BF9A427FF68BAF104410F0030F114478
:104B10001EBF11F8013D521E00F8013D10F0030FB9
:104B20007FF4F6AF103AC0F00A8010B531E91850A2
:104B3000103A20E91850BFF4F9AFBDE81040530710
:104B400024BF31E9081020E9081044BF51F8043DA2
:104B500040F8043D12F0030F08BF7047D20728BF8A
:104B600031F8023D48BF11F8012C28BF20F8023D62
:104B700048BF00F8012C70474FF0000200B5134603
:104B800094469646203922BFA0E80C50A0E80C506D
:104B9000B1F12001BFF4F7AF090728BFA0E80C501E
:104BA00048BF0CC05DF804EB890028BF40F8042B17
:104BB00008BF704748BF20F8022B11F0804F18BF84
:104BC00000F8012B7047002801D0FFF77CBE70472A
:104BD00010B5002102A000F045F8012010BD000032
:104BE0005349475056464E3A2050757265207669B3
:104BF000727475616C20666E2063616C6C65640014
:104C000000487047300800207546FFF7F9FFAE46B0
:104C100005006946534620F00700854618B020B5C8
:104C2000FEF7E8FCBDE820404FF000064FF000071B
:104C30004FF000084FF0000B21F00701AC46ACE844
:104C4000C009ACE8C009ACE8C009ACE8C0098D46B1
:104C5000704710B50446AFF300802046BDE8104011
:104C6000FEF7BFBA70B505460C460A2000E06D1C81
:104C7000FFF723FE35B128780028F8D102E0641C44
:104C8000FFF71BFE14B120780028F8D1BDE8704072
:104C90000A20FFF712BE000001461448814201D1EC
:104CA000042070471248814201D10820F9E71148D9
:104CB000814201D11020F4E70F48814201D1202028
:104CC000EFE70E48814201D14020EAE70C488142DB
:104CD00001D18020E5E70B48814201D18015E0E752
:104CE00000BF72B600E0ABBEFDE700000008014067
:104CF000000C014000100140001401400018014068
:104D0000001C01400020014001707047002101603B
:104D100041608160C160016141614FF6FF710183B3
:104D200041830021C161491E01620021416280F876
:104D30002810491EC162FF2180F830100F2180F831
:104D40003110704700BF704770B505460C4605E04E
:104D500021782868026828469047641C207800283B
:104D6000F6D170BD704710B5044620680A2102686C
:104D70002046904710BD2DE9F04105460C461646E9
:104D8000002706E0217828680268284690477F1CA3
:104D9000641CB742F6D1BDE8F08100000149016012
:104DA00070470000045A00084FF4A461016000211C
:104DB00041600321816020210173602141735F21E3
:104DC000817300210161042141612E210176704728
:104DD0002DE9F04104460E4600251EB13046FFF78E
:104DE00078FD05462069471B207B00F00C08B8F1D0
:104DF000040F0BD125B12A463146204600F07DF83C
:104E0000227E3946204600F05DF80AE0227E3946CF
:104E1000204600F057F825B12A463146204600F0DA
:104E20006CF8BDE8F08170B504460D462846FFF7E2
:104E300050FD064632462946606800F054F870BDC1
:104E400070B504460D466168086801684A6B2946DA
:104E5000904770BD10B50446606800F019F810BDA9
:104E600010B50446606800F01FF810BD70B5044628
:104E70000D46164632462946606800F03EF870BD81
:104E800013B50446012201A9606800F02CF81CBD8E
:104E900010B5044694F84C0000B110BD20680268BB
:104EA000D168884700BFF8E710B5044694F84C0075
:104EB00000B110BD206818B1206802689169884768
:104EC00000BFF6E7F7B506460C46002C00DA0024D2
:104ED000002505E0012202A9304600F004F86D1C0F
:104EE000A542F7D1FEBD70B504460D4616463246C2
:104EF0002946204600F001F870BD70B504460D4605
:104F0000164694F84C0000B170BD206828B12068A6
:104F1000016832464B682946984700BFF4E7000015
:104F20002DE9F04104460F462760251D26462846F8
:104F3000FFF734FF0546134828606E6000BF2C1F42
:104F400004F10C00FFF730FFA0F10C0404F128007D
:104F5000FFF72AFFA0F12804002084F8440004F1A0
:104F60004800002140F8481900BF0446002084F89A
:104F70004C002822044904F15000FFF750FD204660
:104F8000BDE8F081445A0008CC5800082DE9F843E8
:104F900005460F46E8462E46344694F8440000B1D4
:104FA0000AE0192204F10C0104F12800FFF737FD93
:104FB000012084F8440000BF00BF2846B847BDE880
:104FC000F883000070B504460D4610481048206074
:104FD00068684FF4807205F10801606004F1080010
:104FE000FFF796FC05F58475286804F58474206045
:104FF0002879207168796071A879A071E879A5F5A0
:105000008475E071A4F58474204670BD045A0008CC
:10501000845A00080160704770B505462C6894F802
:10502000440000B90AE0192204F1280104F10C003F
:10503000FFF7F5FC002084F8440000BF284670BD4F
:105040002DE9FE4304460D4616461B2004F8010BCD
:105050005B2004F8010B302004F8010B00274FF00F
:105060000008002002900190009002A801A96A4661
:1050700005F00F07C5F30328C5F300430370C5F31C
:1050800040431370C5F380430B7000BF07F0080066
:1050900040B93B2004F8010B07F11E01204600F047
:1050A00036F8044608F0080040B93B2004F8010B2C
:1050B00008F12801204600F02AF804469DF808006F
:1050C00028B13B2004F8010B312004F8010B9DF8B6
:1050D000040028B13B2004F8010B372004F8010B31
:1050E0009DF8000050B13B2004F8010B1EB13620A2
:1050F00004F8010B02E0352004F8010B6D2004F8E0
:10510000010B002004F8010B2046BDE8FE83F0B53A
:105110000B4604460CE00A22B3FBF2F502FB153104
:1051200001F1300200F8012B0A22B3FBF2F300BFB9
:10513000002BF0D1844203D1302100F8011BF0BDD7
:10514000254606462A4631468A420FD00AE000BF6D
:1051500000BF177891F800C082F800C00F7000BF40
:1051600000BF521C4F1E39469742F0D800BF00BF07
:1051700000BFE4E72DE9F843044621466846FFF7FF
:1051800049FF254609262946304602460A2A00D309
:10519000092201F1500353F8227000BF95F84C002A
:1051A00000B105E0286801684A6B3946904700BFA6
:1051B00000BF2046FFF778FE2046FFF769FEA046B5
:1051C0006846FFF729FF4046BDE8F88301461448CA
:1051D000814201D1042070471248814201D1082048
:1051E000F9E71148814201D11020F4E70F488142CC
:1051F00001D12020EFE70E48814201D14020EAE7AB
:105200000C48814201D18020E5E70B48814201D161
:105210008015E0E700BF72B600E0ABBEFDE700001E
:1052200000080140000C0140001001400014014042
:1052300000180140001C01400020014010B503800F
:1052400031B1012907D0022908D003290CD108E087
:10525000022484700DE0012484700AE00324847029
:1052600007E00324847004E000BF72B600E0ABBE28
:10527000FDE700BF082A1DD2DFE802F004070A0D8F
:10528000101316190024C47019E00424C47016E029
:105290002824C47013E04824C47010E01424C4709F
:1052A0000DE01024C4700AE01C24C47007E0182428
:1052B000C47004E000BF72B600E0ABBEFDE700BF03
:1052C00010BD1FB5069CDDE90112C0E9001202798C
:1052D0000121914001818372C4720021017304B0E5
:1052E00010BD70B504460D4600BF207B60B900BFFD
:1052F000204600F028F818B972B600E0ABBEFDE712
:1053000000BF204600F050F82946204600F025F85E
:1053100070BD00BF00BF00BF00BF00BFBFF34F8F15
:1053200000BF00BF00BFEFF3108202F0010272B6AF
:105330000AB1012200E0002202707047017801B931
:1053400062B600BF70470146086820B1486810285F
:1053500001D2012070470020FCE730B500BF027B7E
:10536000012A03D072B600E0ABBEFDE700BF00BF6C
:10537000827A042A06D0827A052A03D072B600E027
:10538000ABBEFDE700BF026809B1058900E000255A
:105390002B4609B1002500E005892C4643EA044567
:1053A000156100BF30BD00002DE9F84F044600BF75
:1053B000206818B972B600E0ABBEFDE700BF00BFC1
:1053C0006068102803D372B600E0ABBEFDE700BFF3
:1053D0004FF001080027266800BF1148814630467B
:1053E000FFF7F4FE40EA070A41465046C84700BFAF
:1053F000E77A94F80A80B4F8089026684B4642464B
:1054000039466846FFF71AFF69463046FEF76CF9E1
:1054100000BF254601202C462873BDE8F88F000008
:10542000433C0008014600BF087B012803D072B648
:1054300000E0ABBEFDE700BF00BF887A012809D0BD
:10544000887A022806D0887A032803D072B600E052
:10545000ABBEFDE700BF0868826892B208890240CF
:105460000AB1012070470020FCE7014600BF087B1D
:10547000012803D072B600E0ABBEFDE700BF00BF5D
:10548000887A042806D0887A052803D072B600E00E
:10549000ABBEFDE700BF0868C26892B2088902404F
:1054A0000AB1012070470020FCE770B5054600BF37
:1054B000287B60B900BF2846FFF745FF18B972B6D0
:1054C00000E0ABBEFDE700BF2846FFF76DFF2C46AE
:1054D0000226022E0DD1A07A042802D0A07A052837
:1054E00003D12046FFF7C1FF0BE02046FFF79AFFEC
:1054F00007E01EB92046FFF795FF02E02046FFF7C0
:10550000B4FF80F0010070BD0020FFF7F1BA10B5C4
:10551000D0F80021815400BF00F580700268521C51
:1055200002600268FF23B2FBF3F403FB1422026063
:1055300000BF8268521C8260A0F5807000BFD0F866
:105540000821FF2A03D972B600E0ABBEFDE700BF19
:1055500000BFD0F80421D0F808311A44FF23B2FB71
:10556000F3F403FB1422D0F800319A4203D072B650
:1055700000E0ABBEFDE700BF10BD38B504460D46E8
:1055800021466846FFF746FD29462046FFF720FCE6
:105590006846FFF741FD204638BD014691F80D01F0
:1055A000704700002DE9F84304460E4615467BE09F
:1055B000204600F0ABF894F80C0138BB3D49684632
:1055C000FFF7A7FED4F80801C0F5807828684045A9
:1055D00001D2286800E0404607469FB13168D4F800
:1055E000083104F1080298183A46FFF791F9286843
:1055F000C01B2860306838443060D4F80801384453
:10560000C4F808016846FFF799FE48E02949684652
:10561000FFF77FFE36E0306800780A2822D1204666
:10562000D0F80811FF2901D3002112E00D23D0F892
:1056300008114A1CC0F8082100F1080253540A233B
:10564000D0F808114A1CC0F8082100F10802535490
:10565000012101B91EE03068401C30602868401EFE
:1056600028600FE031680A78D4F80801411CC4F8BA
:10567000081104F108010A543068401C30602868A1
:10568000401E2860D4F80801B0F5807F02D0286859
:105690000028C0D100BF6846FFF750FE00BF20467B
:1056A00000F008F900B102E02868002880D100BFAE
:1056B000BDE8F8831800002080F80C11704770B521
:1056C00004460D462846FFF704F906462068324690
:1056D000294643682046984770BD70B586B0044699
:1056E0000D462068C16A2046884768B194F80F616A
:1056F0003246294601A8FFF7A3FC206801A9826869
:105700002046904700BF00BF06B070BD2DE9F843AA
:10571000044620496846FFF7FCFDD4F8080138B973
:10572000D4F808716846FFF709FE3846BDE8F883EB
:1057300004F10809D4F8086100BFFF20B04202D28A
:1057400000BF00BF064660680268D16B884708B991
:10575000002009E06068016832460B6B49469847B3
:1057600008B9002000E03046054665B1D4F80801CC
:10577000461B2EB104F1080041193246FFF70DF91E
:10578000C4F8086100BFD4F808816846FFF7D6FD69
:105790004046CBE71800002010B504462068816A17
:1057A0002046884708B9002010BD94F80E01FBE799
:1057B00080F80F11704711B1012280F80D2180F897
:1057C0000E11704770B50546284600F073F800B119
:1057D00070BD2846FFF79AFF044603E02846FFF70E
:1057E00095FF0446002CF9D100BFF1E777B581B0F1
:1057F00004462046FFF78AFF029808B1039800B9D3
:105800007FBD204600F056F848B30025174968468A
:10581000FFF77FFDD4F80801C0F580750398A84212
:1058200000D903956846FFF789FD94F80C01A8B1EB
:10583000002300200CE0029E325C0A2A01D10226DD
:1058400000E00126F118A94200D904E00B46401CF3
:1058500003998842EFD100BF039000BF00BF03AAA5
:1058600002A92046FFF79EFE00BFC9E718000020EE
:1058700013B504462068012201A9436820469847D1
:105880001CBD000070B504460D462046FFF786FAA1
:1058900004460748F03444F8F00C44F8EC5C00206F
:1058A000A06120776077A077E077F03C204670BD5C
:1058B000845A0008014604480068C0F3080008B193
:1058C000012070470020FCE704ED00E00001020029
:1058D00000010000010300000108000001080100B0
:1058E0000308010007080100040801000208010084
:1058F00008080000000C01400000000000100140FA
:10590000040000000010014005000000000C0140F0
:1059100002000000000C014001000000636F6D7088
:10592000696C6174696F6E2074696D653A204A61B3
:105930006E20323120323031392C2031303A353539
:105940003A353820636F6D6D69745F646174613AD4
:10595000206E6F2064617461000000000000000090
:1059600000000000000000000000000009550008D1
:10597000095500080955000809550008095500088F
:10598000095500080955000809550008095500087F
:10599000095500080955000800000000000000003B
:1059A00009550008095500080955000800000000C5
:1059B00000000000454D000800000000000000004D
:1059C00000000000000000000000000000000000D7
:1059D00000000000000000000000000000000000C7
:1059E00033470008A947000800000000000000003D
:1059F0002548000800000000000000000000000032
:105A00000000000009550008774D0008494D0008C6
:105A1000095500080000000000000000674D000864
:105A20000000000000000000000000000000000076
:105A30000000000000000000654D000800000000AC
:105A400000000000814E00086D4E0008274E00083F
:105A5000554E00080000000000000000614E0008E4
:105A60000000000000000000000000000000000036
:105A70000000000000000000414E0008000000008F
:105A80000000000071580008ED570008BF560008DC
:105A9000C55700080000000000000000674D000826
:105AA0000000000000000000000000009B550008FE
:105AB0009957000800000000DB560008E85A00086B
:105AC00000000020480000008C310008305B000816
:105AD0004800002048180000A83100083BD8FFFF0C
:105AE00039DBFFFF59EDFFFF0000000000A24A0470
:105AF000000000000000000001020304060708097E
:105B00000000000000000000000000000000000095
:105B1000000000000000000000000000010203047B
:105B20000102030406070809020406080000000039
:04000005080031516D
:00000001FF
