:020000040800F2
:10000000286400206D0200087502000877020008CD
:10001000790200087B0200087D0200080000000051
:100020000000000000000000000000007F02000847
:10003000810200080000000083020008711500081A
:10004000870200088702000887020008870200086C
:10005000870200088702000887020008870200085C
:10006000870200088702000887020008870200084C
:10007000870200088702000887020008870200083C
:10008000870200088702000887020008870200082C
:10009000870200088702000887020008870200081C
:1000A000870200088702000887020008870200080C
:1000B00087020008870200088702000887020008FC
:1000C00087020008870200088702000887020008EC
:1000D00087020008C1160008D1160008E1160008C2
:1000E00087020008870200088702000887020008CC
:1000F00087020008870200088702000887020008BC
:10010000000000000000000000000000870200085E
:10011000A1160008B116000887020008870200082F
:10012000870200088702000887020008870200088B
:10013000870200088702000800000000000000009D
:1001400087020008870200088702000800000000FC
:10015000000000000000000000000000000000009F
:10016000000000000000000087020008870200086D
:1001700087020008000000000000000000000000EE
:10018000000000008702000800F002F800F05EF8AE
:100190000AA090E8000C82448344AAF10107DA45E2
:1001A00001D100F053F8AFF2090EBAE80F0013F0D6
:1001B000010F18BFFB1A43F001031847709C03009E
:1001C000909C03000A444FF0000C10F8013B13F020
:1001D000070408BF10F8014B1D1108BF10F8015BA0
:1001E000641E05D010F8016B641E01F8016BF9D193
:1001F00013F0080F1EBF10F8014BAD1C0C1B09D1EA
:100200006D1E58BF01F801CBFAD505E014F8016B5B
:1002100001F8016B6D1EF9D59142D6D370470000ED
:100220000023002400250026103A28BF78C1FBD8FF
:10023000520728BF30C148BF0B6070471FB52AF076
:1002400048FE00F07DFA1FBD10B510BD00F0C2FAE7
:100250001146FFF7F3FF1BF069FA00F0E0FA03B470
:10026000FFF7F2FF03BC1BF04DFA0000094880477E
:1002700009480047FEE7FEE7FEE7FEE7FEE7FEE788
:10028000FEE7FEE7FEE7FEE704480549034A054BA3
:10029000704700002516000889010008284E00203C
:1002A00028640020284E0020704753EA020C00F01A
:1002B00069802DE9F04B4FF00006002B1FBFB3FA09
:1002C00083F503FA05F424FA05F65E4012BF1643DF
:1002D000B2FA82F502FA05F4C5F120051EBF22FA32
:1002E00005FC44EA0C04203556EA044C4FEA144459
:1002F00018BF641C4FF000084FF00009904271EBEA
:10030000030C39D3002919BFB1FA81F701FA07F6B6
:10031000B0FA80F700FA07F6C7F120071EBF20FAEF
:1003200007FC46EA0C062037B6FBF4FCA7EB0507F2
:10033000103F07F01F0BCBF120060CFA0BFB2CFA39
:1003400006F644BFB3460026202FA4BF5E464FF0FA
:10035000000B5BEA060C08BF4FF0010B19EB0B0911
:10036000ABFB027C48EB0608C01B06FB02CC0BFB78
:1003700003CC71EB0C01C1E70B46024641464846EF
:10038000BDE8F08B13B54FF000004FF00001AFF364
:100390000080BDE81C40704710B54C1084EA53043F
:1003A00004D54042C1F1000138BF491E1B4204D5AB
:1003B0005242C3F1000338BF5B1EFFF776FF14F013
:1003C000804F04D04042C1F1000138BF491E14F0F3
:1003D000004F04D05242C3F1000338BF5B1E10BD72
:1003E00010B5431C02E010F8011B71B18107FAD16E
:1003F0004FF0013202C88C1A8C4314EAC211F9D0B2
:10040000C01A0A0603D0C01E10BDC01A10BD0A04CF
:1004100001D0801E10BD0902FCD0401E10BD40EA74
:10042000010370B59B072ED14FF00136042A2AD361
:1004300008C810C99D1B9D43121F15EAC61517D089
:10044000D8B2E1B2401A50EA056110D198B2A1B217
:10045000401A50EA05410AD123F07F4024F07F4141
:10046000401A50EA052102D1180EA0EB146070BDAD
:10047000A342DBD018BA21BA884201D9012070BD4D
:100480004FF0FF3070BD0AB9002070BD10F8013B7D
:1004900011F8014B63B1A3420AD1521E08D010F8E3
:1004A000013B11F8014B1BB1A34201D1521EEDD10A
:1004B000181B70BD032A40F2308010F0030C00F0CE
:1004C000158011F8013BBCF1020F624498BF11F88E
:1004D00001CB00F8013B38BF11F8013BA2F1040247
:1004E00098BF00F801CB38BF00F8013B11F00303BF
:1004F00000F06B80083AC0F0088051F8043B083ADD
:1005000051F804CBA0E80810F5E7121D5CBF51F8C4
:10051000043B40F8043BAFF30080D20724BF11F83E
:10052000013B11F801CB48BF11F8012B24BF00F8A3
:10053000013B00F801CB48BF00F8012B7047431A7C
:1005400028BF9A427FF6B6AF032A1044114440F206
:10055000268010F0030F1EBF11F8013D521E00F857
:10056000013D10F0030F7FF4F6AF11F0030300F02C
:100570007180083AC0F00B8051F8043D083A51F8F8
:1005800004CD40F8043D40F804CDFFF7F3BF121D41
:100590005CBF51F8043D40F8043DAFF30080D20742
:1005A00024BF11F8013D11F801CD48BF11F8012C0D
:1005B00024BF00F8013D00F801CD48BF00F8012C30
:1005C000704701B5FFF776FF01BD10B5203AC0F0C6
:1005D0000B80B1E81850203AA0E81850B1E8185044
:1005E000A0E81850BFF4F5AF5FEA027C24BFB1E881
:1005F0001850A0E8185044BF18C918C0BDE81040F2
:100600005FEA827C24BF51F8043B40F8043B08BFFA
:100610007047D20728BF31F8023B48BF11F8012BC1
:1006200028BF20F8023B48BF00F8012B7047431A4F
:1006300028BF9A427FF6C9AF104410F0030F11444F
:100640001EBF11F8013D521E00F8013D10F0030FCE
:100650007FF4F6AF103AC0F00A8010B531E91850B7
:10066000103A20E91850BFF4F9AFBDE81040530725
:1006700024BF31E9081020E9081044BF51F8043DB7
:1006800040F8043D12F0030F08BF7047D20728BF9F
:1006900031F8023D48BF11F8012C28BF20F8023D77
:1006A00048BF00F8012C70474FF000020429C0F049
:1006B000128010F0030C00F01B80CCF1040CBCF194
:1006C000020F18BF00F8012BA8BF20F8022BA1EBE6
:1006D0000C0100F00DB85FEAC17C24BF00F8012BCB
:1006E00000F8012B48BF00F8012B70474FF00002C3
:1006F00000B5134694469646203922BFA0E80C5018
:10070000A0E80C50B1F12001BFF4F7AF090728BFF2
:10071000A0E80C5048BF0CC05DF804EB890028BF6E
:1007200040F8042B08BF704748BF20F8022B11F097
:10073000804F18BF00F8012B704770477047704713
:1007400070B5064C7C44064D7D4403E0206820448F
:100750008047241DAC42F9D170BD0000049703000E
:100760001897030010B500F00FF8006810BD10B521
:10077000044600F009F8046010BD10B500F00EF852
:10078000BDE8104000F004B800487047A04D0020BC
:10079000002801D01AF0B6BF7047000010B5002144
:1007A00002A000F045F8012010BD00005349475059
:1007B00056464E3A2050757265207669727475619E
:1007C0006C20666E2063616C6C6564000048704745
:1007D000A04D00207546FFF7F9FFAE4605006946BB
:1007E000534620F00700854618B020B5FFF74CFDB2
:1007F000BDE820404FF000064FF000074FF0000822
:100800004FF0000B21F00701AC46ACE8C009ACE8A2
:10081000C009ACE8C009ACE8C0098D46704710B506
:100820000446AFF300802046BDE81040FFF717BD37
:1008300070B505460C460A2000E06D1C1AF064FFF6
:1008400035B128780028F8D102E0641C1AF05CFF6A
:1008500014B120780028F8D1BDE870400A201AF0C1
:1008600053BF00003EB50446064903C9CDE9010166
:1008700000200346024601A9009020460BF005FE29
:100880003EBD0000AC18030821B1826842F00102AD
:10089000826003E0826842F00202826070470000DA
:1008A00010B50022B0F1A04F02D0124B984204D1F3
:1008B000114B1A68114B1A4003E0114B1A680F4B89
:1008C0001A40D1E9003423438C682343CC6843EABF
:1008D00004330C7C43EA04231A43B0F1A04F02D046
:1008E000044B984202D1044B1A6001E0044B1A6099
:1008F00010BD00000001005008030050E010FCFF94
:100900000807005021B1C26842F00102C26003E052
:10091000C26822F00102C2607047C26822F002027F
:10092000C260C2680A43C2607047014600208A68FC
:1009300002F000420AB1012000E0002070470246A8
:10094000002013680B400BB1012000E0002070472D
:1009500010B502460020D0680C4B1840D1E9003495
:1009600023438C682343CC6823430C6923434C699D
:1009700023438C6923431843D060106B20F00F0091
:100980000B7F5B1E1843106310BD000007C0FFFD06
:10099000F0B50C461D4600BF00BF052A0FDA016BFB
:1009A00002EB420677001F2606FA07F3994302EB93
:1009B0004206760004FA06F3194301633CE00A2A72
:1009C00011DA416B561F06EB460677001F2606FA22
:1009D00007F39943561F06EB4606760004FA06F322
:1009E0001943416328E00F2A13DA816BA2F10A064A
:1009F00006EB460677001F2606FA07F39943A2F195
:100A00000A0606EB4606760004FA06F319438163EC
:100A100012E0C16BA2F10F0606EB460677001F2617
:100A200006FA07F39943A2F10F0606EB4606760095
:100A300004FA06F31943C163092C14DD8169A4F19A
:100A40000A0606EB4607072606FA07F386699E4361
:100A500086618669A4F10A0707EB470705FA07F7DD
:100A60003E43866110E04169661E06EB4607382664
:100A700006FA07F346699E434661466904EB44075C
:100A800005FA07F73E434661F0BD826822F08042D6
:100A9000826082680A4382607047816841F0004149
:100AA00081607047816841F00401816070470021D6
:100AB000016041608160C16001614161816101212A
:100AC00001777047826822F04052826021B18268CB
:100AD00042F08052826003E0826842F000528260FD
:100AE000704710B52AB1036801248C40234303608A
:100AF00004E0036801248C40A343036010BD70B57B
:100B000000230024036840F6FE758D40AB43D2E914
:100B10000056354396683543D66845EA060404FA1C
:100B200001F52B43036070BD18B5002300930090BE
:100B300001F10803009C23440093009B1A6018BD38
:100B400018B500230093009001F11403009C234486
:100B50000093009B1A6018BD30B5044604254FF47D
:100B6000302000F08BF80546042D16D10C480069A2
:100B700040F002000A49086108464461006940F0FB
:100B8000400008614FF4302000F078F80546044832
:100B9000006920F0020002490861284630BD0000CB
:100BA0000020024004200B49C96801F0010109B18D
:100BB00001200EE00749C96801F0100109B10220C7
:100BC00007E00449C96801F0040109B1032000E00D
:100BD00004207047002002400348006940F0800074
:100BE00001490861704700000020024078B50646C0
:100BF0000C460425002000904FF4302000F03EF811
:100C00000546042D24D11348006940F00100114924
:100C1000086134804FF4302000F030F80546042D90
:100C200010D1B01C0090200C009908804FF43020A7
:100C300000F024F805460748006920F00100054946
:100C4000086105E00348006920F0010001490861DE
:100C5000284678BD002002400548006900F0800069
:100C600020B10448024948600348486070470000CA
:100C70000020024023016745AB89EFCD00B5024655
:100C80000423FFF78FFF034603E0FFF78BFF0346C4
:100C9000521E012B01D1002AF7D102B905231846B3
:100CA00000BDF0B50A46002100240025002300BF46
:100CB0003FE0012606FA01F4166806EA0405A5429B
:100CC00036D11679012E02D01679022E18D18668F7
:100CD0004FEA410C032707FA0CF7BE4386605679AA
:100CE0004F00BE4087683E438660868801278F405C
:100CF000BE438680878896798E40B6B23743878018
:100D000006684FEA410C032707FA0CF7BE4306605A
:100D100016794F00BE4007683E430660C3684F0027
:100D20000326BE40B343D6794F00BE403343C36071
:100D3000491C1029BDD3F0BDF0B5002300244D0798
:100D4000ED0E02FA05F3CE1000F1200555F82650FD
:100D50004E07F70E0F26BE40B543CF1000F1200618
:100D600046F82750CE1000F1200555F8265045EAE8
:100D70000304CE1000F1200545F82640F0BD4FF6E3
:100D8000FF71016000210171022141710021817117
:100D9000C17170470021010F31B1094AD26A22F4B2
:100DA0007852074BDA6205E0054AD26A22F4F872FB
:100DB000034BDA62024AD26A0243014BDA6270479D
:100DC0000010024029B1064A52690243044B5A619D
:100DD00004E0034A52698243014B5A6170470000A4
:100DE0000010024029B1064AD2690243044BDA617D
:100DF00004E0034AD2698243014BDA617047000084
:100E00000010024029B1064A12690243044B1A61DC
:100E100004E0034A12698243014B1A6170470000E3
:100E20000010024029B1064A92690243044B9A61BC
:100E300004E0034A92698243014B9A6170470000C3
:100E40000010024029B1064AD2680243044BDA601E
:100E500004E0034AD2688243014BDA607047000025
:100E6000001002402DE9F0470022002694469046EB
:100E70000025002100240023DFF8AC95D9F8049068
:100E800009F00C0222B1042A07D0082A32D109E065
:100E9000DFF89895C0F8009031E0DFF89495C0F83D
:100EA00000902CE0DFF88095D9F8049009F47016D2
:100EB000DFF87495D9F8049009F4803C4FF00209EA
:100EC00009EB9646BCF1000F04D1DFF8689506FBEC
:100ED00009F10DE0DFF85095D9F82C9009F00F09D1
:100EE00009F10108DFF84895B9FBF8F909FB06F1AB
:100EF000016004E0DFF83495C0F8009000BF00BF47
:100F0000DFF82495D9F8049009F0F0021209DFF80F
:100F1000289519F80230D0F8009029FA03F9C0F8A2
:100F20000490DFF80495D9F8049009F4E062120AFD
:100F3000DFF8049519F80250D0F8049029FA05F961
:100F4000C0F80890DFF8E094D9F8049009F46052F2
:100F5000D20ADFF8E49419F80240D0F8049029FA94
:100F600004F9C0F80C90DFF8C094D9F82C9009F47B
:100F7000F872120902F00F09DFF8C0A43AF819500C
:100F800002F01009B9F1000F05D025B1B1FBF5F958
:100F9000C0F8109003E0D0F80090C0F81090DFF88F
:100FA0008894D9F82C9009F47852520A02F00F096B
:100FB000DFF888A43AF8195002F01009B9F1000FCF
:100FC00005D025B1B1FBF5F9C0F8149003E0D0F8D5
:100FD0000090C0F81490DFF85094D9F8309009F0E0
:100FE0001009B9F1100F04D0DFF84094C0F8189040
:100FF00003E0D0F80090C0F81890DFF82C94D9F8EE
:10100000309009F02009B9F1200F04D0DFF81C94CA
:10101000C0F81C9003E0D0F80090C0F81C90DFF8F6
:101020000894D9F8309009F04009B9F1400F04D084
:10103000DFF8F893C0F8209003E0D0F80090C0F8F3
:101040002090DFF8E493D9F8309009F48079B9F56D
:10105000807F0AD1D0F80090894506D19C4204D106
:101060004FEA4109C0F8249003E0D0F80C90C0F892
:1010700024900027DFF8C09319F80270DFF8A893D6
:10108000D9F8309009F08079B9F1807F0AD1D0F891
:101090000090894506D19F4204D14FEA4109C0F82A
:1010A000309003E0D0F80890C0F83090DFF87893E3
:1010B000D9F8309009F00079B9F1007F0AD1D0F861
:1010C0000090894506D19F4204D14FEA4109C0F8FA
:1010D000349003E0D0F80890C0F83490DFF84893DB
:1010E000D9F8309009F48059B9F5805F0AD1D0F869
:1010F0000090894506D19C4204D14FEA4109C0F8CD
:10110000289003E0D0F80C90C0F82890DFF81893EE
:10111000D9F8309009F40079B9F5007F0AD1D0F8F8
:101120000090894506D19C4204D14FEA4109C0F89C
:101130002C9003E0D0F80C90C0F82C90DFF8E892E7
:10114000D9F8309009F48069B9F5806F0AD1D0F8E8
:101150000090894506D19C4204D14FEA4109C0F86C
:101160004C9003E0D0F80C90C0F84C90DFF8B892A7
:10117000D9F8309009F40069B9F5006F0AD1D0F8B8
:101180000090894506D19C4204D14FEA4109C0F83C
:10119000509003E0D0F80C90C0F85090DFF888929F
:1011A000D9F8309009F40059B9F5005F0AD1D0F8A8
:1011B0000090894506D19C4204D14FEA4109C0F80C
:1011C000549003E0D0F80C90C0F85090DFF858929B
:1011D000D9F8309009F40049B9F5004F0AD1D0F898
:1011E0000090894506D19C4204D14FEA4109C0F8DC
:1011F000589003E0D0F80C90C0F85890DFF828928F
:10120000D9F8309009F00309B9F1000F04D1D0F8F2
:101210000C90C0F8389028E0DFF80C92D9F83090A4
:1012200009F00309B9F1010F04D1D0F80090C0F81A
:1012300038901AE0DFF8F091D9F8309009F00309FE
:10124000B9F1020F04D14FF40049C0F838900CE016
:10125000DFF8D491D9F8309009F00309B9F1030F00
:1012600003D1DFF8C891C0F83890DFF8BC91D9F805
:10127000309009F44039B9F1000F04D1D0F808904A
:10128000C0F83C9028E0DFF8A091D9F8309009F43C
:101290004039B9F5803F04D1D0F80090C0F83C90B7
:1012A0001AE0DFF88491D9F8309009F44039B9F5A3
:1012B000003F04D14FF40049C0F83C900CE0DFF847
:1012C0006891D9F8309009F44039B9F5403F03D11D
:1012D000DFF85891C0F83C90DFF84C91D9F8309085
:1012E00009F44029B9F1000F04D1D0F80890C0F8F2
:1012F000409028E0DFF83091D9F8309009F4402987
:10130000B9F5802F04D1D0F80090C0F840901AE0D1
:10131000DFF81491D9F8309009F44029B9F5002F7D
:1013200004D14FF40049C0F840900CE0DFF8F89089
:10133000D9F8309009F44029B9F5402F03D1DFF8EE
:10134000EC90C0F84090DFF8E090D9F8309009F4C4
:101350004019B9F1000F04D1D0F80890C0F84490BA
:1013600028E0DFF8C490D9F8309009F44019B9F5B5
:10137000801F04D1D0F80090C0F844901AE0DFF844
:10138000A890D9F8309009F44019B9F5001F04D19C
:101390004FF40049C0F844900CE0DFF88C90D9F885
:1013A000309009F44019B9F5401F03D1DFF87C9063
:1013B000C0F84490DFF87090D9F8309009F44009F3
:1013C000B9F1000F04D1D0F80890C0F8489028E097
:1013D000DFF85490D9F8309009F44009B9F5800F3E
:1013E00004D1D0F80090C0F848901AE0DFF83890A7
:1013F000D9F8309009F44009B9F5000F04D14FF441
:101400000049C0F848900CE0DFF81C90D9F8309003
:1014100009F44009B9F5400F03D1DFF81090C0F886
:101420004890BDE8F08700000010024000127A00EA
:10143000001BB70000093D00E0000020F000002084
:1014400021B1028842F40052028004E002884DF685
:10145000FF731A400280704710B504461848844252
:1014600008D101218014FFF7EDFC0021A014FFF743
:10147000E9FC23E01348844208D101210014FFF75E
:10148000C1FC00212014FFF7BDFC17E00E48844288
:1014900008D10121C013FFF7B5FC0021E013FFF7CD
:1014A000B1FC0BE00948844208D10121C803FFF7D1
:1014B000C9FC00214FF40040FFF7C4FC10BD000040
:1014C0000030014000380040003C0040003C01403A
:1014D00030B500224B88B3F5827F19D1028802F41F
:1014E0004152CB880C8923434C898D892C43CD896B
:1014F0002C4323430C884D882C4323431A430280FA
:1015000082884FF2FF031A408B881A43828018E0CA
:1015100082884FF2FF031A408B881A438280028828
:1015200002F44152CB880C8923434C898D892C438A
:10153000CD892C4323430C884D882C4323431A43E5
:101540000280838B4FF2FF74234083830B8A0382D4
:1015500030BD0021018041804FF4E0618180002195
:10156000C180018141818181C18107210182704750
:1015700002480068401C014908607047D000002004
:1015800030B50021002000220023204C646804F0C4
:101590000C0121B1042906D0082925D107E01C4CF3
:1015A0001C4D2C6024E01C4C1A4D2C6020E0174C84
:1015B000646804F47010154C646804F480320224EA
:1015C00004EB904022B9154C4443124D2C600AE0C4
:1015D0000E4CE46A04F00F04631C0F4CB4FBF3F4EC
:1015E00044430C4D2C6003E0094C0A4D2C6000BFB5
:1015F00000BF064C6468C4F30314094D295D054C13
:101600002468CC40034D2C6030BD00000010024027
:1016100000127A00B4000020001BB70000093D0052
:10162000B800002010B51A48006840F4700018494E
:1016300008601848006840F0010016490860002062
:101640004860084600681449084012490860084686
:10165000006820F4802008600846406820F4FE00FE
:1016600048600846C06A20F00F00C8620846006B58
:101670000A490840074908630020886008F0EAFB2F
:10168000FFF77EFF4FF0006001498039086010BD10
:1016900088ED00E000100240FFFFF6FECCFC00FFEA
:1016A00010B5024808F004FE10BD000030410020D3
:1016B00010B5024808F0FCFD10BD00007C4300207E
:1016C00010B5024808F0F4FD10BD00004C3A0020AF
:1016D00010B5024808F0ECFD10BD0000983C002059
:1016E00010B5024808F0E4FD10BD0000E43E002003
:1016F0002DE9F04198B004460D460027B846002673
:10170000206820F001002060666826F44056A86832
:1017100006436660266841F20C608643E9686868A3
:1017200008432969084306432660A66826F44076E4
:1017300068690643A66001A8FFF794FB234884422A
:1017400002D1DDF83C8013E02148844202D1DDF86B
:1017500040800DE01F48844202D1DDF8448007E05C
:101760001D48844202D1DDF8488001E0DDF84C805C
:10177000206800F4004060B14FEA48002968B0FBDF
:10178000F1F74FEA48002968B0FBF1F201FB1206BD
:1017900007E02868B8FBF0F72868B8FBF0F100FB19
:1017A00011862868B6EB500F00D37F1C206800F428
:1017B000004038B1C7F342064FF6F07107EA010066
:1017C00040EA0607A78118B0BDE8F0810038014063
:1017D0000044004000480040004C004010B5044662
:1017E000204621F085F910BD10B50446204621F0B1
:1017F00085F910BD2DE9F04F99B042F210713C48C7
:101800000DF050FD05464CF2503139480DF04AFDBF
:101810000646384936480DF045FD074636493448F6
:101820000DF040FD8046354931480DF03BFD8146C5
:1018300033492F480DF036FD824632492C480DF0D1
:1018400031FD834630492A480DF02CFD12902F4976
:1018500027480DF027FD11902D4925480DF022FD58
:1018600010902C4922480DF01DFD0F902A49204868
:101870000DF018FD0E9029491D480DF013FD0D9037
:1018800027491B480DF00EFD0C90264918480DF015
:1018900009FD0B9042F2107115480DF003FD04464E
:1018A000214903C9CDE917011F49083103C9CDE911
:1018B00015011D49103103C9CDE91301012003228F
:1018C000CDE907200694099000200822CDE90320E5
:1018D0000590DDE91301CDE9010116980090044857
:1018E000159BDDE917120DF05CFC19B0BDE8F08F17
:1018F00000380040A0860100F0490200400D0300BE
:1019000090D0030020A1070040420F0080841E00F9
:10191000C0C62D0000093D00404B4C008096980049
:10192000C0E1E400002D31017811030810B5044630
:10193000204600F007F8204600F040F8204600F06E
:101940001FF810BD70B504460CB1012001E04FF046
:10195000FF300546094800682844084908602CB94A
:10196000002D03DA002000F047F806E0012C04D136
:10197000002D02DD012000F03FF870BD680100205D
:1019800070B504460CB1012001E04FF0FF30054670
:10199000094800682844084908602CB9002D03DA7A
:1019A000002000F03BF806E0012C04D1002D02DD00
:1019B000012000F033F870BD6C01002070B50446C2
:1019C0000CB1012001E04FF0FF30054609480068E6
:1019D0002844084908602CB9002D03DA002000F0E3
:1019E0002FF806E0012C04D1002D02DD012000F0CB
:1019F00027F870BD7001002070B50546002407E08F
:101A000085F00101044A52F8240008F031FC641CFE
:101A1000042CF5D170BD00003000002070B50546E3
:101A2000002407E085F00101044A52F8240008F080
:101A30001FFC641C022CF5D170BD0000500000207A
:101A400070B50546002407E085F00101044A52F80C
:101A5000240008F00DFC641C042CF5D170BD0000BE
:101A60004000002072B6ABBE704700000146B1F1E5
:101A7000904F02D14FF4003070471648814201D197
:101A80000002F9E71448814201D10002F4E713484B
:101A9000814202D14FF48010EEE71148814201D11A
:101AA0004002E9E70F48814202D14FF48000E3E7AA
:101AB0000D48814202D14FF40000DDE70B4881421E
:101AC00002D14FF48030D7E700BF72B600E0ABBE62
:101AD000FDE700000004004800080048000C004832
:101AE000001000480014004800180048001C00487E
:101AF00010B50446204616F0BCFFE8B194F8C010BB
:101B00000022204608F04AFB94F8C000401CC1B2F5
:101B10000122204608F042FB94F8C000801CC1B2AC
:101B20000222204608F03AFB94F8C000C01CC1B263
:101B30000322204608F032FB204616F09EFF28B113
:101B400094F8C1108022204608F072FB2068C16919
:101B50002046884710BD014601F14000704770479C
:101B60002DE9F04104460E46204608F087FB044666
:101B70004048206004F13800002100BF40F83819C7
:101B800000BF00BF00BF044604F13C0000BF40F8A6
:101B90003C1900BF00BF00BF044604F140052846C1
:101BA00002F0E6FE0546344828602F1D122303226A
:101BB0003249384618F0A9F8074600BF3D1F05F125
:101BC0003A07162303222E49384618F09EF8074696
:101BD00000BFA7F13A05002085F87C0000BFA5F101
:101BE0004004214601F1400000BFA06300BF00BFD8
:101BF00000BF00BFE06300BF00BF042E03D372B676
:101C000000E0ABBEFDE700BF36B1012E08D0022ECA
:101C10000AD0032E10D10BE03D2084F8C0000BE069
:101C2000412084F8C00007E0452084F8C00003E0AC
:101C3000492084F8C00000BF00BF36B1012E08D093
:101C4000022E0AD0032E10D10BE0BF2084F8C10071
:101C50000BE0C02084F8C10007E0C12084F8C10077
:101C600003E0C22084F8C10000BF00BF2046BDE8E9
:101C7000F0810000682503086C290308BDDA01081B
:101C8000F1DB010810B504460648206004F140006D
:101C900002F0EFFEA0F14004204608F001FB0446EC
:101CA00010BD0000682503082DE9F04186B0044608
:101CB0000E4631460020A27F1AB9A28B0A4490B288
:101CC00002E0A28B521A90B20246C31700EB935364
:101CD0009B12A0EB832398B200BF608102A8A26987
:101CE00002F13C01104A12680192019A00920160CF
:101CF000009A426000BF00BFDDE90201CDE90401A6
:101D00006589DDE904700190019800F0FF083868EA
:101D100001682A464B6B4146984700BF00BF00BF91
:101D200006B0BDE8F0810000B414030830B50346E6
:101D30000A460021987F18B9988B101A01B202E068
:101D4000988B104401B20846002802DA4FF0FF35A4
:101D500004E0002801DD012500E000252CB2002967
:101D600001DA484200E0084601B20846CD1701EB0F
:101D70009555AD12A1EB852101FB04F000B230BDF9
:101D800010B50446A16901F13800A21C1749096881
:101D900026F0BEFC08B101206072A16901F1380093
:101DA00022461349096826F087FCA16901F1380031
:101DB000221D1049096826F0ABFCA16901F1380029
:101DC000A21D0D49096826F0A3FCA1882046FFF753
:101DD000ADFF2082E1882046FFF7A8FF608261887E
:101DE0002046FFF7A3FFA08210BD0000C014030827
:101DF000C4140308C8140308CC1403082DE9F84FD1
:101E000004464FF00108A08820B15B2808D088283C
:101E10007AD168E000BF4FF000085B20A08000BFCF
:101E2000B8F1000F02D10120BDE8F88F00BF48488B
:101E30000078F8B146484078E0B1204616F044FFFB
:101E400083460BF079F90546006801692846884702
:101E5000594600901FF0A9FE82463E491FF0FCFD46
:101E600081463D4909F09DFA00BF204616F030FB3F
:101E70000020D9E70120FFF759FD00BF0020607660
:101E800000BF607E002858D0204616F01DFF834614
:101E90000BF052F9064600680169304688475946FA
:101EA00000901FF082FE82462C491FF0D5FD81462E
:101EB000294909F076FA2A49086864219FED290A20
:101EC00000F078FC2649886864219FED260A00F01E
:101ED00071FC42F2107104F10C000AF01BFF00BF0C
:101EE0008820A08000BF1E49086816F0C3FB60B1BF
:101EF0001B49886816F0BEFB38B104F10C0016F0DF
:101F0000E8FE10B901208FE71BE000BF204616F065
:101F1000DBFE83460BF010F907460068016938467E
:101F20008847594600901FF040FE82460E491FF038
:101F300093FD8146084909F034FA0020FFF7F6FCCA
:101F400000BF00BF00BF204616F0C2FA00206BE7BA
:101F5000640000200075030899F000081775030855
:101F60002000002000000000327503082DE9F04138
:101F70000646174F3868306006F1080013F0AEFDD2
:101F8000A0F1080634463D1E01D1012000E00020EA
:101F9000B0F1000808D00E4D2868206004F1080058
:101FA00013F09CFDA0F10804291D204600F07EF8E6
:101FB000044628682060286B216851F80C1C60508A
:101FC000E86AA060002020622046BDE8F0810000A1
:101FD000882503082DE9F0470546104F2C463E1E84
:101FE00001D1012000E00020B0F1000900D00B4E2B
:101FF000311D204600F072F80446B9F1000F04D0FC
:1020000004F1080000BFA0F10804A04605F1080093
:1020100000BFA0F108054046BDE8F0878825030809
:102020002DE9F04704460020E0611C480078C8B163
:102030000020E061204616F047FE81460BF07CF858
:1020400005460068016928468847824649461FF0D0
:10205000ACFD804612491FF0FFFC0746114909F00C
:10206000A0F918E00120E061204616F02DFE81461F
:102070000BF062F8064600680169304688478246E0
:1020800049461FF092FD804607491FF0E5FC0746D0
:10209000044909F086F9BDE8F087000064000020DB
:1020A0003E75030899F000085475030870B504469E
:1020B0000D460022291D20460AF014FA044628681D
:1020C0002060686A216851F80C1C6050286AA06082
:1020D00000206076E061204670BD000070B50546C6
:1020E0000C460CB9012000E00020061E00D0034C75
:1020F000211D28460AF02EFA054670BD0826030861
:1021000010B500BF00244472448104734473847387
:102110000482448284828161848384778477828389
:1021200000BF10BD2DE9F04F89B004460120069094
:10213000A088D2287ED003DC40B1A9287BD10BE057
:10214000F12879D0B0F5857FF8D188E100BF002073
:102150000690A920A08000BF069818B9012009B0F8
:10216000BDE8F08F00BFCC480078F8B1CA4840788D
:10217000E0B1204616F0A8FD03900AF0DDFF054609
:102180000068016928468847029003991FF00DFDF9
:10219000C24904901FF060FCC149059009F001F9A3
:1021A00000BF204616F094F90020D8E70120FFF781
:1021B000BDFB2046FFF734FF00BF0020607600BF64
:1021C000E0694000B74951F820002062607EE8B124
:1021D000204616F079FD03900AF0AEFF064600682F
:1021E000016930468847029003991FF0DEFCAE4932
:1021F00004901FF031FCAA49059009F0D2F864213F
:10220000B2EE040A206A00F0D5FA1AE0204616F071
:102210005BFD03900AF090FF0746006801693846AD
:102220008847029003991FF0C0FCA04904901FF05A
:1022300013FC02E02BE028E1C8E09949059009F081
:10224000B0F8204616F040FD03900AF075FF804676
:102250000068016940468847029003991FF0A5FC79
:10226000934904901FF0F8FB8D49059009F099F807
:10227000607E10B143F6982000E06420014604F12E
:102280000C000AF047FD00BFD220A08000BF607E96
:1022900050B1206A16F0EEF930B904F10C0016F0D6
:1022A00018FD08B901205AE700BF204616F00CFDC2
:1022B00003900AF041FF814600680169484688475B
:1022C000029003991FF071FC7A4904901FF0C4FB3F
:1022D0007349059009F065F8607E10B1206A16F028
:1022E000C9F947F2305104F10C000AF013FD204601
:1022F00016F0EAFC03900AF01FFF824600680169AD
:1023000050468847029003991FF04FFC6A49049099
:102310001FF0A2FB6249059009F043F8204616F031
:10232000D3FC02900AF008FF834600680169584612
:102330008847019002991FF038FC604903901FF014
:102340008BFB04905E48D0ED010AB0EE600A049861
:102350001FF0F3FB5249059009F023F8204616F0D0
:10236000B3FC02900AF0E8FE089000680169089842
:102370008847019002991FF018FC524903901FF002
:102380006BFB04904E48D0ED030AB0EE600A04984F
:102390001FF0D3FB4249059009F003F84849D1EDFD
:1023A000010AB0EE600A3F494868642100F002FA71
:1023B0004349D1ED030AB0EE600A3A49C868642186
:1023C00000F0F8F900BFF120A08000BF354948684F
:1023D00016F050F958B13349C86816F04BF930B1CE
:1023E00004F10C0016F075FC08B90120B7E600BF37
:1023F00004F10C0016F06DFCB0B1204616F064FC40
:1024000003900AF099FE07900068016907988847D1
:10241000029003991FF0C9FB2B4904901FF01CFB8D
:102420001F49059008F0BDFF607E50B31D49086844
:1024300064219FED260A00F0BDF91A4988686421DD
:102440009FED220A00F0B6F942F2107104F10C007F
:102450000AF060FC00BF4FF48570A08000BF1149F6
:10246000086816F007F958B10E49886816F002F9A5
:1024700030B104F10C0016F02CFC08B901206EE616
:1024800000BF0020FFF752FA00BF00BF00BF204688
:1024900016F01EF8002062E6640000206B75030849
:1024A00099F000082000002091750308A475030826
:1024B000B6750308CB750308D7750308F1750308D3
:1024C0002C1500201476030837760308000000005E
:1024D0002DE9F0410646174F3868306006F10800D4
:1024E00013F0FCFAA0F1080634463D1E01D101208C
:1024F00000E00020B0F1000808D00E4D28682060F0
:1025000004F1080013F0EAFAA0F10804291D20469E
:10251000FFF7CCFD044628682060286B216851F83D
:102520000C1C6050E86AA060002020622046BDE8D4
:10253000F08100007C2603082DE9F0470546104F86
:102540002C463E1E01D1012000E00020B0F1000920
:1025500000D00B4E311D2046FFF7C0FD0446B9F1F7
:10256000000F04D004F1080000BFA0F10804A04649
:1025700005F1080000BFA0F108054046BDE8F0875E
:102580007C2603082DE9FF4106460C4615461848EF
:102590002844C0B11749084470B117490844D0B95C
:1025A000206850F8140C204403A90390304620F012
:1025B0005BFA0646BDE8FF8102A93046029420F08E
:1025C00053FA0646F6E7201D01A90190304620F097
:1025D0004BFA0646EEE70949684609F04EFF074602
:1025E0003946304620F034FA064600BFE2E70000E4
:1025F0005733B04AD67044C4D35B0BF11B00008044
:102600002DE9F0412DED048B84B00446A068FFF75E
:10261000B7FB00260EB1701E00E00120074626B170
:10262000A068B0F91210084603E0A068B0F91010D5
:10263000084605462946204616F034F884ED030A7C
:1026400026B1A068B0F91010084603E0A068B0F900
:102650001210084605462946204616F023F884ED58
:10266000040AA068B0F914100D46204616F01AF8B6
:1026700084ED050A94F8270068B9A068417A51B141
:1026800094ED050A84ED080A94ED050A84ED060A26
:10269000012084F82700D4ED080A94ED061A30EEE4
:1026A000C10AF0EEC00A9FED3E0AF4EEC00AF1EE58
:1026B00010FA27DD94ED060A84ED080A94ED068AE7
:1026C0009FED380A28EE000ADFED370A80EE201A67
:1026D000F0EE418AB0EE680A15F0A2FF09EE100A8A
:1026E000F8EEC90AB6EE001AB0EE680A00EE810AEA
:1026F000BDEEC00A10EE100A784305B22946A06864
:10270000FFF7D2FA94F9240094F91C10884223D0E0
:10271000207F84F82400207F10FB07F04FFA80F818
:10272000A5684046A97F09B1414200E0014649B28F
:102730002973A86900F13C011C48026868461DF035
:1027400045FCDDE90001CDE9020195F90C1002A874
:1027500026F076F900BF00BF94F82500617F88421B
:1027600019D0607F84F8250094F81D80A56885F84D
:102770000D80A86900F13C010D48026868461DF013
:102780002EFCDDE90001CDE90201697B02A826F0FB
:1027900067F900BF00BF04B0BDEC048BBDE8F08159
:1027A000CDCCCC3D000080440000B443B8140308F5
:1027B000BC14030870B52DED028B0446B0EE408AC0
:1027C0000D46A068017884F8261084ED068A68B268
:1027D0002077022060772068416920468847BDEC59
:1027E000028B70BD2DE9FC41044625460027E846D2
:1027F0002C46206850F8140C0119404624F0EAFEDB
:1028000000BF684626F071FB48B10AF095FC064609
:10281000019900683A46036D3046984704E000BFCE
:1028200072B600E0ABBEFDE7BDE8FC81704700007A
:102830002DE9F84304460D4616461F46DFF8208072
:10284000D8F800002060204613F048F904463346CB
:102850002A464146009700F005F8BDE8F8830000DD
:10286000FC2603082DE9F04704460D461646994616
:10287000DDF820800DB9012000E00020071E06D001
:10288000194D28682060204613F028F90446291DB8
:10289000204608F001FC044605F10C01201D08F05B
:1028A000FDFA041F286820606869216851F8141C2B
:1028B0006050A8696060A6609FED0C0A84ED060A6E
:1028C00000202077042060779FED080A84ED080A35
:1028D000002084F82400042084F82500002084F8D7
:1028E00027002046BDE8F087FC2603080000000012
:1028F0002DE9F0470546104F2C463E1E01D1012020
:1029000000E00020B0F1000900D00B4E06F10C01F0
:10291000201D08F0CBFA041F311D204608F0C4FB2F
:102920000446B9F1000F01D000BF00BFA04600BFB0
:102930004046BDE8F0870000FC2603082DE9F04F73
:1029400085B005464FF000080020049095F8280057
:1029500010B94FF001084EE05748584902686846E0
:102960001DF058FBDDE90001CDE9020102A826F0C7
:10297000B9F881464C46052C05D0072C03D0082C0D
:1029800001D0042C36D1042C1BD0284616F09CF91B
:1029900001900AF0D1FB064600680169304688477D
:1029A000009001991FF001F9834645491FF054F842
:1029B0008246444908F0F5FC0121284609F06FFDE4
:1029C00016E0284616F080F901900AF0B5FB07469C
:1029D0000068016938468847009001991FF0E5F8C2
:1029E000834639491FF038F88246364908F0D9FC49
:1029F0004FF0010800BF95F8290010B9012004909C
:102A00004EE032482D49026868461DF003FBDDE9BF
:102A10000001CDE9020102A826F064F881464C4687
:102A2000052C05D0072C03D0082C01D0042C36D15E
:102A3000042C1BD0284616F047F901900AF07CFBC5
:102A400006460068016930468847009001991FF0EA
:102A5000ACF883461E491EF0FFFF8246194908F074
:102A6000A0FC0121284609F01AFD16E0284616F0C0
:102A70002BF901900AF060FB0746006801693846AF
:102A80008847009001991FF090F8834611491EF085
:102A9000E3FF82460B4908F084FC0120049000BF4C
:102AA000B8F1000F05D0049818B1012005B0BDE8B9
:102AB000F08F0020FAE70000D0140308080000207F
:102AC0004E76030899F0000866760308D4140308CC
:102AD0007E7603089776030801B5B8B001203790D9
:102AE0003898808840F2D112811A904277D010DC59
:102AF00040F28112A0EB0201904269D004DCA8B13F
:102B0000B0F5B87F6CD119E0042978D03629F9D115
:102B1000E2E163297ED004DC1E297CD04729F1D173
:102B2000B3E3672978D07729ECD1FCE300BF00201C
:102B300037904FF4B8713898818000BF379810B93A
:102B4000012039B000BD00BF00BF3898006A18B935
:102B500072B600E0ABBEFDE700BF0120FEF7E6FE67
:102B6000FD48FE49026808A81DF054FADDE9080195
:102B7000CDE93501802135A825F0A6FF389816F05B
:102B8000A3F807900AF0D8FA34900068006905901D
:102B9000059934988847069007991FF006F8F04980
:102BA00008901EF059FFEF49099008F0FAFB389899
:102BB000006A099009F089FC4FF47A7138980C305A
:102BC0000AF0A8F800BF40F281113898818000BF58
:102BD00038980C3016F07DF820B90120B1E705E2F5
:102BE000F5E30CE000BF47F2305138980C300AF0A2
:102BF00091F800BF40F285113898818000BF389865
:102C0000006A099009980890089815F065FC80F012
:102C1000010002E0D7E38EE2E6E330B938980C30E9
:102C200016F057F808B901208BE700BF38980C3030
:102C300016F04FF8C8B1389816F046F807900AF029
:102C40007BFA3390006800690590059933988847AE
:102C5000069007991EF0A9FFC34908901EF0FCFEDC
:102C6000C049099008F09DFB18E0389816F02CF840
:102C700007900AF061FA32900068006905900599A2
:102C800032988847069007991EF08FFFB749089041
:102C90001EF0E2FEB349099008F083FBB4480078C7
:102CA000E0B1389816F010F807900AF045FA319024
:102CB0000068006905900599319888470690079942
:102CC0001EF073FFAB4908901EF0C6FEA54909909F
:102CD00008F067FB0021389841621BE0389815F036
:102CE000F3FF07900AF028FA309000680069059019
:102CF000059930988847069007991EF056FF9E491F
:102D000008901EF0A9FE9749099008F04AFB01219E
:102D100038984162389815F0D7FF07900AF00CFAFE
:102D20002F9000680069059005992F9888470690B4
:102D300007991EF03AFF914908901EF08DFE8949CF
:102D4000099008F02EFB389815F0BEFF06900AF0A7
:102D5000F3F92E9000680069049004992E98884732
:102D6000059006991EF021FF854907901EF074FE1C
:102D700008907F48007808B1824800E08248014608
:102D8000079008981EF068FE7649099008F009FB44
:102D9000389815F099FF06900AF0CEF92D9000684A
:102DA0000069049004992D988847059006991EF0B3
:102DB000FCFE764907901EF04FFE08906C48407864
:102DC00008B1704800E070480146079008981EF06E
:102DD00043FE6449099008F0E4FA00213898016341
:102DE0005CE03898006B6A49085C90BB3898006BCF
:102DF000684951F820003C3007906748026808A8ED
:102E000007991DF0D1F8DDE90801CDE92B01032177
:102E10002BA825F0F3FD389815F056FF03900AF023
:102E20008BF92A9000680069019001992A988847D7
:102E3000029003991EF0B9FE584904901EF00CFE52
:102E40000590389890F8300000F0010010B1544817
:102E500001E01EE053480146049005981EF0FCFD79
:102E6000514906901EF0F8FD07903898006B400815
:102E700008B14E4800E04E480146069007981EF003
:102E8000EBFD4C4908901EF0E7FD3649099008F02B
:102E900088FA3898006B401C389908633898006BA2
:102EA00004289ED144482D49026808A81DF0B2F8B4
:102EB000DDE90801CDE92801902128A825F004FECC
:102EC00041F2883138980C3009F024FF00BF40F2FD
:102ED000B7113898818000BF38980C3015F0F9FE92
:102EE00008B901202DE600BF2148007810B1204824
:102EF0004078C0B9389815F0E7FE07900AF01CF941
:102F000027900068006905900599279888470690E2
:102F100007991EF04AFE294908901EF09DFD1149AF
:102F2000099008F03EFA00BF3898007E90B100206A
:102F3000FEF7FCFC22480949026808A81DF06AF85F
:102F4000DDE90801CDE92501402125A825F0BCFDDA
:102F500000BF37E03BE00000D81403080800002061
:102F6000B076030899F00008C3760308E5760308F5
:102F70006400002007770308207703083B770308E5
:102F80004E770308607703086777030872770308B2
:102F90006000002040000020DC1403088477030850
:102FA00093770308997703089E770308A0770308AF
:102FB000A6770308AB770308E0140308B377030888
:102FC000E4140308389815F083FA0020B9E50020CE
:102FD000FEF7D6FC4FF47A7138980C3009F09AFE5F
:102FE00000BF40F2D1113898818000BF38980C3072
:102FF00015F06FFE08B90120A3E500BF1021389835
:1030000080F82C10389815F05FFE07900AF094F8BD
:1030100024900068006905900599249888470690D7
:1030200007991EF0C2FDFE4908901EF015FDFD49EE
:10303000099008F0B6F9FC48007800F0040020B3CD
:10304000389815F041FE07900AF076F82390006852
:1030500000690590059923988847069007991EF006
:10306000A4FDF24908901EF0F7FCEE49099008F023
:1030700098F9389890F82C0040F00101389880F8C1
:103080002C100121389880F82810E948007800F0C9
:10309000040020B3389815F017FE07900AF04CF89A
:1030A000229000680069059005992298884706904B
:1030B00007991EF07AFDDF4908901EF0CDFCD94932
:1030C000099008F06EF9389890F82C0040F0020151
:1030D000389880F82C100121389880F82910D648AB
:1030E000D649026808A81CF095FFDDE90801CDE982
:1030F0002001102120A825F0E7FCD148D149026821
:1031000008A81CF0A2FFDDE90801CDE91E013898EE
:1031100090F82C00014607901EA825F014FD4FF4EE
:103120007A7138980C3009F0F5FD00BF40F2EF11CC
:103130003898818000BF38980C3015F0CAFD08B966
:103140000120FEE400BF0120FEF71AFCA2E000BF50
:103150003898007E00287CD0389890F82800E0B19C
:103160000021389880F82A10B748B449026808A8A6
:103170001CF050FFDDE90801CDE91C011CA825F079
:10318000B1FC389981F82E00389890F82E0001286B
:1031900003D10121389880F82A10389890F8290036
:1031A000E0B10021389880F82B10A848A3490268A4
:1031B00008A81CF02FFFDDE90801CDE91A011AA8C3
:1031C00025F090FC389981F82E00389890F82E0060
:1031D000012803D10121389880F82B10389890F8F5
:1031E0002A00B0B3389890F82B0090B3002138989B
:1031F00080F82E10389890F8280038B1389890F858
:103200002E0040F00101389880F82E10389890F880
:10321000290038B1389890F82E0040F00201389813
:1032200080F82E108A488749026808A81CF00DFF14
:10323000DDE90801CDE91801389890F82E00014623
:10324000079018A825F07FFC82487C49026808A8EE
:1032500000E012E01CF0DEFEDDE90801CDE9160118
:10326000402116A825F030FC0020FEF75FFB00BFD0
:10327000389815F02DF9002063E400BF0020379046
:103280004FF406713898818000BF379808B9012043
:1032900057E400BF3898FFF751FB00283FF457AFC1
:1032A00000BF38984069E8B3389815F00DFD0790D5
:1032B00009F042FF1590006800690590059915987E
:1032C0008847069007991EF070FC634908901EF02D
:1032D000C3FB5449099008F064F8389815F0F4FCE1
:1032E000079009F029FF149000680069059005997E
:1032F00014988847069007991EF057FC5749089084
:103300001EF0AAFB4749099008F04BF854484B4976
:10331000026808A81CF07EFEDDE90801CDE9120173
:10332000702101E00CE0E9E012A825F0CDFB0020BF
:10333000FEF7FCFA00BF389815F0CAF8002000E448
:10334000389815F0C1FC079009F0F6FE119000685E
:1033500000690590059911988847069007991EF015
:1033600024FC404908901EF077FB2E49099008F094
:1033700018F800213898016319E03898006B3A4931
:1033800051F820003C3007903848026808A8079997
:103390001CF00AFEDDE90801CDE90F0100210FA8AC
:1033A00025F02CFB3898006B401C3899086338983E
:1033B000006B0428E1D100BF002037904FF40D715D
:1033C0003898818000BF379810B9012006E49BE04F
:1033D00000BF0020FEF7AAFA00BF002037904FF48C
:1033E0000E713898818000BF379808B901201BE41E
:1033F00000BF1F481149026808A81CF00BFEDDE958
:103400000801CDE90D0130210DA825F05DFB3898AC
:1034100090F8280018B1389890F82D002AE02EE096
:10342000D177030899F0000805000020E37703082E
:1034300006000020F6770308E814030808000020BF
:10344000EC1403080C000020F0140308F414030823
:10345000F8140308FC1403080A7803081E7803080C
:10346000001503082E780308400000200415030807
:103470000815030840F00101389880F82D1038989D
:1034800090F8290038B1389890F82D0040F00201EA
:10349000389880F82D1020482049026808A81CF0B0
:1034A000B9FDDDE90801CDE90B01389890F82D0050
:1034B000014607900BA825F007FB389815F004FC8F
:1034C000079009F039FE0A90006800690590059997
:1034D0000A988847069007991EF067FB10490890E4
:1034E0001EF0BAFA0F49099007F05BFF00BF0020F9
:1034F00037904FF412713898818000BF379808B91F
:103500000120EFE400BF00BF00BF00BF389814F0F7
:10351000DFFF0020E6E400000C150308080000208F
:103520004078030899F0000870B504460D460DB9BF
:10353000012000E00020061E08D0124D28682060FF
:1035400004F1080012F0CAFAA0F10804291D20466F
:10355000FEF7ACFD044628682060286B216851F80E
:103560000C1C60501034E86A44F8080C00206061BC
:1035700020766076A076E076207760772062103C37
:10358000204670BD6C2703082DE9F0470546104F13
:103590002C463E1E01D1012000E00020B0F10009C0
:1035A00000D00B4E311D2046FEF798FD0446B9F1C0
:1035B000000F04D004F1080000BFA0F10804A046E9
:1035C00005F1080000BFA0F108054046BDE8F087FE
:1035D0006C27030810B50446204615F04AFA68B374
:1035E00094F884100022204606F098FD94F8840098
:1035F000801CC1B20222204606F0D0FD94F884005F
:10360000C01CC1B20322204606F088FD94F8840055
:10361000401DC1B20522204606F080FD94F88400CA
:10362000C01DC1B20722204606F0B8FD94F8840000
:103630000830C1B20822204606F0B0FD204615F041
:103640001CFA00283DD094F885108022204606F010
:10365000CFFD94F88500801CC1B28222204606F07E
:10366000BDFD94F88500C01CC1B28322204606F03F
:10367000DFFD94F88500001DC1B28422204606F0CB
:10368000D7FD94F88500401DC1B28522204606F082
:10369000AFFD94F88500C01DC1B28722204606F018
:1036A000A7FD94F885000930C1B28922204606F0B2
:1036B000BFFD94F885000A30C1B28A22204606F088
:1036C000B7FD2068C1692046884710BD014601F159
:1036D00040007047704700002DE9F04104460E4657
:1036E000204606F0CBFD04464048206004F1380037
:1036F000002100BF40F8381900BF00BF00BF0446DA
:1037000004F13C0000BF40F83C1900BF00BF00BFFF
:10371000044604F14005284601F02AF905463448DC
:1037200028602F1D092303223249384616F0EDFA8E
:10373000074600BF3D1F05F11F070B2303222E493B
:10374000384616F0E2FA074600BFA7F11F05002031
:1037500085F8400000BFA5F14004214601F140007A
:1037600000BFA06300BF00BF00BF00BFE06300BF99
:1037700000BF042E03D372B600E0ABBEFDE700BF6E
:1037800036B1012E08D0022E0AD0032E10D10BE044
:103790004D2084F884000BE0562084F8840007E074
:1037A0005F2084F8840003E0682084F8840000BF70
:1037B00000BF36B1012E08D0022E0AD0032E10D140
:1037C0000BE0C32084F885000BE0CE2084F8850050
:1037D00007E0D92084F8850003E0E42084F8850020
:1037E00000BF00BF2046BDE8F0810000F4270308B9
:1037F000EC2A030819F201084DF3010810B504463C
:103800000648206004F1400001F039F9A0F14004BD
:10381000204606F045FD044610BD0000F4270308CD
:1038200070B50446204615F024F9C0B194F85850FC
:10383000002632462946204606F0B0FC00BF94F828
:103840005800401CC1B20122204606F0A7FC94F8A3
:103850005800801CC1B20222204606F055FC2046CA
:1038600015F00BF968B194F859108022204606F043
:10387000B5FC94F85900401CC1B28122204606F0E4
:10388000ADFC2068C1692046884770BD014601F142
:1038900040007047704700002DE9F04104460E4695
:1038A000204606F0EBFC04463348206004F1380063
:1038B000002100BF40F8381900BF00BF00BF044618
:1038C00004F13C0000BF40F83C1900BF00BF00BF3E
:1038D000044604F14005284601F04AF80546274809
:1038E00028602F1D042303222549384616F00DFABF
:1038F000074600BF3D1F05F110070223032221499F
:10390000384616F002FA074600BFA7F1100500205E
:10391000A87500BFA5F14004214601F1400000BF99
:10392000A06300BF00BF00BF00BFE06300BF00BFD7
:10393000022E03D372B600E0ABBEFDE700BF16B1A6
:10394000012E08D103E0312084F8580003E035202F
:1039500084F8580000BF00BF16B1012E08D103E063
:10396000A92084F8590003E0AB2084F8590000BF77
:1039700000BF2046BDE8F0811C2803086C2A03081C
:1039800051EA010885EB010810B50446064820609D
:1039900004F1400001F071F8A0F14004204606F067
:1039A0007FFC044610BD00001C28030810B5044627
:1039B000204615F05EF860B300220421204606F090
:1039C000ADFB0A220621204606F0E8FB0B22072168
:1039D000204606F0A3FB0D220921204606F09EFB9F
:1039E00011220B21204606F0B9FB15220F2120469B
:1039F00006F0B4FB19221321204606F08FFB1B2290
:103A00001521204606F080FB25221721204606F0CE
:103A1000C5FB204615F031F820B1802281212046D7
:103A200006F006FC2068C1692046884710BD0146A3
:103A300001F140007047704770B50446204606F01B
:103A40001DFC04462248206004F13800002100BF1C
:103A500040F8381900BF00BF00BF044604F13C0025
:103A600000BF40F83C1900BF00BF00BF044604F18E
:103A70004005284600F07CFF0546164828602E1DAC
:103A8000262303221449304616F03FF9064600BFAC
:103A9000351F05F17606012303221049304616F042
:103AA00034F9064600BFA6F17605002085F87900B6
:103AB00000BFA5F14004214601F1400000BFA06312
:103AC00000BF00BF00BF00BFE06300BF204670BD65
:103AD00044280308EC2903088DE20108C1E301082A
:103AE00010B504460648206004F1400000F0C3FF12
:103AF000A0F14004204606F0D3FB044610BD0000B0
:103B00004428030801707047002101644164816406
:103B100000BF704701707047F8B504460D4600219C
:103B2000684600F02FF80078A075207D617D08447C
:103B3000C6B2012015E0295CBB2910D12A18AF19A3
:103B40007B1C294603E017780F70521C491C9A42CF
:103B5000F9D100BF311A617501212175F8BD411CF1
:103B6000C8B2B042E7DD00202075607500BFF5E700
:103B700070B504460D46207D18B129462046FFF752
:103B8000CBFF70BD01707047F8B504460F4615466F
:103B90002E46207D37540120607563E0607D401E15
:103BA000607500BFA07D10B1012855D118E0227DBD
:103BB0003146204614F088FD20B931462046FFF7F3
:103BC000D7FF4EE0207D401C2075207D042806D1C3
:103BD00001216846FFF7D6FF0078A07500BF40E0DE
:103BE000304600F05BF8401E217D884203DD207DD9
:103BF000401C207535E0304600F053F820B93146BE
:103C00002046FFF789FF2CE000BF0020014621B1CC
:103C100000BF72B600E0ABBEFDE722690AB901221F
:103C200000E0002282F0010119B972B600E0ABBEDB
:103C3000FDE700BF00BF206901680A682946904778
:103C400000BF00BF0020207500216846FFF79AFFE3
:103C50000078A07500BF04E000BF72B600E0ABBE04
:103C6000FDE700BF607D002898DCF8BD10B5044674
:103C7000204624F02DFC044600202075607504F1D8
:103C80001600002100F8161900BF0446FF20E07559
:103C900000202076204610BD00BF7047014688787E
:103CA00070472DE9F041044600BF2046FFF7F6FFBC
:103CB000052803DA72B600E0ABBEFDE700BF00BF27
:103CC0002046FFF7EBFF102803DD72B600E0ABBE25
:103CD000FDE700BF2046FFF7E1FF471E39462046BB
:103CE00019F04EFA064600BF2046FFF7D7FF401EE8
:103CF000255C00BFAE4202D10120BDE8F08100206A
:103D0000FBE72DE9F04104460D46164600BF681D4D
:103D1000102803DD72B600E0ABBEFDE700BFBB209C
:103D200020706670681DA0700321204619F028FAE3
:103D3000E07000BFA078471E3946204619F020FAEF
:103D40000146A07800BF421ED2B2A154BDE8F08166
:103D5000012280F85120826D426570472DE9F04FB5
:103D600095B004468A4615469846C4F804A000BF9C
:103D700060680268116A884718B172B600E0ABBE8D
:103D8000FDE700BF60680268516A8847209820609C
:103D900004F170001E9924F01DFC04F184001F99A9
:103DA00024F018FC04F15C00219924F013FC00BFFE
:103DB0001DB972B600E0ABBEFDE700BF00BFFF2D2E
:103DC00003D172B600E0ABBEFDE700BF2572284804
:103DD00006C810A824F024FB10AEA146254903C94B
:103DE000CDE9030100BF00BF0296A6B1DDE9027074
:103DF0000499CDE90001384614F030FC07461E480E
:103E00003860C7F80490DDE90001C7E9020100BF8E
:103E10003846029700E00020306100BFB3465946A3
:103E200006A824F041FB059010A800BF00BF04F1D4
:103E30000C0606A90BA824F037FB07463946304686
:103E400024F049FBF5750020307600BF0BA800BFB9
:103E500000BF04F13000057000BF00BFC4F8288027
:103E6000E06200BF06A800BF15B0BDE8F08F0000FB
:103E7000D0190308D8190308087403082DE9F8437A
:103E800004460F4600BF606818B972B600E0ABBECA
:103E9000FDE700BF00BF94F8980010B101287ED163
:103EA0005CE0A7650BE060680268D1698847064658
:103EB00004F13102314604F10C00FFF765FE606841
:103EC0000268916988470028EDD1D4E91510401A9D
:103ED000216888420ED394F8520058B1002084F82B
:103EE000520004F1700025F07CF818B104F1700064
:103EF00025F070F894F8510008B9BDE8F88304F192
:103F00005C0025F06EF818B104F15C0025F062F851
:103F100094F8520058B9012084F8520004F184004A
:103F200025F05FF818B104F1840025F053F8002063
:103F300084F8510004F1410204F1310104F1280038
:103F400000F07BFE3220005D38B10121684600F0B0
:103F500029F898210078085500BF20E060680268C1
:103F6000D16B884700B91AE0666894F84300804630
:103F70003068424604F14101036B304698470546DC
:103F800000BF1DB972B600E0ABBEFDE700BF002167
:103F9000684600F007F898210078085500BF00BF78
:103FA00000BFAAE70170704710B5044600202060EA
:103FB0006060207204F10C00FFF758FEA0F10C04C1
:103FC00004F1280000210160416000BFA0F1280435
:103FD00004F1300000F8301900BF044610213130E0
:103FE000FCF762FB102104F14100FCF75DFB0020AF
:103FF00084F8510084F852002068C0F1FF306065F9
:104000000020A065002104F15C0024F0DCFAA0F19E
:104010005C04002104F1700024F0D5FAA0F17004D2
:10402000002104F1840024F0CEFAA0F1840404F10C
:104030009800002100F8981900BF0446204610BDE2
:1040400010B5044604F1840000BFA0F184041438C4
:1040500000BFA0F17004143800BFA0F15C04503818
:10406000FFF71AFEA0F10C04204610BD2DE9F04127
:10407000054695F86100401CC4B22046E11704EBE8
:104080005171C910A4EBC101CCB200276FE005F15A
:10409000080050F8240050B9601CC4B22046E11753
:1040A00004EB5171C910A4EBC101CCB25DE005F184
:1040B000080252F8240052F82420126891698847B7
:1040C000296888420AD9601CC4B22046E11704EB73
:1040D0005171C910A4EBC101CCB246E005F1080052
:1040E00050F824603068C1683046884780460068D0
:1040F000016E4046884708B1012000E0002068B109
:1041000085F8284085F8614005F1080151F8240040
:10411000213101F04DF80120BDE8F08105F10802E0
:1041200052F824006968826A8A1A436A9A4201D95D
:10413000012200E000226AB185F8284085F861403C
:1041400005F1080151F8240021316A6800F0B2FF3E
:104150000120E1E7601CC4B22046E11704EB517175
:10416000C910A4EBC101CCB200BF781CC7B2082FA4
:104170008DDB0020D0E738B5044600BF04F16000B5
:1041800014F0E5FA012803D072B600E0ABBEFDE7FB
:1041900000BF94F8282004F1080151F82200002102
:1041A00001F06EF80021684600F099F8007884F874
:1041B000600038BD7047F8B504460D4600BF04F1F5
:1041C000600014F0C4FA012803D072B600E0ABBE60
:1041D000FDE700BF94F8282004F1080151F82200FF
:1041E000012101F04DF894F8281004F1080050F86E
:1041F0002160294606F1080000F043FC00BF0021C1
:10420000684600F06CF8007884F86000F8BD70B57E
:1042100006460C4606F14C05206928B12069016864
:104220004A6829469047286100BF70BDF8B504462A
:104230000E4600BF00BFE06D08B9012000E000207D
:1042400018B172B600E0ABBEFDE700BF666004F1D6
:10425000600014F07CFA10B1012839D137E0002554
:104260001EE004F1080050F8250000B91AE004F13E
:10427000080252F8250052F82520126891698847F3
:104280002168884200D909E004F1080252F82500AB
:1042900052F8252012689168884700BF681CC5B293
:1042A000082DDEDB2046FFF7E1FE78B101216846EC
:1042B00000F015F8007884F8600004F12905E06D3D
:1042C00001680A682946904700BF00BF05E004E086
:1042D00000BF72B600E0ABBEFDE700BFF8BD0170E5
:1042E000704710B50246002027E002F1080353F89A
:1042F00020308B4204D100BF72B600E0ABBEFDE7B8
:1043000002F1080353F8203023B902F1080343F8FF
:10431000201010BD00BF02F1080454F8203093F8BB
:10432000214000BF91F821309C4203D172B600E0D9
:10433000ABBEFDE700BF431CD8B20828D5DB00BFE9
:1043400072B600E0ABBEFDE770B504460D462560D1
:1043500000202021606004F10800FCF7C7F900206C
:1043600084F82800102104F12900FCF79DF91021A0
:1043700004F13900FCF798F904F14C0000210161C7
:1043800000BFA0F14C0404F1600000F8601900BF08
:104390000446204670BD00F14C0100BFA1F14C0065
:1043A000704701460A46101D704770B505460C4619
:1043B00000BFA07806462A7831462046FFF7A1FCC8
:1043C00070BD2DE9F04781460C4617461D4628462C
:1043D000FFF7E7FF80462646304640F0E00000BF8A
:1043E000064688F8006088F801700220A870294607
:1043F0004846FFF7DAFFBDE8F0872DE9F05F834616
:104400000D46164699460A9F00BF701B082803DD1B
:1044100072B600E0ABBEFDE700BF3846FFF7C1FF54
:1044200004464FF0050A504600F090FF824684F89B
:1044300000A06570A670E41C701B401C00F0FF0813
:10444000002005E009EB400149782154411CC8B225
:104450004045F7DB08F10300B87039465846FFF7CE
:10446000A4FFBDE8F09F2DE9F04781460F461446B2
:104470001D4600BF052C03DD72B600E0ABBEFDE7B4
:1044800000BF2846FFF78DFF06464FF0060840465E
:1044900000F05CFF804686F80080761C002000213A
:1044A0000BE017F81020725407EB400253784A1CB7
:1044B000B354421CD0B28A1CD1B2A042F1DB6000DE
:1044C000401CA87029464846FFF76FFFBDE8F087FB
:1044D0002DE9F04781460E4617461C462046FFF759
:1044E00060FF05464FF00408404600F02FFF80466D
:1044F00085F800806E70AF700320A070214648469A
:10450000FFF753FFBDE8F0872DE9F04781460E46DF
:1045100017461C462046FFF744FF05464FF00208A9
:10452000404600F013FF804685F800806E70AF7043
:104530000320A07021464846FFF737FFBDE8F0870B
:104540002DE9F04781460F4614461D4600BF052C55
:1045500003DD72B600E0ABBEFDE700BF2846FFF703
:1045600020FF06464FF00308404600F0EFFE80466D
:1045700086F80080761C002004E017F810103154F3
:10458000411CC8B2A042F8DB601CA870294648460E
:10459000FFF70BFFBDE8F0872DE9F04180460D469F
:1045A00014462046FFF7FDFE06460127384600F078
:1045B000CDFE0746377075700220A0702146404638
:1045C000FFF7F3FEBDE8F0810021017041707047F4
:1045D00038B504460D4600BF00BF94F8510018B12D
:1045E00072B600E0ABBEFDE700BF1022294604F121
:1045F0002400FBF75FFF0121684600F004F8007813
:1046000084F8510038BD0170704700BF00BF90F8BA
:104610005120032A03D072B600E0ABBEFDE700BF15
:10462000012280F8902070472DE9F04F97B00446A2
:104630008A4693461F46C4F820A000BF206A02683D
:10464000116A884718B172B600E0ABBEFDE700BF43
:10465000206A0268516A8847002116A8FFF7D3FF35
:10466000007884F851002C4806C811A823F0ECFE0D
:1046700011ADA046294903C9CDE9040100BF00BF1F
:104680000395A5B1DDE903600599CDE90101304647
:1046900013F0E4FF064622483060C6F80480DDE9E6
:1046A0000101C6E9020100BF3046039600E0002088
:1046B000286100BFA946494607A823F0F5FE0690E9
:1046C00011A800BF00BF251D07A90CA823F0ECFE10
:1046D00006463146284623F0FEFE0120287600BF1C
:1046E0000CA800BF00BF594604F1680023F0F3FE98
:1046F0005035386928B1386901684A6829469047B9
:10470000286100BF04F17C00209923F0E4FE07A893
:1047100000BF17B0BDE8F08FC0190308C81903081F
:10472000687403082DE9FE4304460D4600BF206A65
:1047300018B972B600E0ABBEFDE700BF256000BF50
:1047400094F8510030B1012805D0022820D0032868
:1047500070D136E0A8E0266A94F8260080463068DA
:10476000424604F12401C36A30469847074600BF19
:104770001FB972B600E0ABBEFDE700BF2068606401
:10478000022102A8FFF73FFF007884F851008BE078
:10479000206A0268D16B884740B1032102A8FFF765
:1047A00032FF007884F85100BDE8FE83606C281A5F
:1047B000E16C884204D900BF72B600E0ABBEFDE7F1
:1047C00072E00AE0206A0268D1698847064604F16F
:1047D00034023146201DFFF7D7F9206A026891693B
:1047E00088470028EED1616C2068401AA16C88428D
:1047F00021D394F85000032810DB002084F85000E7
:1048000000BF606E02681168884700BF00216846DB
:10481000FFF7F9FE007884F85100C5E714F8500F4F
:10482000401C2070012101A8FFF7EDFE00786070A8
:10483000503CB9E733E094F8900000B9B4E70020A9
:1048400084F89000204613F085FFB8B90020014697
:1048500021B100BF72B600E0ABBEFDE7D4F88C20FA
:104860000AB9012200E0002282F0010161B104F1E5
:10487000340104F17C0024F0A4FB15E004F13401C0
:1048800004F1680024F09DFB002084F85000002112
:1048900002A8FFF7B8FE007884F8510004E000BFDA
:1048A00072B600E0ABBEFDE700BF00BF7CE770B5AD
:1048B00004460D46164600202060201DFFF7D6F95D
:1048C000041F002020626062A062E06220636063D7
:1048D000A063E06320646064A564E66484F850002B
:1048E00004F15100002100F8511900BF044604F101
:1048F000540023F068FEA0F15404002104F1680084
:1049000023F0E3FDA0F16804002104F17C0023F012
:10491000DCFDA0F17C04002084F89000204670BDEE
:1049200010B5044604F17C0000BFA0F17C041438EB
:1049300000BFA0F16804143800BFA0F15404201D8A
:10494000FFF7AAF9041F204610BD70B505460C46B6
:104950002C602068016F20468847284670BD10B53E
:10496000044620680268516F8847204610BD000049
:1049700001490160704700006C2803082DE9F047E9
:1049800006460C4617469846251D012028706F7074
:1049900085F802804FF00309327849462046FFF738
:1049A000B0F9BDE8F0872DE9F04780460F46144680
:1049B0001D4600BF281B082803DB72B600E0ABBE13
:1049C000FDE700BF00BFA54203DA72B600E0ABBE50
:1049D000FDE700BF3E1D052030707470B5704FF0CC
:1049E000030998F8002049463846FFF78AF9BDE8E0
:1049F000F0872DE9F04781460F4690461C4600BFE0
:104A0000052C03DD72B600E0ABBEFDE700BF00BFC2
:104A1000052000EB4400102803DD72B600E0ABBEB9
:104A2000FDE700BF3D1D03202870012600200BE09C
:104A300018F81010A95508EB40014A78711C6A5407
:104A4000411CC8B2B11CCEB2A042F1DB012000EB88
:104A5000440000F0FF0A99F8002051463846FFF75D
:104A600050F9BDE8F087002101704170704700BF28
:104A7000704700BF704700BF704700BF704700BF5E
:104A800070472DE9F84304460D4600BF28460179DA
:104A90000E4600BF206818B972B600E0ABBEFDE755
:104AA00000BF304600110A2801D1012100E0002199
:104AB00009B9BDE8F883E8462768C8F80070386887
:104AC000016F3846884700BF00BF06F00F00072877
:104AD00023D2DFE800F02204090E13181D00294636
:104AE000204600F096F81DE02946204600F090F898
:104AF00018E02946204600F08DF813E029462046AC
:104B000000F051F80EE02946204600F02BF809E0AD
:104B10002946204600F059F804E000BF72B600E0D4
:104B2000ABBEFDE700BF6F4638680268516F88472B
:104B300000BF0020014621B100BF72B600E0ABBE4D
:104B4000FDE762690AB9012200E0002282F001015A
:104B500031B100BF606902681168884700BF00BFBB
:104B600000BFA6E72DE9F04706460C4600BF601DD2
:104B7000054695F8009095F801A0AD1C4FF000088F
:104B80004F460CE015F80820306801680B6A39467A
:104B90009847781CC7B208F1010000F0FF0857459C
:104BA000F0DDBDE8F0872DE9F04105460C4600BF79
:104BB000601D0646377896F80180286801684246ED
:104BC0000B6A39469847BDE8F0812DE9F047064663
:104BD0000C4600BF601D074600BF20468178891F34
:104BE000C9B288464FF00009CA4600250CE017F804
:104BF0000590681C17F800A03068016852460B6ADF
:104C000049469847A81CC5B24545F0DBBDE8F0878A
:104C10007047704770472DE9F04105460F4614462E
:104C20002F602E1D206928B1206901684A6831462D
:104C30009047306100BFBDE8F0812DE9F84305469B
:104C40000F46904600BF286818B972B600E0ABBEA8
:104C5000FDE700BF00BF686818B972B600E0ABBEE0
:104C6000FDE700BF00BF387900F00F0400BF00BFB0
:104C70002046012803DB062801DC012100E0002199
:104C800039B94346012221466868FFF79AFBBDE81F
:104C9000F883E9462E68C9F800603068016F304635
:104CA000884700BF072C29D2DFE804F028040A1047
:104CB000161C220042463946284600F0B9F922E087
:104CC00042463946284600F0F9F81CE0424639468B
:104CD000284600F051F916E042463946284600F0D1
:104CE000B9F810E042463946284600F015F80AE0C7
:104CF00042463946284600F063F804E000BF72B629
:104D000000E0ABBEFDE700BF6E4630680268516F41
:104D1000884700BF00BFBAE72DE9F04F85B00446D1
:104D20008B4616465946204613F0E2FD032808D06C
:104D30003346032205216068FFF743FB05B0BDE859
:104D4000F08F5946204613F0CFFD074697F80080B4
:104D500097F801904A464146204613F0CFFD30B9FE
:104D60003346022205216068FFF72BFBE6E70823A4
:104D70000222124901A814F0C8FF45464FF0000A6C
:104D800011E001A901F81A50E9B2206803685A6AD3
:104D9000904701A901EB4A014870681C85B20AF1ED
:104DA00001001FFA80FA4D45EBDD009601AB4A4643
:104DB00041466068FFF721FB00BFBFE7C945000817
:104DC0002DE9FE430446894690464946204613F0A5
:104DD000F6FD38B94346022206216068FFF7F1FA72
:104DE000BDE8FE834946204613F07EFD074649464E
:104DF000204613F07DFD0646701EC6B20EB1052E8C
:104E000006DD4346032206216068FFF7DAFAE7E78A
:104E1000052302220E49684614F077FF00250DE0B5
:104E2000785D0DF81500795D206803685A6A90472F
:104E3000694601EB45014870681CC5B2B542EFDB1D
:104E40004346324669466068FFF70DFB00BFC7E77F
:104E5000C94500082DE9F04704460F461546394676
:104E6000204613F041FD80463946204613F040FDB0
:104E7000022807D02B46032204216068FFF7A1FA1D
:104E8000BDE8F08798F800603146204613F074FDC5
:104E900030B92B46022204216068FFF792FAEFE74F
:104EA000206801684A6A3146904781462B464A4647
:104EB00031466068FFF70CFB00BFE1E72DE9F74FD3
:104EC000044692462046019913F00EFD05462F78C0
:104ED00095F8018042463946204613F00FFD38B957
:104EE0005346022211466068FFF76BFABDE8FE8F59
:104EF0003946204613F02DFD20B94146204613F0D7
:104F000028FD30B15346022211466068FFF759FA76
:104F1000ECE7AD1CA8EB0700401C00F0FF092046A1
:104F2000019913F0E5FC8346ABF1010000F0FF0BA3
:104F300009F10200584506D0534603220221606859
:104F4000FFF73FFAD2E700260CE0AA5D07EB060C5C
:104F50000CF0FF012068D0F800C0DCF82030984742
:104F6000701CC6B24E45F0DB534642463946606877
:104F7000FFF7CAFA00BFB9E72DE9FE4F05468B4699
:104F800091465946284613F03BFD38B94B4602225C
:104F900003216868FFF715FABDE8FE8F59462846D9
:104FA00013F0A2FC07465946284613F0A1FC04461C
:104FB000601EC4B2204604EBD0714910A4EB41013D
:104FC00001B934B94B46032211466868FFF7F9F975
:104FD000E2E74FF00008C246052302221349684663
:104FE00014F093FE002612E017F80680701C17F8E4
:104FF00000A02868016852460B6A4146984730462F
:1050000006EBD07149100DF81180B01CC6B2A64253
:10501000EADB264604EBD671C1F347024B466946EC
:105020006868FFF78DFA00BFB6E70000C9450008C1
:105030002DE9F0470446894616464946204613F0B6
:1050400057FC8246BAF1030F07D0334603220121F1
:105050006068FFF7B6F9BDE8F0874946204613F0CF
:1050600043FC05462F783946204613F085FC30B9BD
:105070003346022201216068FFF7A3F9EBE73946C6
:10508000204613F066FC30B13346022201216068ED
:10509000FFF797F9DFE795F801802068016842463D
:1050A0000B6A39469847324639466068FFF774FA0A
:1050B00000BFD0E72DE9F74F82B004469046C4F810
:1050C00028802068C1682046884781460068416979
:1050D0004846884707462068C16820468847824678
:1050E0000068816950468847054694F83500A84213
:1050F00002DB84F8347004E094F83500401C84F836
:10510000340014F8340FC01D60706078343CA8423D
:1051100001DD84F8355094F834601CE02068C168E3
:10512000204688478346F1B20068426E5846904751
:1051300001900198012800D10BE094F835100198F6
:105140003044401E814200DB03E0701E84F83500CD
:1051500005E0701C86B294F83500B042DEDA00BF7C
:1051600094F83400B84203DB94F83400A84203DD1D
:1051700072B600E0ABBEFDE700BF00BF94F835009B
:10518000B84203DB94F83500A84203DD72B600E0B4
:10519000ABBEFDE700BF94F8353094F8342004F13D
:1051A00020000399FFF7FFFB05B0BDE8F08F00007A
:1051B0002DE9FE4F04468A462068C168204688478C
:1051C00007460068016E38468847054625B900BF86
:1051D00072B600E0ABBEFDE7012D1DD12068C168AD
:1051E0002046884706460068C16D3046884781469C
:1051F0002068C16820468847804600684946426A60
:105200004046904783465B464A46514604F120009B
:10521000FFF7B4FBBDE8FE8F05230222174968465D
:1052200014F073FD052D00D9052500261BE020682C
:10523000C1682046884780460068C16D404688475F
:1052400083460DF816B02068C1682046884781461D
:1052500000685946426A48469047694601EB460154
:105260004870701CC6B2AE42E1D3EBB26A465146FA
:1052700004F12000FFF7BDFB00BFCBE7674A000841
:1052800080F82C1019B9026B521C026301E0002255
:10529000026370472DE9F04385B004460E4615467B
:1052A0001F466660684623F091F980462068C16811
:1052B0002046884781464246494604F10800FFF7E8
:1052C000AAFC684600BF00BF04F12000057000BFC3
:1052D00084F82150676205B0BDE8F08370B50446DC
:1052E000134820600020606004F108052860002158
:1052F000281D23F068F9051F00BFA5F1080404F17B
:105300002000002100F8201900BF044600202434AA
:1053100004F8030C4FF4FA702060002060602072E3
:105320006081E060FF2020746074243C204670BDE2
:105330006C2B03080449016000F108010A1D00BF3D
:10534000A2F10C00704700006C2B030840F0A00095
:10535000704710B503460C88032C00D010BD01F136
:105360000800002200BFF9E72DE9F04F95B0044690
:10537000894605F02DFE069007F0DEFE82460068A5
:105380000169504688477749059006F00AF8834638
:1053900006991CF00AFC054673491CF05DFBD4F825
:1053A000D400401CC4F8D40000207049087000905C
:1053B000034640220190D4E908011FF0F4FED4F81E
:1053C000D40000287DDDB9F1000F11D005F000FEFA
:1053D000834607F0B1FE06460068016930468847FB
:1053E000594606901CF0E1FB054661491CF034FB70
:1053F0000120FCF7A7FA0120FCF7E0FA07F09CFE79
:1054000007460068016938468847834659491CF0B9
:1054100023FB0546584905F0C4FF42F210720B21E8
:10542000204604F02BF807F087FE804600680169EB
:1054300040468847834651491CF00EFB05464E49BD
:1054400005F0AFFF4E484F49026805A81AF0F4FD79
:10545000DDE90501CDE91301002113A823F063FB69
:1054600049484849026805A81AF0E6FDDDE905014A
:10547000CDE91101002111A823F055FB4348414912
:10548000026805A81AF0E1FDDDE90501CDE90F018B
:1054900000210FA823F057FB3D483A49026805A8B0
:1054A0001AF0CAFDDDE90501CDE90D0100210DA8C5
:1054B00023F039FB37483349026805A81AF0BCFDD0
:1054C00000E04CE0DDE90501CDE90B0100210BA86E
:1054D00023F029FB30482B49026805A81AF0ACFDDF
:1054E000DDE90501CDE90901002109A823F01BFB35
:1054F0002A482449026805A81AF09EFDDDE9050145
:10550000CDE90701002107A823F00DFB002524E0C9
:10551000234850F8250000F13C012248026801A808
:105520001AF054FDDDE90101CDE90501002105A8CE
:1055300023F086FA1A4850F8250000F13C011A4879
:10554000026801A81AF04BFDDDE90101CDE9030174
:10555000002103A823F084FA6D1C042DD8D115B0C6
:10556000BDE8F08F03F100085678030880000020A2
:105570006D7803088D78030899F00008A778030870
:10558000041203080C000020081203080C12030880
:105590001012030814120308181203081C1203083F
:1055A000300000202012030824120308F0B587B051
:1055B00006460C4615462549681A8D4218D006DC69
:1055C0002349084460B32349084490BB17E01DB148
:1055D0002148284468BB1AE0206850F8140C204485
:1055E00006A9069030461DF03FFA064607B0F0BD0A
:1055F00005A9304605941DF037FA0646F6E7201D4A
:1056000004A9049030461DF02FFA0646EEE704F197
:10561000080003A9039030461DF026FA0646E5E788
:1056200004F1100002A9029030461DF01DFA064652
:10563000DCE7FFE7094901A806F01FFF07463946E6
:1056400030461DF005FA064600BFCFE7D35B0BF1ED
:105650002A8FBB3B823AFFE62BF92EA31B0000806A
:1056600070B5044607F068FD05460068D0F8B8102C
:105670002846884708B9002070BD94F8B00008B1EA
:105680000020F9E74FF4FA720121204603F0F6FEFC
:10569000012084F8B00000BFEEE7000070B50446BA
:1056A0000D4600220821204603F0E8FE94F89800F9
:1056B000A84201D0012000E00020064684F898505E
:1056C00036B194F89800044908730846FCF78CF842
:1056D000002084F8CC0070BD6803002037B5044674
:1056E000214601A81CF053FC3EBD000001B5ADF5FC
:1056F0000C7D05F06DFC3190FE483199FEF7BEFB44
:10570000FD483199FEF792FDFC483199FFF70AF800
:10571000FB483199FEF78AFDFA483199FFF702F804
:105720002FAAF9480168F94823F090F838B38C980B
:1057300090F8CD0018B98C9890F8CC00A8B19DF8DD
:10574000BC0090B900218C98FFF7A8FFF048F14900
:1057500002681FA81AF05EFCDDE91F018B918A9098
:1057600002218AA823F0B0F909E09DF8BC108C98BA
:1057700080F8CD100A2208218C9803F07FFE30AA11
:10578000E5480168E14823F04BF8002872D09DF805
:10579000C000002870D1002207218C9803F06EFE13
:1057A000DE48DC4902681AA81AF02BFCDDE91A0170
:1057B000CDE91F0100211FA823F076F98C98D0F8BD
:1057C000BC103198401A1C9007F0B6FC1E9000687F
:1057D0000069179017991E988847D14918901CF0B6
:1057E0003BF919901C991CF0E0F9CE491A901CF075
:1057F00033F9CD491B9005F0D4FD07F09DFC1D90B9
:1058000000680069189018991D988847C749199031
:105810001CF022F91A908C9890ED220A8DED190A4D
:105820009DED190A1A981CF088F9BF491B9005F0E4
:10583000B8FD8C98D0F8C40088B11C998C9802F0FF
:1058400093F88C9801F0D8FC002000900346402289
:1058500001908C98416C006C1FF05DFC06E000210B
:105860008C9880F8C0108C9880F8C11000218C981A
:10587000C0F8C41029E1FFE79DF9C000002837DA1D
:105880008C9890F8C00048B98C9890ED220ADFED12
:10589000A80AB4EEE00AF1EE10FA29D807F04CFCA1
:1058A0008990006800691F901F9989988847A149CD
:1058B00020901CF0D1F807F03FFC88900068006948
:1058C0001D901D998898884798491E901CF0C4F82F
:1058D0001F908C9890ED220A8DED1E0A9DED1E0AF8
:1058E0001F981CF02AF99049209005F05AFDECE031
:1058F0009DF9C000002837DD8C9890F8C10048B9A8
:105900008C9890ED220ADFED8C0AB4EEE00AF1EEFD
:1059100010FA29DB07F010FC8790006800691F90DF
:105920001F9987988847854920901CF095F807F0C3
:1059300003FC8690006800691D901D998698884731
:105940007A491E901CF088F81F908C9890ED220ADE
:105950008DED1E0A9DED1E0A1F981CF0EEF872498F
:10596000209005F01EFDB0E08C98D0F8C4009DF9A1
:10597000C0108842BBD000231A468C98416D006D40
:105980000CF0DDF89DF9C0108C98583013F0F0FA47
:1059900030908C98D0F8C40050B18C98D0F8BC10DE
:1059A0003198401A209020998C9801F0DDFF00BFBB
:1059B0008C9890ED220A80ED240A8C993198C1F8D8
:1059C000BC009DF9C0108C98C0F8C41000218C98C0
:1059D00080F8C0108C9880F8C110322207218C9872
:1059E00003F04CFD56484B4902681FA81AF009FB0A
:1059F000DDE91F0185918490002184A823F054F8EB
:105A000000209DF9C01003464022CDE900108C987B
:105A1000416C006C1FF07FFB07F08EFB83900068E9
:105A200000691F901F9983988847464920901CF071
:105A300013F89DF9C00000280DDA07F07DFB829075
:105A4000006800691F901F99829888473E492090FE
:105A50001CF002F80CE007F06FFB81900068006911
:105A60001F901F9981988847384920901BF0F4FFB8
:105A700007F062FB8090006800691E901E99809874
:105A8000884733491F901BF0E7FF2749209005F016
:105A900088FC07F051FB7F90006800691D901D99FC
:105AA0007F98884721491E901BF0D6FF1F908C9845
:105AB00090ED220A8DED1E0A9DED1E0A1F981CF026
:105AC0003CF81949209005F06CFC30AA2148016887
:105AD0000E4822F0A5FE00287DD09DF8C0000028C9
