:020000040800F2
:1000000000000320D9690008D5690008156B0008B5
:10001000D5690008D5690008D5690008000000000E
:10002000000000000000000000000000D16701088F
:10003000D56900080000000061680108C168010876
:10004000D5690008D5690008D5690008D569000898
:10005000D5690008D5690008652A01086D2A0108DC
:10006000752A01087D2A0108852A0108392401081A
:100070006D240108A1240108D524010805250108E3
:10008000392501086D250108D5690008D5690008E2
:10009000D5690008D5690008D56900088D2A0108CE
:1000A000ED45010865460108DD4601085547010890
:1000B0008D470108C1470108F9470108D5690008C3
:1000C000D5690008D5690008D5690008D569000818
:1000D000D5690008954B0108B54B0108D54B0108BF
:1000E000952A0108D5690008D5690008314801083A
:1000F000A94801082149010899490108A1250108D9
:10010000D5690008D5690008D1490108D5690008FA
:10011000F54B0108154C0108094A0108414A01083C
:10012000D125010805260108392601086D26010898
:100130009D260108D5690008D5690008D569000821
:10014000D5690008D5690008D5690008D569000897
:10015000D12601080527010839270108354C010877
:10016000D5690008D5690008D5690008D569000877
:10017000D5690008D5690008D569000800000000AD
:10018000D5690008D5690008554C0108754C01086F
:10019000D5690008D5690008D5690008D569000847
:0C01A000D5690008D5690008D569000881
:1001C0007BB972B90029BEBF00204FF0004106E0A4
:1001D00008BF00281CBF6FF000414FF0FF3000F057
:1001E0002DB9ADF1080C6DE904CE002909DB002B17
:1001F0001ADB1EF0FFF8DDF804E0DDE9022304B0AD
:100200007047404261EB4101002B1BDB1EF0F2F80E
:10021000DDF804E0DDE9022304B0404261EB410176
:10022000524263EB43037047524263EB43031EF0B9
:10023000E1F8DDF804E0DDE9022304B0404261EBBF
:1002400041017047524263EB43031EF0D3F8DDF8DF
:1002500004E0DDE9022304B0524263EB430370473C
:1002600053B94AB9002908BF00281CBF4FF0FF311D
:100270004FF0FF3000F0E2B8ADF1080C6DE904CEAC
:100280001EF0B8F8DDF804E0DDE9022304B07047A1
:1002900000F1340191E838009C46A6464CF8045D14
:1002A00090E8FF0FE54600BD90EC210B704700BFC2
:1002B00080EC210B704700BF90EC200B704700BF13
:1002C00080EC200B704700BFD0EC200B704700BFC4
:1002D000C0EC200B704700BFF0EC0201F0EC021103
:1002E000F0EC0221F0EC0231F0EC0241F0EC0251B2
:1002F000F0EC0261F0EC0271F0EC0281F0EC0291A2
:10030000F0EC02A1F0EC02B1F0EC02C1F0EC02D191
:10031000F0EC02E1F0EC02F1704700BFE0EC02010A
:10032000E0EC0211E0EC0221E0EC0231E0EC0241F1
:10033000E0EC0251E0EC0261E0EC0271E0EC0281E1
:10034000E0EC0291E0EC02A1E0EC02B1E0EC02C1D1
:10035000E0EC02D1E0EC02E1E0EC02F1704700BF1A
:10036000B0FC0181B0FC0191B0FC01A1B0FC01B175
:10037000704700BFA0FC0181A0FC0191A0FC01A17D
:10038000A0FC01B1704700BFEC4600B52DE900505C
:100390002DE9FF1F4FF000032DE90C0001A91EF00D
:1003A000E3FADDF840E012B0704700BFEC4600B55C
:1003B0002DE900502DE9FF1F4FF000032DE90C003F
:1003C00001A91EF00DFBDDF840E012B0704700BF40
:1003D000EC4600B52DE900502DE9FF1F4FF000035A
:1003E0002DE90C0001A91EF01DFBDDF840E012B064
:1003F000704700BFEC4600B52DE900502DE9FF1F06
:100400004FF000032DE90C0001AB1EF0E1FADDF81E
:1004100040E012B0704700BFEC4600B52DE9005037
:100420002DE9FF1F4FF000032DE90C0001AA1EF07B
:1004300059FBDDF840E012B0704700BF704700BFC5
:1004400002780B78012A28BF9A4240F0D8806DE9E3
:10045000044540EA0104CDE902676FF0000C4FEA61
:1004600044721AB380EA010414F0070F6BD100F054
:10047000070420F0070004F0030521F007014FEA0C
:10048000C505F0E8042314F0040FF1E804670CFA42
:1004900005F462EA040266EA04060BD063EA040388
:1004A000624667EA0407664604E000BFF0E80423FA
:1004B000F1E8046782FA4CF582EA0604A4FA8CF4A7
:1004C0006CBB83FA4CF583EA0705A5FA8CF595B960
:1004D00050E9022351E9026782FA4CF582EA0604E8
:1004E000A4FA8CF483FA4CF583EA0705A5FA8CF597
:1004F0002543DBD09CB92DBAB5FA85F424F0070466
:1005000027FA04F1DDE9026723FA04F303F0FF00A0
:1005100001F0FF01FDE80445A0EB0100704724BA9B
:10052000B4FA84F424F0070426FA04F1DDE9026742
:1005300022FA04F202F0FF0001F0FF01FDE8044599
:10054000A0EB0100704714F0030F3CD110F003043E
:1005500028D150F8082B51F8083B82FA4CF582EA72
:100560000305A5FA8CF55DB950F8042C51F8043C4C
:1005700082FA4CF582EA0305A5FA8CF5002DE8D045
:100580002DBAB5FA85F424F0070423FA04F122FA0F
:1005900004F202F0FF0001F0FF01FDE80445A0EBCA
:1005A000010070474FEAC40420F0030050F8082B04
:1005B00021F0030151F8083B0CFA04F462EA04024A
:1005C00063EA0403C9E710F003041DD0A1EB0401A2
:1005D00020F00300E40750F8042B06D012D28B78E9
:1005E0005FFAA2F4E41A06D12BB1CB785FFAB2F429
:1005F000E41A00D133B920465DF8104B7047A2EBE6
:100600000300704701F1040150F8042BCC0721F0DE
:10061000030151F8043B48D824D222F07F4482FAE7
:100620004CF594EA1325A5FA8CF50AD165B951F871
:10063000043B84EA0204B4EB036F0ED150F8042BA0
:10064000EBE74FEA132355E035F07F454DD10878AD
:10065000FDE80445C0F1000070474FEA126203F064
:10066000FF0347E002EA1C4482FA4CF594EA134582
:10067000A5FA8CF50AD165B951F8043B84EA020465
:10068000B4EB034F0CD150F8042BEBE74FEA1343C4
:1006900030E015EA1C4528D10B884FEA124229E0C8
:1006A0004FEA124203EA1C4324E002F0FF0482FAFC
:1006B0004CF594EA1365A5FA8CF50AD165B951F8A1
:1006C000043B84EA0204B4EB032F09D150F8042B55
:1006D000EBE74FEA13630DE015F0FF0F05D10B6850
:1006E0004FEA122223F07F4304E04FF00000FDE8C0
:1006F0000445704712BA1BBA82FA4CF482EA03042A
:10070000A4FA8CF5B5FA85F402FA04F203FA04F3BC
:100710004FEA1260FDE80445A0EB1360704700BF8C
:1007200001F0FF01102A2BDB10F0070F08D010F8A2
:10073000013B013A8B422DD010F0070F42B3F6D1A6
:10074000F0B441EA012141EA014122F007047FF0BF
:1007500000070023F0E80256083C85EA010586EA16
:10076000010685FA47F5A3FA87F586FA47F6A5FA52
:1007700087F68EB9EED1F0BC01F0FF0102F007025E
:1007800032B110F8013B013A83EA010313B1F8D109
:100790000020704701387047002D06BF35460338EA
:1007A000073815F0010F07D1013015F4807F02BF23
:1007B000013015F4C03F0130F0BC0138704700BF74
:1007C000844641EA000313F003036DD1403A41D35C
:1007D00051F8043B40F8043B51F8043B40F8043B1B
:1007E00051F8043B40F8043B51F8043B40F8043B0B
:1007F00051F8043B40F8043B51F8043B40F8043BFB
:1008000051F8043B40F8043B51F8043B40F8043BEA
:1008100051F8043B40F8043B51F8043B40F8043BDA
:1008200051F8043B40F8043B51F8043B40F8043BCA
:1008300051F8043B40F8043B51F8043B40F8043BBA
:1008400051F8043B40F8043B51F8043B40F8043BAA
:10085000403ABDD2303211D351F8043B40F8043B4A
:1008600051F8043B40F8043B51F8043B40F8043B8A
:1008700051F8043B40F8043B103AEDD20C3205D35A
:1008800051F8043B40F8043B043AF9D2043208D052
:10089000D2071CBF11F8013B00F8013B01D30B88C4
:1008A00003806046704700BF082A13D38B078DD0A2
:1008B00010F003038AD0C3F10403D21ADB071CBF74
:1008C00011F8013B00F8013B80D331F8023B20F8DE
:1008D000023B7BE7043AD9D3013A11F8013B00F817
:1008E000013BF9D20B7803704B7843708B7883709F
:1008F000604670470000000000000000000000009B
:1009000030B490F800F020F007016FF0000C10F008
:10091000070491F820F040F048804FF000046FF099
:100920000700D1E9002391F840F000F1080082FAB5
:100930004CF2A4FA8CF283FA4CF3A2FA8CF34BBB80
:10094000D1E9022382FA4CF200F10800A4FA8CF2F9
:1009500083FA4CF3A2FA8CF3E3B9D1E9042382FAC7
:100960004CF200F10800A4FA8CF283FA4CF3A2FADC
:100970008CF37BB9D1E9062301F1200182FA4CF214
:1009800000F10800A4FA8CF283FA4CF3A2FA8CF37B
:10099000002BC6D0002A04BF04301A4612BAB2FA9D
:1009A00082F200EBD20030BC7047D1E9002304F0A2
:1009B0000305C4F100004FEAC50514F0040F91F8D7
:1009C00040F00CFA05F562EA05021CBF63EA050374
:1009D00062464FF00004AAE781F0004102E000BF48
:1009E00083F0004330B54FEA41044FEA430594EAEF
:1009F000050F08BF90EA020F1FBF54EA000C55EA2A
:100A0000020C7FEA645C7FEA655C00F0E2804FEAFA
:100A10005454D4EB5555B8BF6D420CDD2C4480EADC
:100A2000020281EA030382EA000083EA010180EA0C
:100A3000020281EA0303362D88BF30BD11F0004F5A
:100A40004FEA01314FF4801C4CEA113102D0404290
:100A500061EB410113F0004F4FEA03334CEA1333CB
:100A600002D0524263EB430394EA050F00F0A780E3
:100A7000A4F10104D5F1200E0DDB02FA0EFC22FADE
:100A800005F2801841F1000103FA0EF2801843FAD2
:100A900005F359410EE0A5F120050EF1200E012AC3
:100AA00003FA0EFC28BF4CF0020C43FA05F3C01801
:100AB00051EBE37101F0004507D54FF0000EDCF17A
:100AC000000C7EEB00006EEB0101B1F5801F1BD323
:100AD000B1F5001F0CD349085FEA30004FEA3C0C27
:100AE00004F101044FEA445212F5800F80F09A801D
:100AF000BCF1004F08BF5FEA500C50F1000041EB21
:100B0000045141EA050130BD5FEA4C0C404141EB24
:100B10000101013C28BFB1F5801FE9D291F0000F1F
:100B200004BF01460020B1FA81F308BF2033A3F1CE
:100B30000B03B3F120020CDA0C3208DD02F1140CC5
:100B4000C2F10C0201FA0CF021FA02F10CE002F100
:100B50001402D8BFC2F1200C01FA02F120FA0CFCF9
:100B6000DCBF41EA0C019040E41AA2BF01EB045142
:100B7000294330BD6FEA04041F3C1CDA0C340EDC40
:100B800004F11404C4F1200220FA04F001FA02F383
:100B900040EA030021FA04F345EA030130BDC4F141
:100BA0000C04C4F1200220FA02F001FA04F340EA36
:100BB0000300294630BD21FA04F0294630BD94F0E7
:100BC000000F83F4801306BF81F480110134013DCE
:100BD0004EE77FEA645C18BF7FEA655C29D094EA3F
:100BE000050F08BF90EA020F05D054EA000C04BFBD
:100BF0001946104630BD91EA030F1EBF00210020A8
:100C000030BD5FEA545C05D14000494128BF41F046
:100C1000004130BD14F580043CBF01F5801130BDAA
:100C200001F0004545F0FE4141F470014FF0000035
:100C300030BD7FEA645C1ABF194610467FEA655CE6
:100C40001CBF0B46024650EA013406BF52EA033588
:100C500091EA030F41F4002130BD00BF90F0000F76
:100C600004BF0021704730B54FF4806404F13204B2
:100C70004FF000054FF0000150E700BF90F0000F6B
:100C800004BF0021704730B54FF4806404F1320492
:100C900010F0004548BF40424FF000013EE700BF62
:100CA00042004FEAE2014FEA31014FEA02701FBFF2
:100CB00012F07F4393F07F4F81F06051704732F024
:100CC0007F4208BF704793F07F4F04BF41F400217B
:100CD000704730B54FF4607401F0004521F00041D9
:100CE0001CE700BF50EA010208BF704730B54FF063
:100CF00000050AE050EA010208BF704730B511F064
:100D0000004502D5404261EB41014FF4806404F19B
:100D100032045FEA915C3FF4D8AE4FF003025FEA21
:100D2000DC0C18BF03325FEADC0C18BF033202EBA5
:100D3000DC02C2F1200300FA03FC20FA02F001FAFF
:100D400003FE40EA0E0021FA02F11444BDE600BFA2
:100D500070B54FF0FF0C4CF4E06C1CEA11541DBF51
:100D60001CEA135594EA0C0F95EA0C0F00F0DEF81C
:100D70002C4481EA030621EA4C5123EA4C5350EA01
:100D8000013518BF52EA033541F4801143F4801352
:100D900038D0A0FB02CE4FF00005E1FB02E506F0E3
:100DA0000042E0FB03E54FF00006E1FB03569CF038
:100DB000000F18BF4EF0010EA4F1FF04B6F5007F3E
:100DC00064F5407404D25FEA4E0E6D4146EB0606B0
:100DD00042EAC62141EA55514FEAC52040EA5E5039
:100DE0004FEACE2EB4F1FD0C88BFBCF5E06F1ED8E3
:100DF000BEF1004F08BF5FEA500E50F1000041EB1A
:100E0000045170BD06F0004646EA010140EA0200C6
:100E100081EA0301B4EB5C04C2BFD4EB0C0541EAE8
:100E2000045170BD41F480114FF0000E013C00F3FD
:100E3000AB8014F1360FDEBF002001F0004170BD21
:100E4000C4F10004203C35DA0C341BDC04F114043A
:100E5000C4F1200500FA05F320FA04F001FA05F2C6
:100E600040EA020001F0004221F0004110EBD37093
:100E700021FA04F642EB06015EEA430E08BF20EABF
:100E8000D37070BDC4F10C04C4F1200500FA04F362
:100E900020FA05F001FA04F240EA020001F00041F4
:100EA00010EBD37041F100015EEA430E08BF20EA67
:100EB000D37070BDC4F1200500FA05F24EEA020EAF
:100EC00020FA04F301FA05F243EA020321FA04F0DE
:100ED00001F0004121FA04F220EA020000EBD37095
:100EE0005EEA430E08BF20EAD37070BD94F0000F95
:100EF0000FD101F00046400041EB010111F4801FC9
:100F000008BF013CF7D041EA060195F0000F18BF79
:100F1000704703F00046520043EB030313F4801FB5
:100F200008BF013DF7D043EA0603704794EA0C0F6F
:100F30000CEA135518BF95EA0C0F0CD050EA410685
:100F400018BF52EA4306D1D181EA030101F0004102
:100F50004FF0000070BD50EA410606BF104619462A
:100F600052EA430619D094EA0C0F02D150EA013636
:100F700013D195EA0C0F05D152EA03361CBF104677
:100F800019460AD181EA030101F0004141F0FE4116
:100F900041F470014FF0000070BD41F0FE4141F49A
:100FA000780170BD70B54FF0FF0C4CF4E06C1CEA9A
:100FB00011541DBF1CEA135594EA0C0F95EA0C0F4F
:100FC00000F0A7F8A4EB050481EA030E52EA03350A
:100FD0004FEA013100F088804FEA03334FF080552B
:100FE00045EA131343EA12634FEA022245EA111558
:100FF00045EA10654FEA00260EF000419D4208BF09
:10100000964244F1FD0404F5407402D25B084FEAB5
:101010003202B61A65EB03055B084FEA32024FF461
:1010200080104FF4002CB6EB020E75EB030E22BFBE
:10103000B61A754640EA0C005B084FEA3202B6EB7E
:10104000020E75EB030E22BFB61A754640EA5C002D
:101050005B084FEA3202B6EB020E75EB030E22BFBD
:10106000B61A754640EA9C005B084FEA3202B6EBBE
:10107000020E75EB030E22BFB61A754640EADC007D
:1010800055EA060E18D04FEA051545EA16754FEADF
:1010900006164FEAC30343EA52734FEAC2025FEAFD
:1010A0001C1CC0D111F4801F0BD141EA00014FF08C
:1010B00000004FF0004CB6E711F4801F04BF01435D
:1010C0000020B4F1FD0C88BFBCF5E06F3FF6AFAE79
:1010D000B5EB030C04BFB6EB020C5FEA500C50F109
:1010E000000041EB045170BD0EF0004E4EEA11318C
:1010F00014EB5C04C2BFD4EB0C0541EA045170BD93
:1011000041F480114FF0000E013C90E645EA060ED6
:101110008DE60CEA135594EA0C0F08BF95EA0C0F04
:101120003FF43BAF94EA0C0F0AD150EA01347FF44C
:1011300034AF95EA0C0F7FF425AF104619462CE723
:1011400095EA0C0F06D152EA03353FF4FDAE104686
:10115000194622E750EA410618BF52EA43067FF4D7
:10116000C5AE50EA41047FF40DAF52EA43057FF467
:10117000EBAE12E74FF0FF3C06E000BF4FF0010C72
:1011800002E000BF4FF0010C4DF804CD4FEA410CD6
:101190007FEA6C5C4FEA430C18BF7FEA6C5C1BD0A3
:1011A00001B050EA410C0CBF52EA430C91EA030F24
:1011B00002BF90EA020F0020704710F1000F91EA81
:1011C000030F58BF994208BF90422CBFD8176FEA4F
:1011D000E37040F0010070474FEA410C7FEA6C5C1D
:1011E00002D150EA013C07D14FEA430C7FEA6C5C24
:1011F000D6D152EA033CD3D05DF8040B704700BF50
:101200008446104662468C461946634600E000BF9D
:1012100001B5FFF7B7FF002848BF10F1000F01BD6F
:101220004DF808EDFFF7F4FF0CBF012000205DF83A
:1012300008FB00BF4DF808EDFFF7EAFF34BF0120BF
:1012400000205DF808FB00BF4DF808EDFFF7E0FF58
:1012500094BF012000205DF808FB00BF4DF808EDA9
:10126000FFF7CEFF94BF012000205DF808FB00BF10
:101270004DF808EDFFF7C4FF34BF012000205DF8F2
:1012800008FB00BF4FEA410C7FEA6C5C02D150EAD8
:10129000013C0AD14FEA430C7FEA6C5C02D152EA6E
:1012A000033C02D14FF0000070474FF0010070473F
:1012B0004FEA410212F5001215D211D56FF478737E
:1012C000B3EB625212D94FEAC12343F0004343EA21
:1012D000505311F0004F23FA02F018BF40427047FC
:1012E0004FF00000704750EA013005D111F0004086
:1012F00008BF6FF0004070474FF00000704700BF1C
:101300000348044B834202D0034B03B11847704794
:10131000C8090020C8090020000000000548064B4D
:101320001B1AD90F01EBA301491002D0034B03B1E3
:1013300018477047C8090020C809002000000000B5
:1013400010B5064C237843B9FFF7DAFF044B13B10D
:101350000448AFF300800123237010BD6C610120AD
:1013600000000000D000030808B5054B1BB105497B
:101370000548AFF30080BDE80840FFF7CFBF00BFCE
:101380000000000070610120D000030870470000D9
:1013900008B562B610F01EFD0749CA6822F4E06283
:1013A0001204120C054B1343CB6007F05DF814F0E8
:1013B000BDFB00BFFDE700BF00ED00E00003FA0544
:1013C00008B500F0F5F808BDBFF35B8FC26E836E01
:1013D0009A4206D3416E891A026E9B1A1944481E1E
:1013E0007047981A0138704710B50446074B0360E0
:1013F00003690BB113F080FC04F11C0011F046FCF2
:1014000004F1180011F042FC204610BD08D3020878
:1014100010B50446FFF7E8FF3C21204611F0AEFE70
:10142000204610BD08B5034600F1300203C982E82A
:1014300003001A6912B1184613F098FB08BD00BFEB
:101440000E4A0260002242604FF41651816002731E
:10145000427308218173026142610276427682768C
:10146000C276027742778277C277026242628262F4
:10147000C2620263426380F83820704708D30208D2
:1014800010B584B0012380F8743000F14903039350
:1014900000F14A020292019390F87530B3B104460C
:1014A000002380F8753042692AB193899BB223F4F6
:1014B000F8739BB29381201D13F01EFC04F1780099
:1014C00011F0E4FB04F17C0011F0E0FB04B010BD6E
:1014D0000378002B31D000B585B08278BAB141785D
:1014E00001228A4092B203F580137F339B025A8314
:1014F0008379BBB1437901229A4092B2037903F513
:1015000080137F339B025A8305B05DF804FB0323ED
:10151000ADF80830D723ADF80A30084B039302A882
:1015200005F054FC0323ADF80030D723ADF80230AA
:10153000024B0193684605F049FC70478866020833
:101540000378002B31D000B585B08278BAB14178EC
:1015500001228A4092B203F580137F339B021A83E3
:101560008379BBB1437901229A4092B2037903F5A2
:1015700080137F339B021A8305B05DF804FB0323BD
:10158000ADF80830D723ADF80A30084B039302A812
:1015900005F01CFC0323ADF80030D723ADF8023072
:1015A000024B0193684605F011FC704788660208FB
:1015B000F0B583B004460D4643698BB39B8903F4B1
:1015C000F87616F0400F02D015F0400F2AD115F032
:1015D000800F02D016F0800F2BD115F0200F02D013
:1015E00016F0200F48D115F0080F0DD063695BB1DC
:1015F0001A8892B2ADF804209B889BB2ADF80630F1
:10160000BDF80430BDF80630616939B18B899BB2F1
:1016100023F4F87206F4F87313438B8103B0F0BD22
:101620000026CEE704F17800FFF752FF26F04006CF
:10163000CDE7BFF35B8FA36EE26E934213D001330D
:10164000626E934200D3236E1F78BFF35B8FA36655
:10165000BFF35B8F04F17800FFF772FF63699F802F
:1016600026F04006B9E726F0800694F87830002B83
:10167000B3D046F04006B0E763699B88DAB2BFF3A7
:101680005B8FA36D0133216D8B4200D3E36C616DE1
:101690009942A8D01A70BFF35B8FA365BFF35B8F2D
:1016A000A1E700BF08B5081E02DB11F049FD08BD27
:1016B00015F032FB08B50846114611F05FFD08BD74
:1016C000016891B110B50446002300E0013362685F
:1016D000521A9A42FAD804F11000FFF7EBFF0023E8
:1016E000E36063602360A36010BD704730B583B0D2
:1016F0000023036043608360C36071B104460D46FC
:10170000FFF7DEFF01350022294604F11000FFF744
:10171000C9FF2060054465600EE00223ADF800308B
:101720004FF4A173ADF80230084B0193684605F001
:101730004DFB002300F8013B63689842F9D1236810
:10174000E360A360204603B030BD00BFE46602083A
:1017500070B586B00446284B03600646274B46F812
:10176000043B3046FFF76CFE002525644FF0FF3345
:1017700063642046224B40F84C3B6A468021FFF7C9
:10178000B5FF01AA802104F16000FFF7AFFF84F8E4
:10179000745084F87550A567E56784F8785084F82C
:1017A000795084F87A5084F87B5084F87C5084F81F
:1017B0007D5084F87E5084F87F50636993B1032391
:1017C000ADF8083040F27B13ADF80A300D4B0393AF
:1017D00004940D4B059304A93046FFF723FE2046E1
:1017E00006B070BD0623A3740023ADF80830ADF831
:1017F0000A300393ECE700BF18D3020834D3020881
:1018000050D3020838670208C113000810B5054C10
:101810002046FFF79DFF044A0449204615F018F9B9
:1018200010BD00BFC80900209800002089180008DA
:1018300038B50446114B036090F87530D3B904F104
:10184000780504F17C0011F021FA284611F01EFA07
:1018500004F16000FFF734FF04F14C00FFF730FFA4
:101860002046074B40F8043BFFF7BEFD054B2360C5
:10187000204638BDFFF704FEE1E700BF50D3020861
:1018800034D3020818D3020810B50446FFF7D0FF7E
:10189000204610BD10B50446FFF7CAFF8021204640
:1018A00011F06CFC204610BD38B50D4651B1044610
:1018B000B1F1FF3F06D014F07BF9031B9D4203D921
:1018C000201A0544284638BD0025FBE72DE9F047DE
:1018D0008EB080469146169E0022326001F1490288
:1018E000069291F83C2012F0010F09D108230380E1
:1018F00069234380454B436040460EB0BDE8F08706
:101900000C461BB9038043804360F5E709EB0307EE
:101910000023ADF81030ADF81230059314F048F9FB
:1019200082464D4648E00923ADF81C307623ADF8D9
:101930001E30364B089304AB07AA92E8030083E8F5
:101940000300A5EB0905356004AB93E8030088E8C4
:101950000300D1E7BFF35B8F7B1B0193002BF0D01B
:10196000216C5046FFF7A0FF0290002838D00123D9
:101970000B93236DE26C9B1A013B0D93019A9342EA
:101980003DD80DAB1B68226B02FB03F3DB0A0C9303
:10199000012B36D80BAB1B680393834233D302ABC6
:1019A000186814F009FA07E01A78BFF35B8F6365D3
:1019B000BFF35B8F05F8012BBD42C2D0BFF35B8F35
:1019C00094F87430002BAED1BFF35B8F636DA26DC2
:1019D0009A42BFD00133226D9342E5D3E36CE3E733
:1019E0000123ADF824308623ADF82630074B0A9347
:1019F00004AB09AA92E8030083E80300A1E701AB66
:101A0000C0E70CABC7E703ABCAE700BF94670208A7
:101A10002DE9F0478EB080469146169E0022326036
:101A200001F14A02069291F83C2012F0020F09D10E
:101A3000082303803B234380464B436040460EB05F
:101A4000BDE8F0870C461BB9038043804360F5E78F
:101A50000022ADF81020ADF81220059209EB030723
:101A600014F0A6F882464D4625E00923ADF81C3057
:101A70004923ADF81E30374B089304AB07AA92E810
:101A8000030083E80300A5EB0905356004AB93E888
:101A9000030088E80300D1E7A26E9A421CD02A789E
:101AA0001A70BFF35B8FE366BFF35B8F636A0BB1A2
:101AB0000122DA610135BD42E5D0BFF35B8F94F8B6
:101AC0007430002BD1D1BFF35B8FE36E0133626EB4
:101AD0009A42E1D8236EDFE7BFF35B8F7B1B019354
:101AE000002BD0D0616C5046FFF7DEFE0290E0B1D3
:101AF00001230B93636E226E9B1A013B0D93019A97
:101B0000934221D80DAB1B68226B02FB03F3DB0A67
:101B10000C93012B1AD80BAB1B680393834217D38A
:101B200002AB186814F048F9C5E70123ADF824307A
:101B30005823ADF82630074B0A9304AB09AA92E864
:101B4000030083E803009EE701ABDCE70CABE3E7AF
:101B500003ABE6E79467020808B5FFF757FE08BD38
:101B600008B500F019F808BD10B5044610F016FFCE
:101B7000204610BD08B5034A0349044814F068FF25
:101B800008BD00BF98000020691B0008000000206D
:101B9000436801334360704708B5064B1B7803B1B7
:101BA00008BD054B08225A8304225A830348FFF7D5
:101BB000EFFFF5E7480A0020001802404C0A002019
:101BC00010B58EB0334A02AB92E8030083E80300FD
:101BD000314B1B78002B2FD00322ADF800203B2285
:101BE000ADF802202D4A0192002B33D00322ADF82C
:101BF00010203B22ADF81220284A059200220892BC
:101C0000274A09927BB30323ADF818303B23ADF884
:101C10001A30224B0793204C21460AA810F056FF99
:101C200063686BB301221A600023ADF83030ADF861
:101C300032300D930EB010BD174A02A903C9D0600F
:101C40001182090C91740022ADF80020ADF8022039
:101C50000192C9E7002210490A77ADF81020ADF8CB
:101C600012200592CAE70F4B08AA92E8030083E806
:101C700003000023ADF81830ADF81A300793CAE717
:101C80000323ADF830303523ADF83230034B0D93DC
:101C9000D0E700BF045D020800000020F8670208DA
:101CA000611B00081400002008B5FFF763FF08BDA2
:101CB00010B50446006808B113F058FD204610BD69
:101CC0000B692BB11A600023038043804360704787
:101CD0000223038040F24B234380014B4360704753
:101CE00054680208007C704782B0026942B1002348
:101CF0001360ADF80030ADF80230019302B07047C8
:101D00000323ADF8003040F2C913ADF80230014BA7
:101D10000193F3E7B068020882B0026942B1002380
:101D20001360ADF80030ADF80230019302B0704797
:101D30000323ADF8003040F2C913ADF80230014B77
:101D40000193F3E7B068020808B502F0FBF908BD9B
:101D5000CB6823B19B690022026043607047002377
:101D6000F9E700BF012070470B6933B11B681360AE
:101D700000230380438043607047032303804FF4B4
:101D800037734380014B4360704700BF54680208BB
:101D90000022026040F6FF724260704701207047E7
:101DA00030B585B004461546002303930B689B6845
:101DB00003AA01A89847BDF804303BB101AB93E8F2
:101DC000030084E80300204605B030BD039B002BD0
:101DD00005DBB3F5805F03DB40F6FF7300E0002313
:101DE00007EE903AF8EEE77A9FED077A67EE877A8A
:101DF0009FED067A77EE877AC5ED007A002323807F
:101E000063806360DFE700BF0108803900000000E5
:101E100038B5054600F1080403E0043C204610F004
:101E200035FFA542F9D1284638BD00BF38B5054673
:101E300000F1C00403E0083C204610F027FFA54253
:101E4000F9D1284638BD00BFBFF35B8F4B6933B172
:101E50001B88136000230380438043607047136036
:101E6000032303805B234380014B4360704700BF23
:101E70000C690208BFF35B8FC26E836E9A4206D371
:101E8000416E891A026E9B1A1944481E7047981AAF
:101E90000138704782B00346BFF35B8F496989B14F
:101EA00009880020ADF80000ADF802000190BDF8EF
:101EB000000088B102AA12E9030083E80300184673
:101EC00002B070470321ADF800105B21ADF802109D
:101ED0000D4901910021EAE7B1F5805F01DB40F691
:101EE000FF7107EE901AF8EEE77A9FED087A67EE39
:101EF000877A9FED077A77EE877AC2ED007A002223
:101F00001A805A805A60DAE70C69020801088039A1
:101F10000000000070B489B084461FE00323ADF8D0
:101F200008307423ADF80A303A4B039300234AE09B
:101F3000208800268DF81060ADF8120025E0238877
:101F400000208DF81800ADF81A30069B0793019316
:101F50009DF800409DF804309C4228D0BFF35B8F71
:101F60004B684C698D69002BD8D0002CD6D0002D41
:101F7000D4D0D3F8B800006810F4002FD8D1288846
:101F800001268DF81060ADF81200049E05960096AB
:101F9000BFF35B8FD3F8B8301B6813F4002FCED19A
:101FA0002B8801208DF81800ADF81A30CDE7BDF868
:101FB0000230BDF806008342D0D10021ADF80810F0
:101FC000ADF80A100391BDF8081041B102AB93E8D7
:101FD00003008CE80300604609B070BC7047B3F59D
:101FE000805F01DB40F6FF7307EE903AF8EEE77A88
:101FF0009FED097A67EE877A9FED087A77EE877A08
:10200000C2ED007A0023ACF80030ACF80230CCF816
:102010000430E0E76C690208010880390000000024
:1020200070B487B01DE00323038074234380294BE1
:1020300043604BE026884FF0000C8DF808C0ADF8E7
:102040000A6026E0238800248DF81040ADF8123095
:10205000049B059301939DF800409DF804309C4239
:1020600029D0BFF35B8F4B684C698D69002BDAD0A8
:10207000002CD8D0002DD6D0D3F8B860366816F42E
:10208000002FD7D12E884FF0010C8DF808C0ADF885
:102090000A60029E03960096BFF35B8FD3F8B830B8
:1020A0001B6813F4002FCDD12B8801248DF810402C
:1020B000ADF81230CCE7BDF80230BDF80640A342BF
:1020C000CFD11360002303804380436007B070BC0E
:1020D000704700BF6C69020810B50446024B0360EC
:1020E00010F00CF9204610BDB4D3020810B5044618
:1020F000044B036010F002F91821204611F03EF85D
:10210000204610BDB4D3020800B583B0D0F8B83073
:102110008BB11A6822F001021A6000BF00BF0023D1
:10212000ADF80030ADF802300193AC3010F0E6F8B5
:1021300003B05DF804FB0323ADF80030CD23ADF808
:102140000230014B0193F0E7D469020800B583B077
:10215000D0F898308BB11A6822F001021A6000BFE3
:1021600000BF0023ADF80030ADF8023001938C3091
:1021700010F0C4F803B05DF804FB0323ADF80030A1
:10218000CD23ADF80230014B0193F0E7D46902088A
:10219000F0B58BB005460C46AC31226A002A00F03F
:1021A00081800C3204F1C403684610F01DF8BDF8BC
:1021B0000030002B78D194F8C4305B06A1684C3114
:1021C00004F16C0C04F18C07A66AD4F8B820002A3C
:1021D00070D0106810F0010F6CD1D2F800E05648B2
:1021E0000EEA000003F0606343F4C52343F4806308
:1021F00018431060D4F8B820536923F0070343F064
:1022000004035361D4F8B8309960D4F8B830C3F8F7
:102210000CC0D4F8B8301F61D4F8B830B6B25E60E4
:102220000023ADF80830ADF80A300393D4F8B83085
:102230001868002B48D01A6812F0010F44D11968B1
:102240003D4A0A403D49014041F440310A431A6089
:102250000023ADF81030ADF812300593D4F8C0303B
:102260006BB1D4F8B830002B38D01A6842F01402A1
:102270001A600023ADF81830ADF81A300793D4F87F
:10228000B830A3B31B6813F0010F30D194F8B0300D
:10229000032B35D894F8B110D4F8B4203D238B40EB
:1022A000936034E0264A7DE76B4693E8030085E8B7
:1022B00003003EE00323ADF8083040F29113ADF87F
:1022C0000A30204B0393B1E70323ADF8103040F2FE
:1022D0005313ADF812301B4B0593BFE70323ADF842
:1022E0001830EF23ADF81A30164B0793C7E70323D6
:1022F000ADF82030C323ADF82230124B099314E01F
:1023000094F8B110D4F8B4203D238B40D360D4F8B6
:10231000B820136843F00103136000BF00BF00231F
:10232000ADF82030ADF82230099300232B806B806C
:102330006B6028460BB0F0BD1E0010F0E1FFEC0F03
:102340000CD60208D4690208F0B58BB005460C46DD
:102350008C31226A002A7ED00C3204F1A403684634
:102360000FF042FFBDF80030002B76D194F8A43076
:102370005B06A26802F14C0704F16C06A06AD4F86F
:102380009820002A6FD0116811F0010F6BD1D2F89C
:1023900000C056490CEA010103F0606343F40B33BB
:1023A00043F4807319431160D4F89820536923F0E3
:1023B000070343F004035361D4F898309F60D4F8C6
:1023C0009830DE60D4F898301E61D4F8983080B22E
:1023D00058600023ADF80830ADF80A300393D4F804
:1023E00098301868002B48D01A6812F0010F44D1B9
:1023F00019683E4A0A403E49014041F440310A43CF
:102400001A600023ADF81030ADF812300593D4F8FF
:10241000A0306BB1D4F89830002B38D01A6842F055
:1024200014021A600023ADF81830ADF81A30079383
:10243000D4F89830A3B31B6813F0010F30D194F88F
:102440009030032B35D894F89110D4F894203D2384
:102450008B40936034E0274A7FE76B4693E80300A4
:1024600085E803003EE00323ADF8083040F2911305
:10247000ADF80A30204B0393B1E70323ADF81030D9
:1024800040F25313ADF812301B4B0593BFE7032303
:10249000ADF81830EF23ADF81A30174B0793C7E7A4
:1024A0000323ADF82030C323ADF82230124B09933B
:1024B00014E094F89110D4F894203D238B40D3601D
:1024C000D4F89820136843F00103136000BF00BFE5
:1024D0000023ADF82030ADF82230099300232B8083
:1024E0006B806B6028460BB0F0BD00BF1E0010F083
:1024F000E1FFEC0F0CD60208D469020812F0020FBB
:1025000021D0BFEE000A12F0010F1FD0B7EE007A03
:1025100037EE407A4B680A68991A07EE901AF8EE7F
:10252000E77AC7EE276A824200DD1046834200DB6D
:1025300003469B1A07EE903AF8EEE77A67EEA67A22
:1025400037EE800A70479FED030ADCE79FED017AC2
:10255000DEE700BF00000000F0B587B004460D467E
:102560001646002303930B68DB6803AA01A898476B
:10257000BDF804303BB101AB93E8030084E80300ED
:10258000204607B0F0BD039F2B681B68294604A8AE
:1025900098472B685B6828469847024604A9384646
:1025A000FFF7ACFF86ED000A0023238063806360A1
:1025B000E6E700BFF0B587B004460D461646002397
:1025C00003930B689B6803AA01A89847BDF80430E1
:1025D0003BB101AB93E8030084E80300204607B059
:1025E000F0BD039F2B681B68294604A898472B68F9
:1025F0005B6828469847024604A93846FFF77EFFE5
:1026000086ED000A0023238063806360E6E700BF55
:1026100011F0020F29D0FFEE006A11F0010F27D050
:10262000F7EE007A37EEE66A436800681B1A07EE99
:10263000103AB8EEC77AC7EE065AF4EEC06AF1EE69
:1026400010FA01DDB0EE660AB4EEE70AF1EE10FA18
:1026500001DCF0EE407A77EEE67A67EEA57AFDEEE1
:10266000E77A17EE903A18447047DFED036AD4E733
:10267000DFED017AD6E700BF0000000070B52DED58
:10268000028B82B005460C46B0EE408A0B689E680D
:102690001B686846984723685B6820469847014650
:1026A0006846B0EE480AFFF7B3FF024621462846C7
:1026B000B047284602B0BDEC028B70BD30B583B088
:1026C00004460D46CB688BB19B69002200920193B2
:1026D00001216846FFF79CFF2B694BB1186000236E
:1026E000238063806360204603B030BD0023ECE7A5
:1026F0000223238040F24B236380014B6360F2E7A7
:102700005468020800F14043B3F1007F03D800F1A0
:1027100004704001704700B583B00223ADF800306B
:102720000E23ADF80230024B0193684604F04EFBD5
:10273000306A020830B585B0431E012B0ED80C4616
:1027400015461F2915D801281ED01148FFF7DAFFBA
:10275000E5B1012340F8243005B030BD0523ADF8C4
:1027600000302823ADF802300A4B0193684604F08C
:102770002DFB0523ADF808302923ADF80A30054BB1
:10278000039302A804F022FB0348DFE70023E1E7FC
:1027900044380240946A0208403802403D4B1B68AE
:1027A000002B75D110B43C4B9B6803F00C03042B39
:1027B0003CD0082B3ED0002B62D1364B374A1A60F2
:1027C000354A9368C3F30313354850F82340314921
:1027D0000B68E3404B609268C2F3822250F82200FB
:1027E00023FA00F28A6000284ED0022101FB02F297
:1027F00028490A61284A9268C2F34232284850F8B0
:102800002220D340CB60002A40D0022202FB03F3F7
:1028100020494B61204B5A6802F03F021F4BB3FB2B
:10282000F2F38B611B485DF8044B7047194B1B4A50
:102830001A60C5E7184B59685A6802F03F0211F454
:10284000800F13D0154BB3FBF2F3134A5268C2F357
:10285000881203FB02F2104B5B68C3F301430133A0
:102860005B00B2FBF3F30B4A1360A9E70B4BB3FB1E
:10287000F2F3094A5268C2F3881203FB02F2EAE754
:10288000044B064A1A609BE70121AFE70122BDE72E
:102890000048704794610120003802400024F40091
:1028A0007CD602084B1EDBB20F2B09D80139090573
:1028B00001F47001036823F4700319430160704749
:1028C00000B583B00523ADF800304FF4A873ADF820
:1028D0000230024B0193684604F078FAB0680208AF
:1028E0004968E1B130B4A2F10A0C5FFA8CFCBCF18A
:1028F000050F1CD8CC6802EB42021E3A4FF0070CC1
:102900000CFA02FC03FA02F2624002EA0C02624094
:10291000CA60002303804380436030BC70470323B8
:10292000038040F2E71343800B4B43607047092A52
:102930000AD80D6902EB42020724944093406B4091
:1029400023406B400B61E4E7022303804FF4F673EE
:102950004380014B4360E0E7B0680208F0B593792B
:10296000013BDBB294780CB9D5784DB1072B07D970
:10297000022303804FF400734380474B436081E0A0
:102980004D68002D7FD06F68AE6892F800E04FEA86
:102990000E2E0EF4807E27F4807C4EEA0C0E92F808
:1029A00001C04FEA8C2C0CF4806C2EF4806E4CEA43
:1029B0000E0CE40204F400642CF4006C44EA0C04F1
:1029C00092F803C04FEA0C3C0CF4805C24F4805471
:1029D0004CEA04045B039BB224F460442343D4799F
:1029E000240604F0407423F040731C4313795B0009
:1029F00003F0020326F002061E4353794FEA032C2C
:102A00000CF4807C26F480764CEA06065B0203F424
:102A1000007326F400763343167AB60206F4806615
:102A200023F480633343567AF60206F4006623F4F7
:102A300000631E43937A1B0403F4702326F470266C
:102A40003343D67A360506F4401623F440131E436A
:102A5000137B1B0603F0706326F070663343527BD2
:102A6000120702F0405223F0405313436C604A684F
:102A700093604A68136823F02003136000230380E7
:102A800043804360F0BD0323038040F20223438070
:102A9000014B4360F6E700BFB0680208164B1B68A5
:102AA000BFF35B8F13F0010F01D01448704700B5DE
:102AB00083B0114813F0D2FF18B9104803B05DF885
:102AC00004FB042012F09CFC0C4B186040B10C4A33
:102AD0000C490A4813F0BCFF074813F0DBFFECE792
:102AE0000E23ADF800302223ADF80230064B0193DF
:102AF000684604F06BF900BFB4610120C00000100B
:102B000098000020B11C0008F06A020870B584B07B
:102B10004568A5B10446FFF7C1FF064601904FF096
:102B2000FF31006812F0D8FD2B7953B1013BDBB2C5
:102B30002B7193B1306812F08DFC0023636004B0F8
:102B400070BD1523ADF808304FF4C473ADF80A30EA
:102B5000044B039302A804F039F9284610F096F8C4
:102B6000E8E700BFB068020810B50446024B0360F6
:102B7000FFF7CCFF204610BDC4D3020810B50446B1
:102B8000044B0360FFF7C2FF0821204610F0F6FA5D
:102B9000204610BDC4D3020838B500F12C04856A64
:102BA00004EB850504E054F8040B0830FFF7AEFF92
:102BB000AC42F8D138BD00BF38B50546C02200216F
:102BC0001FF038F9002407E0054901EB840105EB0B
:102BD000C40010F0BDF80134172CF5D9284638BDD3
:102BE0001CD6020870B50C46C3699BB103F12402E0
:102BF0001268944224D27BB120331D68114B1B68AC
:102C0000BFF35B8F13F0010F08D02B5D0E4800EB74
:102C1000C30070BD0D4AEBE70D4BEEE7094813F01A
:102C20001DFF0028F1D0084E3046FFF7C5FF094AC6
:102C30000949304613F00CFF024813F02BFFE4E77C
:102C40000020E6E7B06101200000001000D6020875
:102C5000FCD50208980000202D1E0008F0B589B0B0
:102C6000044632B30D4619461046FFF7BBFF074630
:102C700048B3FFF713FF064601904FF0FF3100689D
:102C800012F02AFD3B7933B301333B710023ADF8D9
:102C90001030ADF812300593306812F0DBFBBDF850
:102CA000103003B96F6004AB93E8030084E80300BD
:102CB00006E00223038040F2A9134380154B4360D2
:102CC000204609B0F0BD0223238040F2AB1363809D
:102CD000104B6360F4E703238DF8183000228DF861
:102CE00019208DF81A20FF228DF81B208DF81C303A
:102CF00006AA394602A810F04BF8BDF8083013B9FF
:102D00003B7901333B7104AB02AA92E8030083E8EC
:102D10000300C1E7B06802082DE9F04182B0064621
:102D20000F46002303804380436001F12C048B6A2B
:102D300004EB830800E0043444450ED021686D465E
:102D40000B7C3A1D08312846FFF788FF95E8030001
:102D500086E803003388002BEDD033881BB930465A
:102D600002B0BDE8F0813846FFF716FFF7E700BF75
:102D7000C3699BB110B50446FFF710FDE3693BB191
:102D800004331B78012B05D0022B05D0002010BD89
:102D9000034BF6E78068FAE7C068F8E70020704761
:102DA00004D6020810B50446FFF7E2FF054B5B6846
:102DB000C3F30143044A52F82330B0FBF3F3A36199
:102DC00010BD00BF00230140C4D5020800B58BB080
:102DD0000DF1040C074C0FCCACE80F000FCCACE8A5
:102DE0000F002368ACF80030034B044A3821044834
:102DF0001CF06EFBF86B0208586B0208606B02084F
:102E00008C6B02081D4A0260002242608260C26030
:102E1000026142618261C2610262828480F828207C
:102E200080F8292080F82A2080F82B2080F82C2098
:102E300080F82D2080F82E2080F82F2080F8302078
:102E400080F8312080F8322080F8332080F8342058
:102E500080F8352080F8362080F8372080F8382038
:102E600080F83920032180F83A1080F83B2080F860
:102E70003C2080F83D1080F83E10704714D40208C2
:102E8000018070470180704700220270427082709A
:102E9000C270027142718271C27102724272827298
:102EA000C272027342738273C273027442747047B7
:102EB00070B582B006460D468368198889B201A8AC
:102EC000FFF7DEFFBDF80440B368998889B2684611
:102ED000FFF7D8FF2A78C4F30E0343EAC2339BB24C
:102EE0006A78D20202F4006223F400631343AA78E2
:102EF000D201D2B223F080031343EA78D20002F069
:102F0000380223F0380313432A7923F0030302F035
:102F100003021343AA79920202F4806223F48063CD
:102F20001343EA79520202F4007223F4007313434C
:102F30002A7A120202F4807223F4807313436A7AAD
:102F4000920002F0040223F004031343AA7A9203CE
:102F500002F4804223F480431343EA7A520302F4DA
:102F6000005223F400531343297BC901C9B2BDF8B1
:102F7000002022F080020A43697B890101F04001B0
:102F800022F040020A436979090101F0100122F0A0
:102F900010020A43A97B490101F0200122F020021E
:102FA0000A43297C490001F0020122F002020A438F
:102FB000697C22F001020A43B1680B80B3689A80F1
:102FC00002B070BD10B586B0044600230193029391
:102FD00003930493ADF8143001A8FFF755FF01A93E
:102FE0002046FFF765FF06B010BD00BF10B50446D0
:102FF00028300FF04BFE04F12C000FF047FE04F1D7
:1030000030000FF043FE04F134000FF03FFE10BD1E
:103010001249D1F8FC2042F08072C1F8FC20A1F5E1
:103020005D410A6842F0FF020A6000224A600260C5
:103030004FF0FF3141608260C26002614161826194
:10304000C261026241628262C26202634163826360
:10305000C263026441648264C264704700ED00E0B0
:1030600010B50446FFF7CEFE154B23600023236402
:1030700001226264A364A4F84C302365636511499E
:10308000A16584F85C3084F85D30082284F85E2005
:1030900023666366A366E366216784F8743084F868
:1030A000753084F87620A367E367C4F88030C4F8ED
:1030B000843084F8883084F88930204610BD00BF01
:1030C00024D40208B4D3020870B50446002605468D
:1030D00025F8046B8C22314628461EF0ABFE2846AC
:1030E000FFF7BEFF84F89060204670BD114A026071
:1030F000002242608260C2600261828282758261C7
:103100000277C0F81D20C0F8212042628262C0F818
:103110002B20026342638263082180F83C10026422
:1031200042648264C264026542658265C265026669
:10313000704700BF4CD40208014B0F221A60704741
:10314000540A002038B5054600F10C0403E0043CA5
:1031500020460FF09BFDA542F9D1284638BD00BF9F
:1031600038B5054600F1100403E0043C20460FF09A
:103170008DFDA542F9D1284638BD00BF38B50546BA
:1031800000F1100403E0043C20460FF07FFDA5424F
:10319000F9D1284638BD00BF38B5054600F1100406
:1031A00003E0043C20460FF071FDA542F9D128460A
:1031B00038BD00BF38B5054600F1400403E0043CCB
:1031C00020460FF063FDA542F9D1284638BD00BF67
:1031D00038B5054600F1080403E0043C20460FF032
:1031E00055FDA542F9D1284638BD00BF38B5044683
:1031F000051DAC4204D0043D28460FF047FDF8E71A
:10320000204638BD024B5868B0FA80F0400970473C
:10321000540A002038B5054600F10C0403E0043CD4
:1032200020460FF033FDA542F9D1284638BD00BF36
:1032300010B5044600F5F070FFF7ECFF204610BD16
:1032400038B5054600F10C0403E0043C20460FF0BD
:103250001DFDA542F9D1284638BD00BF10B5044672
:1032600000F5F070FFF7ECFF204610BD00B501231C
:1032700003FA00F0094BC143BFF35B8F53E8002F03
:1032800002EA010C43E800CEBEF1000FF6D1BFF315
:103290005B8F101A18BF01205DF804FB8C610120C0
:1032A00038B5436893B1044600258560C560056163
:1032B0004560C3692A4699681879FFF73BFA207D73
:1032C000FFF7D4FFE5612046FFF76CFD38BD00BF76
:1032D00010B50446024B0360FFF7E2FF204610BD25
:1032E000D4D3020810B50446044B0360FFF7D8FF9F
:1032F000202120460FF042FF204610BDD4D3020803
:1033000000B5012303FA00F0094BC143BFF35B8F03
:1033100053E8002F02EA010C43E800CEBEF1000F93
:10332000F6D1BFF35B8F101A18BF01205DF804FBC4
:103330008861012010B50446C36800229968187995
:10334000FFF7F8F90023A360E36023612079FFF71A
:10335000D7FF10BD836853B110B50446FFF732FEA6
:103360002046FFF743FE2046FFF7E4FF10BD7047FD
:1033700010B504460B4B036083680BB1FFF7EAFFFF
:1033800004F134000FF082FC04F130000FF07EFCF9
:1033900004F12C000FF07AFC04F128000FF076FC09
:1033A000204610BD14D4020810B50446FFF7E0FF14
:1033B000402120460FF0E2FE204610BD38B50446FD
:1033C000084B40F8703B084D25670EF097FFA56548
:1033D00004F158000EF092FF2046FFF7C9FF204687
:1033E00038BD00BF24D40208B4D3020810B5044687
:1033F000FFF7E4FF8C2120460FF0C0FE204610BDF1
:1034000070B504461B4B436000258560C5600561AF
:1034100045610576C5610562174B1B68436285628D
:10342000402229462C301EF005FD20263246294632
:1034300004F16C001EF0FEFC3246294604F18C00BB
:103440001EF0F8FC0D4BC4F8AC3084F8B05084F892
:10345000B150082384F8B230C4F8B450C4F8B8505E
:10346000C4F8BC50C4F8C05084F8C45084F8C550A7
:10347000204670BDD4D302080C5D0208B4D3020804
:1034800038B50546FFF7BCFF05F1C803072113E077
:103490000D4A1A600D4A1A600D4A1A6000225A60DD
:1034A0000C4C9C60DA604FF0FF0C83F810C05A742B
:1034B0005A619A6101391C330029E9DA0023C5F801
:1034C000A831284638BD00BF9CD30208E4D30208C7
:1034D00034D40208C4D302080B4A02600B4A42608B
:1034E0000B4A42600022C260026102750949016014
:1034F0002C314160027642768276C276027742773C
:103500008277C277028470476CD302088CD302089A
:103510005CD402086CD4020870B50446002503464A
:1035200003F8025BC0F802505D601D81C560056153
:103530002022294614301EF07DFC2562656284F845
:10354000205084F8215084F8225084F82350082316
:1035500084F8303004F134069422294630461EF0B7
:1035600069FC3046FFF7B0FD04F1C8066822294621
:1035700030461EF05FFC3046FFF7B8FD04F5987644
:103580004FF4D672294630461EF054FC3046FFF701
:1035900077FF04F53770FFF79FFF04F54070FFF7E2
:1035A0009BFFC4F82453C4F82853C4F82C5344F6A2
:1035B0002063C4F8303384F8345384F835532046FC
:1035C00070BD00BFF0B587B00746214B93E80300FC
:1035D00003908DF81010002400E00134022C33D049
:1035E0001C4B53F82430C3F3074262F3070503F082
:1035F0000F0363F30F2525F47F0525F07F458DF834
:1036000014208DF8153000238DF816308DF8173002
:10361000059A47F8242063F3070663F30F2663F344
:10362000174663F31F66059605A80FF02FFB03AA44
:1036300007EB840101A80FF0ABFBBDF80430002BB1
:10364000CBD001A803F0C2FB012007B0F0BD00BF42
:10365000105D0208F4D5020803460721002918DB93
:1036600010B40C4A1A600C4A1A600C4A1A60002204
:103670005A600B4C9C60DA604FF0FF0C83F810C06E
:103680005A745A61013918330029EADA5DF8044B9B
:10369000704770479CD30208E4D30208FCD30208A9
:1036A000C4D3020810B50446FFF7D6FF0023C4F8C0
:1036B0002031C4F82431C4F8283104F1C00304F1E6
:1036C000E00102E0002243F8042B8B42FAD104F11E
:1036D000E00304F5807102E0002243F8042B8B42E2
:1036E000FAD104F5807304F5907102E0034A43F8BF
:1036F000042B8B42FAD1204610BD00BF9A99793A2B
:1037000038B50446184B436000258560C5600561E7
:1037100045610576C5610562144BDB6843628562CD
:10372000402229462C301EF085FB2022294604F138
:103730006C001EF07FFB0E4BC4F88C3084F8905068
:1037400084F89150082384F89230C4F89450C4F857
:103750009850C4F89C50C4F8A05084F8A45084F841
:10376000A550204638BD00BFD4D302080C5D020826
:10377000B4D3020810B50446FFF76EFF0023C4F867
:103780002031C4F82431C4F8283104F1C00304F115
:10379000E00102E0002243F8042B8B42FAD104F14D
:1037A000E00304F5807102E0002243F8042B8B4211
:1037B000FAD104F5807304F5907102E0034A43F8EE
:1037C000042B8B42FAD1204610BD00BF9A99793A5A
:1037D00010B50446FFF766FF04F59670FFF790FFFB
:1037E00004F5EA70FFF7C6FF04F54070FFF788FFA5
:1037F000204610BD0B68A3F10C0103290DD803EB83
:103800008303A3F13C0113781F228A408B40016897
:103810004B4013404B400360704700B583B0052315
:10382000ADF8003040F23F13ADF80230024B019387
:10383000684603F0CBFA00BFB06802080B68991F16
:1038400005290DD803EB8303A3F11E0113781F2272
:103850008A408B4001684B4013404B4003607047E7
:1038600000B583B00523ADF8003040F23F13ADF84A
:103870000230024B0193684603F0A8FAB0680208D0
:10388000096805290BD801EB810113781F228A40B2
:103890008B4001684B4013404B400360704700B5BC
:1038A00083B00523ADF8003040F23F13ADF802308D
:1038B000024B0193684603F089FA00BFB068020822
:1038C0002DE9F04190B006461D46013B0F2B0AD969
:1038D000022303804FF4E7734380604B436030461C
:1038E00010B0BDE8F081884617464B682BB1002325
:1038F0000C930B930A930C2413E00323038040F2F0
:10390000CF134380554B4360E9E70223ADF82030E5
:103910004FF42C73ADF82230504B099318E001346A
:10392000E4B20F2C0ED8A542F9D93B5D8DF80730D3
:10393000122BEAD80F940DF107020FA90CA8FFF77C
:1039400059FFECE70023ADF82030ADF822300993A1
:10395000062408E00E940DF107020EA90BA8FFF74C
:103960006DFF0134E4B20B2C10D8A542F9D93B5DB0
:103970008DF80730122BEDD90223ADF818304FF433
:103980002C73ADF81A30354B079305E00023ADF8E2
:103990001830ADF81A30079300240BE00223ADF87D
:1039A00010304FF42C73ADF812302C4B059318E007
:1039B0000134E4B2052C0ED8A542F9D93B5D8DF84F
:1039C0000730122BEAD80D940DF107020DA90AA8B1
:1039D000FFF756FFECE70023ADF81030ADF81230DA
:1039E0000593BDF820306BB102AB08AA92E8030042
:1039F00083E80300BDF80830FBB1002333807380F7
:103A000073606CE7BDF8183033B102AB06AA92E8D8
:103A1000030083E80300EDE7BDF8103033B102ABDB
:103A200004AA92E8030083E80300E3E70023ADF86B
:103A30000830ADF80A300393DCE7E9B20CA8FEF7D2
:103A400031FFD8F804300C9ADA62D8F804300B9AB7
:103A50001A63D8F804300A9A5A63CEE7B0680208AD
:103A60002DE9F04F83B001F1080301930B69E3B135
:103A7000CC6804F1640300936568B5F804E01FFAAC
:103A80008EFEF446B5F818801FFA88F84746AB8BCF
:103A90009BB299462E8CB6B2B246097D01390329F4
:103AA0003CD8DFE801F00A4C80B20323038040F2E7
:103AB00096234380694B43603EE01288C2F3800145
:103AC00028F0830343EAC11302F0010123F0040349
:103AD00043EA8103C2F3400123F0080343EAC10330
:103AE000C2F3421723F0700343EA0717C2F300132F
:103AF00026F0020A4AEA430A02F008032AF0080AFA
:103B00004AEA030AC2F340232EF4807C4CEA032CD9
:103B1000C2F300222CF4007C4CEA422CA5F804C02D
:103B200063681F836368A3F81C906368A3F820A0F0
:103B3000002303804380436003B0BDE8F08F128808
:103B4000C2F3800147F6FF4308EA030343EAC133A7
:103B500002F0010123F4806343EA8123C2F34001B0
:103B600023F4006343EAC123C2F3421723F4E04382
:103B700043EA0737C2F3001326F0200A4AEA431A41
:103B8000C2F3C0032AF0800A4AEAC31AC2F34023F0
:103B90002EF4806C4CEA832CC2F300222CF4006CCF
:103BA0004CEAC22CBAE71288C2F3800123F08303E7
:103BB00043EAC11302F0010123F0040343EA810345
:103BC000C2F3400123F0080343EAC103C2F34219E0
:103BD00023F0700343EA0919C2F3001326F4007AB4
:103BE0004AEA432AC2F3C0032AF4006A4AEAC32A13
:103BF000C2F340232EF4805C4CEA033CC2F3002263
:103C00002CF4005C4CEA423C88E7B2F800C0CCF3EC
:103C1000800223F440735B045B0C43EAC2330CF074
:103C2000010223F4806343EA8223CCF3400223F4AD
:103C3000006343EAC223CCF3421923F4E04343EA8E
:103C40000939CCF3001A26F4005646EA4A3ACCF376
:103C5000402C2EF4804E4EEA8C3C5FE754680208FC
:103C600000B585B001460023ADF80C3003AA01A8C9
:103C7000FFF7F6FE05B05DF804FB00BF30B583B07A
:103C800001F1080301930B69A3B1CB6803F164044C
:103C900000945C68B4F820C01FFA8CFC634691F86D
:103CA00014E00EF1FF3EBEF1030F1ED8DFE80EF068
:103CB0000A26425E0323038040F207334380314BE0
:103CC000436017E08B7E13B1B2B9002500E00025F8
:103CD0002CF001032B439BB2897F01B90022920093
:103CE00002F0040223F0040313432384002303801F
:103CF0004380436003B030BD1546E9E78B7E1BB1BE
:103D0000B2B94FF0000E01E04FF0000E4FEA0E1E68
:103D10000EF0100E2CF0100343EA0E03897F01B958
:103D20000022920102F0400223F040031343DCE73B
:103D30009646EBE78B7E1BB1B2B94FF0000E01E067
:103D40004FF0000E4FEA0E2E0EF4807E2CF480739E
:103D500043EA0E03897F01B90022920202F48062D5
:103D600023F480631343C0E79646EBE78B7E03B9E9
:103D70000022120302F480522CF4805C4CEA02030D
:103D8000B3E700BF5468020810B584B000F108031F
:103D9000019303699BB104460022014602A8FFF784
:103DA0006DFF2046FFF75CFF04F118000EF06EFF78
:103DB00004F11C000EF06AFF2046FFF7E5FF04B097
:103DC00010BD00BFA0F10400DEE700BF10B504463F
:103DD000074B03602C334360FFF7D6FF04F11C0050
:103DE0000EF054FF04F118000EF050FF204610BDF5
:103DF0006CD4020810B50446FFF7E8FF24212046E2
:103E00000FF0BCF9204610BD10B584B0012380F836
:103E1000743000F14903039300F14A0202920193C6
:103E200090F87530B3B10446002380F875304269CC
:103E30002AB193899BB223F4F8739BB29381201D1E
:103E400010F05AFF04F178000EF020FF04F17C001E
:103E50000EF01CFF04B010BD10B5D40782B013D50E
:103E6000837801F0010453B3037890F801E003F57F
:103E700080134FF0010C7F330CFA0EFC9B021FFAEB
:103E80008CFCA4B9A3F81AC093070ED5837901F06E
:103E90000201A3B103794079012203F58013824026
:103EA0007F3392B29B0239B11A8302B010BDA3F8DE
:103EB00018C09307F9D5E9E75A8302B010BD034A49
:103EC000034B6846CDE9002302F080FF0300D700D2
:103ED0008866020808B540EA500000F00101800839
:103EE00000F002000143054841604B1C83604FF025
:103EF000FF320C30FFF7B0FF08BD00BF540A0020AE
:103F000008B503698B4202D900EB810008BD034B61
:103F1000034A40F25D6103481BF0DAFA1C6C0208A8
:103F2000386C0208686D020808B5036A8B4202D932
:103F300000EBC10008BD034B034A40F25D6103483A
:103F40001BF0C6FA1C6C0208CC6D0208686D0208F2
:103F500010B50446FDF7C8FE2046FEF7F7F82046E8
:103F6000FEF71AFE10BD00BF00B5012303FA00F0F2
:103F7000094BC143BFF35B8F53E8002F02EA010CEA
:103F800043E800CEBEF1000FF6D1BFF35B8F101AED
:103F900018BF01205DF804FB9061012030B585B0A9
:103FA00000F1640301934368002B3ED0044682680D
:103FB000128B93B1998989B2D24312B20A409A8185
:103FC0000023ADF80830ADF80A300393A068C1684B
:103FD00010300FF051F800250DE00323ADF8083044
:103FE00040F2DC43ADF80A30114B0393EEE703686F
:103FF0005B6898470135032D07D805F1140304EBDE
:10400000830358680028F2D1F4E7A3680022996876
:104010001879FEF78FFB0023636023646364A36455
:10402000236594F83800FFF79FFF05B030BD00BF4F
:104030005468020810B50446024B0360FFF7AEFF58
:10404000204610BD4CD4020810B50446044B036052
:10405000FFF7A4FF682120460FF090F8204610BD1E
:104060004CD402080378002B31D000B585B082789B
:10407000BAB1417801228A4092B203F580137F33AE
:104080009B025A838379BBB1437901229A4092B251
:10409000037903F580137F339B025A8305B05DF8E3
:1040A00004FB0323ADF80830D723ADF80A30084BE2
:1040B000039302A802F08AFE0323ADF80030D72351
:1040C000ADF80230024B0193684602F07FFE704764
:1040D000886602080378002B31D000B585B082785D
:1040E000BAB1417801228A4092B203F580137F333E
:1040F0009B021A838379BBB1437901229A4092B221
:10410000037903F580137F339B021A8305B05DF8B2
:1041100004FB0323ADF80830D723ADF80A30084B71
:10412000039302A802F052FE0323ADF80030D72318
:10413000ADF80230024B0193684602F047FE70472B
:1041400088660208F0B583B004460D4643698BB318
:104150009B8903F4F87616F0400F02D015F0400F5B
:104160002AD115F0800F02D016F0800F2BD115F058
:10417000200F02D016F0200F48D115F0080F0DD0F7
:1041800063695BB11A8892B2ADF804209B889BB238
:10419000ADF80630BDF80430BDF80630616939B1BC
:1041A0008B899BB223F4F87206F4F87313438B8166
:1041B00003B0F0BD0026CEE704F17800FFF752FF10
:1041C00026F04006CDE7BFF35B8FA36EE26E93420D
:1041D00013D00133626E934200D3236E1F78BFF376
:1041E0005B8FA366BFF35B8F04F17800FFF772FF6C
:1041F00063699F8026F04006B9E726F0800694F8B0
:104200007830002BB3D046F04006B0E763699B8856
:10421000DAB2BFF35B8FA36D0133216D8B4200D304
:10422000E36C616D9942A8D01A70BFF35B8FA365F0
:10423000BFF35B8FA1E700BF10B582B000F130047F
:104240000094D0F8C0301BB103EBC30304EB83042C
:1042500001940A46009B9C420BD023B15A60243340
:1042600000930132F6E7114B114A8E2111481BF0E1
:104270002FF900F1C4020092D0F854311BB103EBC6
:10428000C30302EB83020192009B9A420BD023B13D
:104290005960243300930131F6E7044B044A8E2120
:1042A00004481BF015F902B010BD00BF406F0208B2
:1042B000486F0208686D020810B582B000F1300442
:1042C0000094D0F8C0301BB103EBC30304EB8304AC
:1042D00001940A46009B9C420BD023B15A602433C0
:1042E00000930132F6E7114B114A8E2111481BF061
:1042F000EFF800F1C4020092D0F854311BB103EB87
:10430000C30302EB83020192009B9A420BD023B1BC
:104310005960243300930131F6E7044B044A8E219F
:1043200004481BF0D5F802B010BD00BF406F020872
:1043300074720208686D02082DE9F04184B00646E7
:104340000F46904600240480448044600FE011F042
:10435000010F0BD019E06D4608EB61012846984724
:1043600095E8030086E803003388BBB901343B6855
:10437000A34213D907EB0413043393E8030004ABFF
:1043800003E9030003460028E1D0039911F0010F6F
:10439000E1D04A1058F80220D358DCE7338853B9EB
:1043A000304604B0BDE8F08111F0010F03D010E0F9
:1043B00008EB60009847002CF2D0013C07EB041397
:1043C0000C3393E8030004AB03E903000346002821
:1043D000EAD0039810F0010FEAD0421058F80220FA
:1043E000D358E5E730B585B004460D460A4617496F
:1043F0006846FFF7A1FFBDF80030B3B995F8253046
:1044000063B195F826304BB92B69A3B101229A67A5
:104410000023ADF80830ADF80A3003930023238061
:1044200063806360204605B030BD6B4693E80300AF
:1044300084E80300F6E70323ADF808304FF4E57392
:10444000ADF80A30024B0393E8E700BF40D50208FD
:10445000B0680208016070470068704738B500F125
:104460002C042830FFF7F8FF04EB800504E054F833
:10447000040B0830FEF74AFBAC42F8D138BD00BF50
:1044800010B50446FDF748FC2046FDF73DFE2046EA
:10449000FFF7E4FF10BD00BF2DE9F04182B00646F2
:1044A0000F46002303804380436001F12C048B6A94
:1044B00004EB830800E0043444450ED021686D46C7
:1044C0000B7C3A1D08312846FEF7C8FB95E803002F
:1044D00086E803003388002BEDD033881BB93046C3
:1044E00002B0BDE8F0813846FFF7B8FFF7E700BF3C
:1044F0002DE9F04184B006460F4690460024048022
:10450000448044600FE011F0010F0BD019E06D46BC
:1045100008EB61012846984795E8030086E8030008
:104520003388BBB901343B68A34213D907EB0413AA
:10453000043393E8030004AB03E9030003460028B7
:10454000E1D0039911F0010FE1D04A1058F8022090
:10455000D358DCE7338853B9304604B0BDE8F08166
:1045600011F0010F03D010E008EB60009847002C19
:10457000F2D0013C07EB04130C3393E8030004ABC7
:1045800003E9030003460028EAD0039810F0010F66
:10459000EAD0421058F80220D358E5E730B585B08C
:1045A00004460D460A4617496846FFF7A1FFBDF8C5
:1045B0000030B3B995F8253063B195F826304BB982
:1045C0002B69A3B101229A670023ADF80830ADF83A
:1045D0000A3003930023238063806360204605B084
:1045E00030BD6B4693E8030084E80300F6E703233D
:1045F000ADF808304FF4E573ADF80A30024B039381
:10460000E8E700BFBCD40208B06802080160704748
:1046100008B5D0F890302BB103EBC3039B00243BCB
:10462000184408BD034B044A40F2416103481AF0A4
:104630004FFF00BFA0750208B0750208686D020840
:1046400000B583B0C3688B4206D901611C30FDF709
:104650009FFA03B05DF804FB0523ADF80030BA23E0
:10466000ADF80230024B0193684602F0AFFB00BF89
:104670003C7A02084369C1688B420AD243698B4283
:1046800008D0826832F82320022A03D00133436124
:10469000F4E77047704700BF08B5036A8B4202D940
:1046A00000EBC10008BD034B034A40F26B610348B5
:1046B0001AF00EFF1C6C0208A07A0208686D02084E
:1046C00038B51C46D0F8C030994201D3002038BD1F
:1046D00015460C30FFF7E0FF4368AB4207D944B101
:1046E000036805EB8502134423600120EFE70020F7
:1046F000EDE70120EBE700BFF0B583B007460E46BB
:1047000014460023019301AB0A462146FFF7D8FF68
:10471000054660B1019B1B7863B907F5D470FDF7BE
:1047200037FA214607F5B670FFF7EAFB0660284620
:1047300003B0F0BD214607F5CA70FFF7E1FB066044
:10474000214607F5DC70FFF7EFFBFDF721FAEEE7F6
:1047500070B505460E46002405E0E2B23146284613
:10476000FFF7CAFF0134D5F8C0309C42F5D170BDC7
:1047700008B502210148FFF7EBFF08BD680A0020D9
:1047800008B5002211460248FFF7B6FF08BD00BF7A
:10479000680A002008B5002203210248FFF7ACFF99
:1047A00008BD00BF680A002008B5002208210248A1
:1047B000FFF7A2FF08BD00BF680A002008B500226D
:1047C00008210248FFF798FF08BD00BF680A0020D3
:1047D00008B5022208210248FFF78EFF08BD00BF7E
:1047E000680A002070B584B005460C46002301938A
:1047F00001AB0A460121FFF763FF064660B1019B4A
:104800001B7863B9012105F5B670FFF779FB0460E9
:1048100005F5D870FDF7BCF9304604B070BD032330
:10482000ADF8083040F2D733ADF80A30024B0393AD
:1048300002A802F0CBFA00BFBC7C020810B5054C00
:1048400000212046FFF784FF00212046FFF7CAFF22
:1048500010BD00BF680A002038B51C46D0F8C03033
:10486000994201D3002038BD15460C30FFF714FFE4
:104870004368AB4207D944B1036805EB8502134492
:1048800023600120EFE70020EDE70120EBE700BF08
:10489000F0B583B007460E4614460023019301ABE2
:1048A0000A462146FFF7D8FF054660B1019B1B78F9
:1048B00063B907F5D470FDF76BF9214607F5B670BB
:1048C000FFF71EFB0660284603B0F0BD214607F542
:1048D000CA70FFF715FB0660214607F5DC70FFF78D
:1048E00023FBFDF755F9EEE770B505460E460024AB
:1048F00005E0E2B231462846FFF7CAFF0134D5F899
:10490000C0309C42F5D170BD08B502210148FFF7C7
:10491000EBFF08BD640C002008B5002211460248D8
:10492000FFF7B6FF08BD00BF640C002008B50022E9
:1049300003210248FFF7ACFF08BD00BF640C002054
:1049400008B5002204210248FFF7A2FF08BD00BFFE
:10495000640C002008B5002208210248FFF798FFE8
:1049600008BD00BF640C002008B5002208210248E1
:10497000FFF78EFF08BD00BF640C002070B584B047
:1049800005460C460023019301AB0A460121FFF7BF
:1049900063FF064660B1019B1B7863B9012105F5F1
:1049A000B670FFF7ADFA046005F5D870FDF7F0F8C2
:1049B000304604B070BD0323ADF8083040F2D73361
:1049C000ADF80A30024B039302A802F0FFF900BFD2
:1049D000BC7C020810B5054C00212046FFF784FF7F
:1049E00000212046FFF7CAFF10BD00BF640C002065
:1049F000F0B587B00746214B93E8030003908DF88C
:104A00001010002400E00134032C33D01C4B53F869
:104A10002430C3F3074262F3070503F00F0363F387
:104A20000F2525F47F0525F07F458DF814208DF89E
:104A3000153000238DF816308DF81730059A47F899
:104A4000242063F3070663F30F2663F3174663F32B
:104A50001F66059605A80EF019F903AA07EB840155
:104A600001A80EF095F9BDF80430002BCBD001A8B9
:104A700002F0ACF9012007B0F0BD00BF1C5D0208D8
:104A8000E4D5020808B58160032901D8034608E08F
:104A9000FEF79CF900221A705A70642203F8022B68
:104AA000614601F1FF3C0029F4D108BD70B5044610
:104AB0000E46002505604560856003210C30FFF738
:104AC000E1FFA5610EB9204670BD2046FFF790FFBB
:104AD000F9E700BF08B5D0F890302BB103EBC30362
:104AE0009B00243B184408BD034B044A40F241613B
:104AF00003481AF0EDFC00BFA0750208247D0208EF
:104B0000686D020800B583B0C3688B4206D90161A5
:104B10001C30FDF73DF803B05DF804FB0523ADF84C
:104B20000030BA23ADF80230024B0193684602F020
:104B30004DF900BF3C7A02084369C1688B420AD232
:104B400043698B4208D0826832F82320022A03D0BE
:104B500001334361F4E77047704700BFF0B587B099
:104B60000746214B93E8030003908DF810100024B2
:104B700000E00134032C33D01C4B53F82430C3F332
:104B8000074262F3070503F00F0363F30F2525F4D3
:104B90007F0525F07F458DF814208DF81530002312
:104BA0008DF816308DF81730059A47F8242063F3F6
:104BB000070663F30F2663F3174663F31F66059634
:104BC00005A80EF063F803AA07EB840101A80EF014
:104BD000DFF8BDF80430002BCBD001A802F0F6F8C6
:104BE000012007B0F0BD00BF1C5D0208D4D502084B
:104BF00008B58160032901D8034608E0FEF7E6F80E
:104C000000221A705A70642203F8022B614601F1E7
:104C1000FF3C0029F4D108BD70B504460E460025BE
:104C200005604560856003210C30FFF7E1FFA56159
:104C30000EB9204670BD2046FFF790FFF9E700BF90
:104C400008B5FEF7C3F800BF02604160704700BFBF
:104C500008B5FEF7BBF800BF0160704708B5FEF766
:104C6000B5F800BF0160704708B5FEF7AFF800BFA8
:104C700008B5D0F890308B4204D901EBC10100EBAC
:104C8000810008BD034B044A40F26B6103481AF0EF
:104C90001FFC00BF1C6C0208B0810208686D02088E
:104CA00010B582B00246C468A1420AD2A14213D014
:104CB000936833F82100831E9BB2012B0DD901317B
:104CC000F4E70523ADF800309123ADF80230044B32
:104CD0000193684602F07AF8032002B010BD00BFCD
:104CE0003C7A02082DE9F04F87B01E46DDF840B04F
:104CF000D0F8C030994206D2804689461746D2F88D
:104D000000A0554610E00523ADF8003040F22A23FC
:104D1000ADF802301F4B0193684602F057F8E3B933
:104D200003281AD1053501367C6804EB8404544409
:104D3000A5421ED05E451CD06C78FF2CF2D04946AF
:104D400008F13000FFF794FF2146FFF7A9FF2B7809
:104D5000012BE4D10228E2D1E4E70523ADF80830C5
:104D600040F23923ADF80A300A4B039302A802F04F
:104D70002DF85E4502D107B0BDE8F08F0523ADF8F0
:104D8000103040F24623ADF81230024B059304A8D0
:104D900002F01CF8BC7C02082DE9F04F87B01D46DC
:104DA0009DF840B0D0F8C030994206D2804689467E
:104DB0001746D2F800A0564611E00523ADF80030A2
:104DC00040F22A23ADF80230204B0193684601F0EF
:104DD000FDFFEBB903281BD105360135EDB27C6828
:104DE00004EB84045444A6421ED05D451CD0747864
:104DF000FF2CF1D0494608F13000FFF739FF21467A
:104E0000FFF74EFF3378012BE3D10228E1D1E3E72E
:104E10000523ADF8083040F23923ADF80A300B4BCA
:104E2000039302A801F0D2FF5D4502D107B0BDE8AF
:104E3000F08F0523ADF8103040F24623ADF8123064
:104E4000024B059304A801F0C1FF00BFBC7C02081F
:104E500030B583B0054600240DE0214605F10C0075
:104E6000FFF71AFC02461023009300232146284630
:104E7000FFF738FF0134EB6A9C420FD0012CECD0D5
:104E8000214605F10C00FFF707FC02460C230093B6
:104E9000002321462846FFF77FFFEBE703B030BD34
:104EA00002604160704700BF08B5FDF78FFF00BF8B
:104EB00008B5D0F890308B4204D901EBC10100EB6A
:104EC000810008BD034B044A40F26B6103481AF0AD
:104ED000FFFA00BF1C6C020880860208686D020899
:104EE00010B582B00246C468A1420AD2A14213D0D2
:104EF000936833F82100831E9BB2012B0DD9013139
:104F0000F4E70523ADF800309123ADF80230044BEF
:104F10000193684601F05AFF032002B010BD00BFA4
:104F20003C7A02082DE9F04F87B01E46DDF840B00C
:104F3000D0F8C030994206D2804689461746D2F84A
:104F400000A0554610E00523ADF8003040F22A23BA
:104F5000ADF802301F4B0193684601F037FFE3B90B
:104F600003281AD1053501367C6804EB84045444C7
:104F7000A5421ED05E451CD06C78FF2CF2D049466D
:104F800008F13000FFF794FF2146FFF7A9FF2B78C7
:104F9000012BE4D10228E2D1E4E70523ADF8083083
:104FA00040F23923ADF80A300A4B039302A801F00E
:104FB0000DFF5E4502D107B0BDE8F08F0523ADF8C7
:104FC000103040F24623ADF81230024B059304A88E
:104FD00001F0FCFEBC7C02082DE9F04F87B01D46B5
:104FE0009DF840B0D0F8C030994206D2804689463C
:104FF0001746D2F800A0564611E00523ADF8003060
:1050000040F22A23ADF80230204B0193684601F0AC
:10501000DDFEEBB903281BD105360135EDB27C6806
:1050200004EB84045444A6421ED05D451CD0747821
:10503000FF2CF1D0494608F13000FFF739FF214637
:10504000FFF74EFF3378012BE3D10228E1D1E3E7EC
:105050000523ADF8083040F23923ADF80A300B4B88
:10506000039302A801F0B2FE5D4502D107B0BDE88E
:10507000F08F0523ADF8103040F24623ADF8123022
:10508000024B059304A801F0A1FE00BFBC7C0208FE
:1050900030B583B0054600240DE0214605F10C0033
:1050A000FFF7FAFA02461023009300232146284610
:1050B000FFF738FF0134EB6A9C420FD0012CECD093
:1050C000214605F10C00FFF7E7FA02460C23009396
:1050D000002321462846FFF77FFFEBE703B030BDF2
:1050E00030B40346A1EB000C4FEA2C1C02E0103355
:1050F0000CF1FF3CBCF1000F12DD1868146884420B
:1051000028D0181D5D68AC4225D003F108009D68C9
:10511000AC4220D003F10C00DD68AC42E7D11AE0CC
:10512000C81A801002280AD0032803D001280BD007
:10513000084610E01C68106884420ED004331C68D6
:10514000106884420BD0043318681268904208D06B
:10515000084600E0184630BC70471846FBE7184682
:10516000F9E71846F7E700BF08B54FF00003FFF76F
:10517000B7FF08BD70B586B00446284B03600646ED
:10518000274B46F8043B3046FCF75AF900252564C6
:105190004FF0FF3363642046224B40F84C3B6A4695
:1051A0008021FCF7A3FA01AA802104F16000FCF73A
:1051B0009DFA84F8745084F87550A567E56784F803
:1051C000785084F8795084F87A5084F87B5084F8C9
:1051D0007C5084F87D5084F87E5084F87F50636959
:1051E00093B10323ADF8083040F27B13ADF80A30D9
:1051F0000D4B039304940D4B059304A93046FCF723
:1052000011F9204606B070BD0623A3740023ADF843
:105210000830ADF80A300393ECE700BF18D302085A
:1052200034D30208A8D4020838670208491D0008D0
:1052300070B505460024046044608460C460046165
:1052400044618461C461046244628462C462046330
:1052500044638463402221463C301CF0EBFD05F1A1
:105260007C00FFF787FFC5F8FC40C5F80041C5F892
:10527000044105F58470FEF7ABFA05F596664FF428
:105280004E72214630461CF0D5FD3046FEF744F9FB
:10529000284670BD38B50446114B036090F8753050
:1052A000D3B904F1780504F17C000DF0EFFC284639
:1052B0000DF0ECFC04F16000FCF702FA04F14C0084
:1052C000FCF7FEF92046074B40F8043BFCF78CF84E
:1052D000054B2360204638BDFEF796FDE1E700BF91
:1052E000A8D4020834D3020818D3020810B5044623
:1052F000FFF7D0FF802120460DF040FF204610BD73
:1053000030B40346A1EB000C4FEA2C1C02E0103332
:105310000CF1FF3CBCF1000F12DD186814688442E8
:1053200028D0181D5D68AC4225D003F108009D68A7
:10533000AC4220D003F10C00DD68AC42E7D11AE0AA
:10534000C81A801002280AD0032803D001280BD0E5
:10535000084610E01C68106884420ED004331C68B4
:10536000106884420BD0043318681268904208D049
:10537000084600E0184630BC70471846FBE7184660
:10538000F9E71846F7E700BF08B54FF00003FFF74D
:10539000B7FF08BD84460160436000F1080392E84E
:1053A000030083E803000023CCF81030CCF814305D
:1053B000CCF81830CCF81C30CCF820306046704760
:1053C0002DE9F041A4B004460C30E26A032A00F251
:1053D0009C8000EBC20303C983E80300E36A013346
:1053E000E36204F13005264656F8041BD4F8C030B9
:1053F000032B00F2A48003EBC30C0023324605EB21
:105400008C00FFF7C7FFD4F8C0300133C4F8C030B8
:10541000274657F8C41BD4F85431032B00F2B3804D
:1054200003EBC30C0023324607EB8C00FFF7B2FFFF
:10543000D4F854310133C4F8543104F5AC76002368
:105440000593D4F86821032A00F2C280002146F8AF
:105450002210D4F868310133C4F8683104F5B67607
:1054600000230693D4F87C21032A00F2D080002187
:1054700046F82210D4F87C310133C4F87C3104F5AD
:10548000C07600230793D4F89021032A00F2DE802F
:10549000002146F82210D4F890310133C4F890313D
:1054A00004F5CA7600230893D4F8A421032A00F255
:1054B000EC80002146F82210D4F8A4310133C4F85E
:1054C000A43104F5DC76002309930A93D4F8D8219B
:1054D000032A00F2F98006EBC20309AA92E803004E
:1054E00083E80300D4F8D8310133C4F8D831284612
:1054F000FFF78EF80021FFF7A3F83846FFF788F88A
:10550000FFF7B8F824B0BDE8F08104F10C0303EB19
:10551000C20322934FF000038DF804300091012361
:1055200022AA014623A8FFF78BFB239B002B7FF4C5
:1055300058AF754B754A8E21754819F0C9FF04F1B3
:10554000300203EBC30302EB830320931EAF32460A
:105550003846FFF779FB4FF000038DF8083097E8E5
:1055600003008DE80300012320AA294621A8FFF7A4
:105570006FFB219B002B7FF44BAF634B654A8E2161
:10558000634819F0A5FF04F1C40203EBC30302EB67
:1055900083031C930DF1680832464046FFF754FB25
:1055A0004FF000038DF8083098E803008DE8030001
:1055B00001231CAA39461DA8FFF74AFB1D9B002B9F
:1055C0007FF43BAF504B534A8E21514819F080FF76
:1055D00004F5AC7303EB8203189305A917A8FFF732
:1055E0003BFB4FF000038DF80430179B0093012321
:1055F00018AA314619A8FFF731FB199B002B7FF43D
:105600002DAF414B444A8E21414819F061FF04F50A
:10561000B67303EB8203159306A914A8FFF71CFBCE
:105620004FF000038DF80430149B0093012315AA5A
:10563000314616A8FFF712FB169B002B7FF41FAF15
:10564000314B354A8E21324819F042FF04F5C073C0
:1056500003EB8203129307A911A8FFF7FDFA4FF09D
:1056600000038DF80430119B0093012312AA3146E8
:1056700013A8FFF7F3FA139B002B7FF411AF224B13
:10568000254A8E21224819F023FF04F5CA7303EB43
:1056900082030F9308A90EA8FFF7DEFA4FF000036C
:1056A0008DF804300E9B009301230FAA314610A8F9
:1056B000FFF7D4FA109B002B7FF403AF124B164A6E
:1056C0008E21134819F004FF04F5DC7404EBC204C6
:1056D0000C9409A90BA8FFF7C5FA4FF000038DF849
:1056E00004300B9B009301230CAA31460DA8FFF751
:1056F000BBFA0D9B002B7FF4FAAE034B074A8E21B9
:10570000034819F0E5FE00BF406F0208508B020805
:10571000686D0208486F0208B08C0208808D02088C
:10572000F0B585B004460193054645F8041B92E8A0
:10573000030085E803000022E262C4F8C020C4F838
:105740005421C4F86821C4F87C21C4F89021C4F81D
:10575000A421C4F8A821C4F8AC21C4F8B021C4F82D
:10576000B421C4F8D821C4F8DC21032B04D9154B8B
:105770001F68002635460EE001ABF9E7124B93E8AF
:10578000030004AB03E9030002A92046FFF718FE5B
:1057900001360135EDB2BE420AD0042D08D0012DEC
:1057A000ECD00A4B93E8030004AB03E90300EBE7FA
:1057B0000B992046FEF740FD2046FFF749FB2046A7
:1057C00005B0F0BDF0D50208245D02082C5D02088A
:1057D000F0B583B004469DF8246000F5F075089F8D
:1057E0000197009313460A462946FFF799FF0021C7
:1057F0002846FFF75BF916B9204603B0F0BD2846EE
:10580000FFF7F6F8F8E700BF84460160436000F157
:10581000080392E8030083E803000023CCF810306B
:10582000CCF81430CCF81830CCF81C30CCF8203040
:10583000604670472DE9F041A2B004460C30E26AA0
:10584000032A00F29C8000EBC20303C983E8030033
:10585000E36A0133E36204F13005264656F8041B7F
:10586000D4F8C030032B00F2A48003EBC30C002358
:10587000324605EB8C00FFF7C7FFD4F8C030013388
:10588000C4F8C030274657F8C41BD4F85431032B52
:1058900000F2B38003EBC30C0023324607EB8C000D
:1058A000FFF7B2FFD4F854310133C4F8543104F592
:1058B000AC7600230493D4F86821032A00F2C28056
:1058C000002146F82210D4F868310133C4F8683159
:1058D00004F5B67600230593D4F87C21032A00F260
:1058E000D080002146F82210D4F87C310133C4F86E
:1058F0007C3104F5C07600230693D4F89021032A66
:1059000000F2DE80002146F82210D4F890310133F5
:10591000C4F8903104F5CA7600230793D4F8A42183
:10592000032A00F2EC80002146F82210D4F8A431BA
:105930000133C4F8A43104F5DC7100230893099302
:10594000D4F8D821032A00F2F98001EBC20308AA97
:1059500092E8030083E80300D4F8D8310133C4F897
:10596000D8312846FFF7B6F80021FFF7CBF83846C4
:10597000FFF7B0F8FFF7E0F822B0BDE8F08104F1DE
:105980000C0303EBC20320934FF000038DF80430A7
:105990000091012320AA014621A8FFF751F9219B7C
:1059A000002B7FF458AF724B724A8E21724819F067
:1059B0008FFD04F1300203EBC30302EB83031E935C
:1059C0001CAF32463846FFF76BFA4FF000038DF8F4
:1059D000083097E803008DE8030001231EAA29463A
:1059E0001FA8FFF761FA1F9B002B7FF44BAF604BA2
:1059F000624A8E21604819F06BFD04F1C40203EB8A
:105A0000C30302EB83031A930DF16008324640464C
:105A1000FFF746FA4FF000038DF8083098E80300CE
:105A20008DE8030001231AAA39461BA8FFF73CFAA8
:105A30001B9B002B7FF43BAF4D4B504A8E214E48B1
:105A400019F046FD04F5AC7303EB8203169304A929
:105A500015A8FFF701F94FF000038DF80430159BEE
:105A60000093012316AA314617A8FFF7F7F8179BF2
:105A7000002B7FF42DAF3E4B414A8E213E4819F05A
:105A800027FD04F5B67303EB8203139305A912A84F
:105A9000FFF7E2F84FF000038DF80430129B0093FB
:105AA000012313AA314614A8FFF7D8F8149B002B42
:105AB0007FF41FAF2E4B324A8E212F4819F008FD7C
:105AC00004F5C07303EB8203109306A90FA8FFF738
:105AD000C3F84FF000038DF804300F9B00930123AF
:105AE00010AA314611A8FFF7B9F8119B002B7FF4DB
